:020000040800F2
:1000000068DF0010DD02000869DF0008E9880008E9
:1000100081DB0008A91B00088D0002080000000019
:10002000000000000000000000000000650A010858
:1000300091210008000000007DF7000869480108D0
:10004000F7020008F7020008F7020008F7020008AC
:10005000F7020008F7020008ED2900089D2A0008B1
:10006000FD2A0008492B0008F7020008CD1F0008F0
:10007000F7020008F7020008F7020008F70200087C
:1000800021200008F7020008F7020008F702000824
:10009000F7020008F7020008F7020008952B000895
:1000A000F7020008F7020008F7020008F70200084C
:1000B000F7020008DD4801085D4A0108F702000860
:1000C000F7020008F7020008F7020008F70200082C
:1000D000F7020008F7020008F7020008F70200081C
:1000E0004D2A0008F7020008F7020008F70200088E
:1000F0003DD30108F7020008F7020008F7020008E4
:10010000F7020008F70200089571010811020108C2
:10011000F7020008F70200080DAD010899D20108A6
:10012000F702000875200008C9200008F70200083F
:10013000F7020008F7020008F7020008F7020008BB
:10014000F7020008F7020008F7020008B5DF000810
:100150001D21000835210008F7020008F7020008F9
:10016000F7020008F7020008F7020008F70200088B
:10017000F7020008F7020008F7020008000000007C
:10018000F7020008F702000800F002F800F096F805
:100190000AA090E8000C82448344AAF10107DA45E2
:1001A00001D100F08BF8AFF2090EBAE80F0013F09E
:1001B000010F18BFFB1A43F001031847502A04002F
:1001C000902A04000A444FF0000C10F8013B13F091
:1001D000070408BF10F8014B1D1108BF10F8015BA0
:1001E000641E05D010F8016B641E01F8016BF9D193
:1001F00013F0080F1EBF10F8014BAD1C0C1B09D1EA
:100200006D1E58BF01F801CBFAD505E014F8016B5B
:1002100001F8016B6D1EF9D59142D6D370470000ED
:100220000023002400250026103A28BF78C1FBD8FF
:10023000520728BF30C148BF0B60704766292CF0B9
:100240002A8165292CF0278167292CF024816129D6
:100250002CF02381692900F02D81642900F02A8186
:10026000752900F027816F2900F0BE81782900F000
:10027000E5810368DB0928BF41F08001632901F0B3
:100280003280E32901F04580002070471FB52CF033
:1002900032F89DE8030000F0D9FB01F003F90400F7
:1002A000002000212BF0A0F8401C606000200021FD
:1002B0002BF084F8E0601FBD10B510BD01F087FA87
:1002C0001146FFF7E3FF23F031FF01F0B3FA03B467
:1002D000FFF7F2FF03BC01F0E3FA00000948804792
:1002E00009480047FEE7FEE7FEE7FEE7FEE7FEE718
:1002F000FEE7FEE7FEE7FEE704480549054A064B30
:1003000070470000C14801088901000868A1001079
:1003100068DF001068C0001068C0001070B50646A5
:1003200000F074FB056806F10B0020F00704B442EE
:100330009CBF002070BD2B466A68BAB11068A0420D
:1003400010D304F1080188423CBF5068586007D3BD
:100350005168101941601168091B016058601460F0
:10036000101D70BD13465268002AE7D12146284669
:1003700000F058FB0028DED170BD70B50446051FA3
:1003800000F044FB0068002C14BF446870BD002CD2
:1003900018BFAC423CBF20466468F8D301680A1815
:1003A000AA4218BF456003D12A680546114401607E
:1003B00028684119A1421CBF6C6070BD616869600A
:1003C00021680844286070BD0FB41CB5074B06AA0D
:1003D0007B4469460090059800F063FF0020694661
:1003E00000F072FF1CBC5DF814FB0000F50E00006D
:1003F00070B5044685690068C10601D5302600E065
:100400002026C00707D070BDD4E9012130469047AF
:10041000206A401C20626D1EF6D570BD70B5044682
:1004200085690078C00707D170BDD4E9012120207B
:100430009047206A401C20626D1EF6D570BD096889
:100440004A0501D540B27047C905FCD500B27047D6
:1004500009684A0501D5C0B27047C905FCD580B20C
:10046000704770B50C460546012A05D028788006ED
:1004700000D5EA69002302E0012305E05B1C9342FA
:1004800002D2E05C0028F9D1A869E618C01AA86178
:10049000286A184428622846FFF7AAFF04E0D5E935
:1004A000012114F8010B9047B442F8D32846FFF716
:1004B000B5FF70BD2DE9F04106460024106875298E
:1004C000314616A510D0FFF7BAFF002802DA4042E5
:1004D00013A507E031688A0701D512A502E0490794
:1004E00004D511A5012401E0FFF7B2FF00210A2283
:1004F00006F1240709E0B0FBF2FCB0FBF2F302FBCB
:100500001C00303078541846491C0028F3D123468B
:100510002A463046BDE8F04100F0D9BA000000009C
:100520002D0000002B000000200000002DE9FF5FDF
:1005300015468A460446DFF8AC80F8440027D8E91F
:1005400000103E46CDE9001010E03AF816106A4659
:1005500002A800F022FF411C07D02178890603D5AC
:10056000E269391891420DD80744761C207880063C
:1005700002D5E069B84205DDAE42E6DB3AF8160086
:100580000028E2D1A069C01BA0612046FFF730FF20
:10059000D8E90010CDE90010002017E03AF8181053
:1005A0006A4602A800F0F9FEB0F1FF3F81460BD089
:1005B00000250DF1080B05E0D4E901211BF8050029
:1005C00090476D1C4D45F7D308F10100B0428046BD
:1005D000E4DB206A384420622046FFF71FFFBDE8B5
:1005E000FF9F000062BF020070B5044621461068FC
:1005F000FFF72EFF002104F1240505E000F00702BB
:100600003032C0086A54491C0028F7D12068002302
:1006100008A2050708D500F02000084304D0E069CF
:10062000012305A2401EE0612046BDE8704000F0B5
:100630004EBA0000000000003000000070B5044613
:100640000D4621461068FFF703FF2188090502D5F2
:100650000F4A7A4402E00E4A7A440E32002104F135
:10066000240305E000F00F060009965D5E54491C66
:100670000028F7D120780023000704D5702D02D080
:1006800009B1022311322046BDE8704000F01FBAC4
:1006900052BE02002DE9F05F894604464FF0000A81
:1006A000DFF874B1FB44C0F820A02046E168884719
:1006B000002874D0252806D0D4E901219047206A6B
:1006C000401C2062F1E700265F462046E16888472B
:1006D0002028054607DB312D05D2781910F8200CAB
:1006E00008B10643F1E7B00701D526F00406C4F8C7
:1006F0001CA00027C4F818A02A2D09D028462AF0EB
:10070000EFFC38B304EB8708303DC8F8185019E007
:1007100059F8041B204604EB87029161E168884781
:10072000012F054618D1E069002820DA26F02006BE
:100730001DE0D8F8180000EB800005EB40003038D1
:10074000C8F818002046E168884705462AF0C8FC2A
:100750000028EED1012F0AD02E2D08D12046E168C5
:1007600088477F1C0546022F46F02006C4DBA0699F
:10077000002803DA404246F00106A061F00701D0EC
:1007800026F010066C2D0BD0682D09D04C2D39D0D9
:100790006A2D35D0742D35D07A2D33D016E038E05F
:1007A000E1682F4620468847B842054609D16C2F9C
:1007B00026D04FF48060E16806432046884705460E
:1007C00004E06C2F1AD04FF4807006430DB3A5F1EE
:1007D0004100192802D8203546F400664A462946C9
:1007E000204626604E46FFF729FD80B101280BD038
:1007F000F61D26F0070000F1080956E74020E4E75F
:100800008020D8E70020D6E706F104094DE7284606
:1008100052E7206ABDE8F09F28BE020070B5064688
:1008200000F0F8F80468054630460A22002100F07E
:100830007CFD2C6070BD40EA010310B59B070FD111
:10084000042A0DD310C808C9121F9C42F8D020BA40
:1008500019BA884201D9012010BD4FF0FF3010BDF8
:100860001AB1D30703D0521C07E0002010BD10F8C6
:10087000013B11F8014B1B1B07D110F8013B11F88C
:10088000014B1B1B01D1921EF1D1184610BD40EA4D
:100890000103024630B59B0710D14FF0013400E050
:1008A00008C208C91D1B9D4315EAC41FF8D013F0E8
:1008B000FF0102F8011B0DD01B0AF8E711F8013BFC
:1008C000002B02F8013B05D011F8013B002B02F888
:1008D000013BF3D130BD10B5431C02E010F8011B01
:1008E00071B18107FAD14FF0013202C88C1A8C43E2
:1008F00014EAC211F9D0C01A0A0603D0C01E10BDF6
:10090000C01A10BD0A0401D0801E10BD0902FCD01F
:10091000401E10BD421E12F8013F002BFBD111F802
:10092000013B002B02F8013BF9D1704710B504469A
:1009300010F0030F08BF11F0030F40F015804FF0C7
:10094000013E121FC0F20E8051F8043BA3EB0E0CC7
:100950002CEA030C1CEACE1C08BF40F8043BF0D084
:10096000A1F1040102F10402521E08DB11F8013B5F
:1009700000F8013B002BF7D1114600F064FD204642
:1009800010BD00000000000030B44FF0013C50F8F2
:10099000042B51F8043BCCFA52F4D51A20D1FCB9FF
:1009A00050F8042B51F8043BCCFA52F4D51A17D165
:1009B000B4B950F8042B51F8043BCCFA52F4D51AD0
:1009C0000ED16CB950F8042B51F8043BCCFA52F418
:1009D000D51A05D1002CDAD030BC4FF0000070479A
:1009E00029BAB1FA81F111F01801D1F12000844047
:1009F000F2D1CA40CB4012F0FF0213F0FF0330BC2B
:100A0000D01A704770477047704700000048704721
:100A100038A401200048704730A401207047704777
:100A20007047704738B504460A4600206946AFF360
:100A30000080002808BF38BD02460099204600F01B
:100A400035FD012038BD012000F092BEF8B5AFF3AE
:100A50000080054600200C46102000BF0646A8195D
:100A6000A0420DD9324669460020AFF3008007004E
:100A700008BF00F07DFE0098A04218BF0546C419CB
:100A8000FFF7C4FF05600746F01D20F00700461978
:100A9000284600F00AF8B44208BFF8BDA21B314650
:100AA0003868BDE8F84000F001BD00210160C0E9F0
:100AB000011070471020704710B5FFF7ABFF0068BA
:100AC00010BD10B50446FFF7A5FF046010BD2DE969
:100AD000F0470D4699469246044600F12408016805
:100AE000880604D5E06921F01001216000E00120B2
:100AF000A84201DD471B00E00027A1697A1902EB3B
:100B00000900081AA0612078C00602D42046FFF729
:100B10006FFC002608E0D4E901211AF8060090478E
:100B2000206A401C761C20624E45F4DB2078C0060B
:100B30000AD52046FFF75CFC06E0D4E9012130200D
:100B40009047206A401C2062381EA7F10107F4DCA0
:100B500007E0D4E9012118F805009047206A401CFD
:100B60002062281EA5F10105F3DC2046FFF756FCA4
:100B70002078000602D50220BDE8F0870120FBE7BF
:100B80002DE9FF4F0C461E464FF0FF378BB0D2E9E0
:100B90000001DDF860800A908A46C1F30A5505B964
:100BA0003D46002108464FF00000BAF1000F00F466
:100BB000400005DA00EB80004FF4400101EA5000EC
:100BC0004FEA9059B9F1010F00DDB9460A9850EA91
:100BD0004A000ED044F61050A5F2FF3545432F14BD
:100BE000B8F1000F1ED07542291E1EDDC9F10002AA
:100BF0001CE0B8F1010F4FF0000001D0302103E0FC
:100C0000F24305E02154401CB042FBDB3046002299
:100C1000002121540B99C1F80880C1E900200FB0D0
:100C2000BDE8F08FBD1B6D1CDEE74A4600DA694265
:100C300006A800F02BFD06AB93E8070003AB83E8A2
:100C4000070050460A9927F0C9FA8DE80700A0F579
:100C500000501F3800900398002D0ADD42F21F015A
:100C60004A460844002303A90390684627F032FD52
:100C700009E0A0F500504A461F38002303A903905D
:100C8000684627F03CFD8DE807000004000C03D007
:100C90004FF0FF30410800E01046B8F1000F03D0DC
:100CA0000022009215461EE0751E05D400F018FCC7
:100CB000303262556D1EF9D5B3460122084302D089
:100CC00000227F1C04E02078302801D100227F1E02
:100CD000002A099784D01DE0112D07DA00F000FCEE
:100CE000303262556D1C50EA0102F5D1084302D042
:100CF0000098C8B10EE00021681E05E0235C625C2C
:100D000063542254401E491C8142F7DBAB46A81BAA
:100D1000401E0990002004F80B000B98099AC0F8B7
:100D20000880C0E9002B7AE711264FF0000857E74A
:100D30002DE9F04F88460446D21D22F0070191B0FC
:100D4000D1E90001CDE90A0127F010FE02460B9817
:100D5000C00F01D02D2007E02068810701D52B208E
:100D600002E0202101EAC000032A099001D0072AED
:100D700005DB03464146204600F0F8FB0BE12078F6
:100D8000800601D5E06900E00620B8F1650F8146D4
:100D900006D0B8F1660F18D0B8F1670F70D131E006
:100DA0000020B9F1110F009001DB112301E009F1DE
:100DB00001030AAA01A90CA8FFF7E2FEDDE90C7005
:100DC000002609F10105834647E001204B460090CB
:100DD0004FF000470AAA01A90CA8FFF7D1FEDDE9F0
:100DE0000DB00C995D46002610B909F101000D18EF
:100DF000B9EB050003D4C0F1FF3609F10105A5EBFD
:100E000009002BE0B9F1010F01DA4FF001090020D0
:100E1000B9F1110F0090484601DD112300E00346AF
:100E20000AAA01A90CA8FFF7ABFEDDE90C704D463C
:100E300000268346207800070AD4AB4500DA5D46D9
:100E400001A8012D04DD411911F8011C302907D03A
:100E50004F4502DA17F1040F04DA012082460FE051
:100E60006D1EEEE7002F02DCED1B3E4403E0781C14
:100E7000A84200DD7D1CB81B00F1010A4FF00047BD
:100E80002078000703D4AA4501DB4FF0FF3A002188
:100E9000B7F1004F0DF143088DF8431024D0022024
:100EA0002B23002F01DA7F422D230A21021EA0F1FD
:100EB000010000DC5FB197FBF1FC97FBF1F201FB55
:100EC0001C7C17460CF1300C08F801CDEEE7A8F1B8
:100ED000010003702188090501D5452100E0652145
:100EE000A0F1010800F8011C09980FA9A1EB08075F
:100EF000FF1D00B10120411901EBEA70A1693844DE
:100F0000081A401EA0612078C00602D42046FFF7D0
:100F10006FFA099828B1D4E901219047206A401C52
:100F200020622078C00622D52046FFF761FA1EE035
:100F3000002E04DBB34502DD01A8805D00E0302017
:100F4000D4E901219047206A401C2062761CAAF156
:100F500001005FEA000A0AD100F0A4FAC068016843
:100F6000405CD4E901219047206A401C2062281E81
:100F7000A5F10105DCDC07E0D4E9012118F8010B3B
:100F80009047206A401C2062381EA7F10107F3DC5D
:100F90002046FFF743FA032011B041E62DE9F04F58
:100FA00004460D46D21D22F0070089B0D0E9009713
:100FB0004846394627F0DAFC0246F80F01D02D23C7
:100FC00007E02068810701D52B2302E0202101EAF8
:100FD000C0038DF820300BB1012000E00020032A6F
:100FE000824601D0072A04DB2946204600F0BEFADB
:100FF0003FE12078800601D40D2500E0E569C7F3C4
:101000000A560D2D49DA00214FEA175B08464FF0CA
:101010000000002F00F4400007DA00EB80004FF4DE
:10102000400100EBD07001EA60008115012901DD6B
:101030004FF0FF3100224FEA850CBCF1180F06D3A8
:101040001346ACF118004FF08052C24003E04FF459
:10105000801323FA0CF30CF10C0CBCF1200F04D319
:10106000ACF1200C09FA0CF001E007FA0CF00029B1
:101070004FF0004801DD18B90FE00ED140450CD308
:1010800019EB02095F4121B9404502D19F4329EA8A
:101090000209BBEB175F00D0761C2088000502D543
:1010A0007B48784402E07A487844193808AA30230B
:1010B00002F80A30037C0AF10101002E0AF1020A4B
:1010C00053546A4602DC4FF0300101E04FF0310129
:1010D0004FF001088DF8001002D0A6F2FF3603E0B1
:1010E00059EA470100D06B4E002D02DC2178090738
:1010F00004D54FF002082E218DF80110C4460021BE
:101100000BE0C7F303433F01C35C491C6D1E02F8AB
:101110000830052908F1010801DA002DF1DC002171
:101120000CE000EB1973491C1B786D1E082902F8AE
:1011300008304FEA091908F1010801DA002DF0DC46
:1011400021688B0602D516E0A8F10108E04505DD0F
:1011500002EB080313F8013C302BF5D0B8F1000F77
:1011600009DD02EB080313F8013C2E2B03D109071C
:1011700001D4A8F10108002D05DD3E2102F8081078
:101180006D1E08F10108407C002E02F8080008F1ED
:10119000010804DA2D20764202F8080002E02B2034
:1011A00002F808000A214FF47A70864208F101081B
:1011B0000BDB96FBF0F3303302F8083096FBF0F3CC
:1011C00008F1010800FB136601E0642E0CDB6420CB
:1011D00096FBF0F3303302F8083096FBF0F308F199
:1011E000010800FB136601E00A2E06DB96FBF1F016
:1011F000303002F8080008F1010896FBF1F001FB1D
:101200001060303002F80800A16908F1010808EB0D
:10121000050202EB0A00081AA0612078C00602D479
:101220002046FFF7E5F8216A08AE01EB0A002062CC
:1012300004E0D4E9012116F8010B9047BAF1010A44
:10124000F7D22078C00602D52046FFF7D1F86E46C7
:1012500009E016F8010B3E280FD0D4E90121904790
:10126000206A401C2062B8F10108F2D22046FFF744
:10127000D5F809B00320BDE8F08F206A2844206229
:1012800003E0D4E90121302090476D1EEBD3F8E74D
:10129000ADB4020002FCFFFF01694A1C026108783C
:1012A000704700B58FB0CDE90131002105910549A6
:1012B0007944CDE9031011466846FFF7EBF90FB00A
:1012C00000BD0000E5FFFFFF0A6802F8010B0A609D
:1012D000704710B5436913B1AFF3008001E0FFF729
:1012E000C0F8012010BD127800F124010A7000221C
:1012F0004A700122EDE711684FF0FF32E9E710B5BF
:10130000436913B1AFF3008001E0FFF70FF901204B
:1013100010BD128800F1240182840022C2840122BF
:10132000EDE711684FF0FF32E9E72DE9F04791460C
:101330000F4680460446002614F8015B2DB100F0EC
:10134000A9F80068405DC007F6D12B2D02D02D2DE5
:1013500018D0641E4A463946204600F047F927B1A6
:101360003968A14201D1C7F800804FF0020471052D
:101370000BD54042002803DDFFF74CFB0460A007BB
:10138000BDE8F08746F48066E4E70028F8DAFFF766
:1013900041FB04606FF00040F2E72DE9F041164692
:1013A0000C46054600F076F8036893F80101012821
:1013B00007D0FF2C12D8185D80B101202C70BDE839
:1013C000F081D3F807013246214603F20713C7180C
:1013D0002846BC46BDE8F041002360474FF0FF308F
:1013E000EDE710B5203AC0F00B80B1E81850A0E846
:1013F0001850B1E81850A0E81850203ABFF4F5AFE3
:101400005FEA027C24BFB1E81850A0E8185044BF3E
:1014100018C918C0BDE810405FEA827C24BF51F8AB
:10142000043B40F8043B08BF7047D20728BF31F89F
:10143000023B48BF11F8012B28BF20F8023B48BFF0
:1014400000F8012B70474FF000020429C0F0128011
:1014500010F0030C00F09581CCF1040CBCF1020FEC
:1014600018BF00F8012BA8BF20F8022BA1EB0C013C
:1014700000F087B95FEAC17C24BF00F8012B00F8B7
:10148000012B48BF00F8012B70470000004870474F
:1014900030A4012010B500F005F8001D10BD00BFFC
:1014A000499F02000048704750A40120034640684D
:1014B0008C46002818BF88423CBF03464068F8D3DA
:1014C00018681844884207D00CF1030020F0070088
:1014D000001D411A521A0146081D0A60FEF74DBF51
:1014E00030B5B0F10A0271F100034FEA900E4EEAF6
:1014F000817EB0EB0E0061EB91014FEA101E4EEAC7
:10150000017E10EB0E0041EB11114FEA102E4EEA56
:10151000016E10EB0E0041EB11214FEA104E4EEA26
:10152000014E10EB0E0041EB1141401841F100015A
:101530004FEAD00040EA41704FEAD1014FEA8104FE
:1015400044EA907410EB800544EB01046D1944EB00
:101550000404521BA3414FF0000348BF0A3200D5D8
:1015600030BD401C41F1000130BD00002DE9F041CB
:101570001F46044603260168072A01F4006004DBC5
:1015800008B116A505E016A503E008B115A500E011
:1015900015A521F010002060A069C01EA0610FB148
:1015A000401EA0612046FEF723FF4FB1D4E9012180
:1015B00038469047206A401C2062C01C206206E02A
:1015C000206AFAE7D4E9012115F8010B9047761E4D
:1015D000F8D22046FEF722FFBDE8F0814E414E00D2
:1015E0006E616E00494E4600696E66002DE9F05F3F
:1015F000824615468B4600270AF10104B946007859
:10160000302801D09DB113E014F8010B0127782890
:1016100003D0582801D045B10AE00DB1102D07D1F3
:10162000002714F8010B102502E0082500E00A2528
:101630000026B0460EE005FB080005FB06F1012779
:101640001FFA80F801EB1046B6F5803F00D3B9468B
:1016500014F8010B294600F0DFF80028EBDABBF1A3
:10166000000F05D00FB1641E00E05446CBF80040D7
:10167000B9F1000F06D0FFF7CDF902210160C81EB5
:10168000BDE8F09F48EA0640FAE700002DE9F04780
:10169000814616468AB0354878440DC88DE80D005D
:1016A00032487844801C03AC0DC884E80D0041F634
:1016B0009B300844372190FBF1F290FBF1F5A5F146
:1016C000800501FB12041B3C02D56442012000E0AE
:1016D0000020DFF898A080460027FA44AAF1BE0A4D
:1016E0000EE0E0070AD03246684607EB47010123C7
:1016F0000AEB810127F003F88DE8070064107F1CD6
:10170000002CEED1194F7F44AE3F19E0E80715D009
:1017100007EB04100DF1180A90E80E008AE80E009D
:10172000C068F04201D1981908903246012306A9F9
:1017300003A826F0E4FF03AB83E807006D10641CE8
:10174000002DE3D14FF0010332466946B8F1000F96
:1017500003A802D026F0BEFF01E026F0D0FFC9E9C1
:101760000001C9F808200AB0BDE8F08738B00200CF
:1017700010B500F06DF8BDE8104000F064B84FF00F
:10178000000200B5134694469646203922BFA0E8D1
:101790000C50A0E80C50B1F12001BFF4F7AF0907DD
:1017A00028BFA0E80C5048BF0CC05DF804EB8900CE
:1017B00028BF40F8042B08BF704748BF20F8022B11
:1017C00011F0804F18BF00F8012B70477047754625
:1017D000FFF75CFEAE4605006946534620F0070061
:1017E000854618B020B5FEF787FDBDE820404FF0D4
:1017F00000064FF000074FF000084FF0000BAC461A
:10180000ACE8C009ACE8C009ACE8C009ACE8C00964
:1018100021F007018D4670473A2800D2303820F079
:101820002002412A01D3A2F13700884201D34FF0B0
:10183000FF30704710B50446AFF300802046BDE886
:101840001040FEF744BD002801D000F029B87047D1
:1018500010B5012805D0002103A000F027F80120D1
:1018600010BD09A1F8E7000053494752544D454DBA
:101870003A204F7574206F662068656170206D6531
:101880006D6F7279000000003A2048656170206D2C
:10189000656D6F727920636F727275707465640024
:1018A00001491820ABBEFEE72600020070B50546D0
:1018B0000C460A2000E06D1C00F011F835B12878C4
:1018C0000028F8D102E0641C00F009F814B1207877
:1018D0000028F8D1BDE870400A20AFF3008008B5B9
:1018E00069468DF800000320ABBE08BD53EA020C28
:1018F00000F069802DE9F04B4FF00006002B1FBF70
:10190000B3FA83F503FA05F424FA05F65E4012BF34
:101910001643B2FA82F502FA05F4C5F120051EBF9E
:1019200022FA05FC44EA0C04203556EA044C4FEA3E
:10193000144418BF641C4FF000084FF00009904297
:1019400071EB030C39D3002919BFB1FA81F701FA01
:1019500007F6B0FA80F700FA07F6C7F120071EBFB6
:1019600020FA07FC46EA0C062037B6FBF4FCA7EB8E
:101970000507103F07F01F0BCBF120062CFA06F6E7
:101980000CFA0BFB44BFB3460026202FA4BF5E46D3
:101990004FF0000B5BEA060C08BF4FF0010B19EB90
:1019A0000B0948EB0608ABFB027C06FB02CC0BFBE9
:1019B00003CCC01B71EB0C01C1E70B46024641464C
:1019C0004846BDE8F08B13B5084318BF4FF0FF3011
:1019D0000146AFF30080BDE81C407047032A40F287
:1019E000308010F0030C00F0158011F8013BBCF1C1
:1019F000020F624498BF11F801CB00F8013B38BFD9
:101A000011F8013BA2F1040298BF00F801CB38BFE6
:101A100000F8013B11F003033FF4E3AC083AC0F0D7
:101A2000088051F8043B083A51F804CBA0E80810AC
:101A3000F5E7121D5CBF51F8043B40F8043BAFF3DF
:101A40000080D20724BF11F8013B11F801CB48BF39
:101A500011F8012B24BF00F8013B00F801CB48BF6F
:101A600000F8012B704702F0FF0343EA032242EA29
:101A70000242FFF7EABC02F0FF0343EA032242EA14
:101A80000242FFF77EBE0000002070472DE9F04FB4
:101A900081B04CF24064C2F20104D4F8100345F264
:101AA0006261C2F2010145F662721830C2F20102AF
:101AB000002526C020461CF061FDD4F81093B9F132
:101AC000000F56D048F21867C1F20007388848F274
:101AD000185B4CF278240FF2B00AC1F2000BC2F28C
:101AE000010400260AE000BF81B2B1F5807F06F153
:101AF000010624BF002038801E2E1CD01AF80610C4
:101B000082B20BF802100130218882B28A423880FA
:101B1000EAD14FF0000800BF00F07CF9B5EB582F78
:101B200003D1012808F10108F6D000F073F901286B
:101B300001D03888D8E74CF24060D9E90712C2F2E8
:101B40000100D0F820030A444FF490730027C0F836
:101B50005C22C0E9993703690327012BA0F8507272
:101B600008BFC0F8602200F514710068DAB21EF0F8
:101B70008DF94CF22121C2F20101012200200A70EC
:101B800001B0BDE8F08F00BF5B4F4B5D2053746127
:101B90007274205265636569766520555342204111
:101BA0007564696F0D0A00004AF22850C2F2010004
:101BB0000178012919D10021017041F204004AF293
:101BC0002452CEF20000C2F2010242F670230168F4
:101BD0001268C1F200031F68891A3944196000684D
:101BE00042F67421C1F2000108604EF2FF054AF28C
:101BF000FC4640F21847C0F2F5550FF22C08C2F22D
:101C00000106C4F202074FF4800400E03C60404645
:101C100000210BF017FB00BF3068A842F6D201305C
:101C2000306000BFF8E700BF427573204661756CF5
:101C30007400000021280DD0202815D10868D1F8A3
:101C4000031042F66412C1F20002C2F803101060E1
:101C50000020704742F66410C1F20000D0F8032063
:101C60000068C1F80320086000207047002070471A
:101C70004CF24060C2F20100D0F80C130020086260
:101C800042F64C204AF20052C1F20000C2F20102B8
:101C9000486100208A6170472DE9F04F91B00DF145
:101CA000040A0C46064650464021FFF768FD2268AC
:101CB00050463146FEF73AFE206801383F2803D9E6
:101CC000002011B0BDE8F08F47F6046B47F6C4560C
:101CD0004CF234284FF00009C1F2000BC1F20006AB
:101CE000C2F201080020002519E000BFC7F1400141
:101CF00008EB07003F2F88BF0021FFF7A4FB4046F9
:101D000031463A46FFF76DFB304640218BF8009094
:101D1000FFF735FD01352168A8B28142D0D91AF804
:101D200000000028F6D09BF800703B28F055DDD06D
:101D3000781CC1B240298BF80000E5D2EAE7000028
:101D400022281BD021280DD0202828D10868D1F8BE
:101D500003104AF20842C2F20102C2F803101060F6
:101D6000002070474AF20840C2F20100D0F8032078
:101D70000068C1F8032008600020704788780128B7
:101D800007D147F6A510C1F2000001210170002023
:101D9000704747F6A510C1F2000000210170002035
:101DA00070470000002070474CF24060C2F2010012
:101DB000D0F80813002008624AF2485042F69022F8
:101DC000C2F20100C1F20002486100208A6170473E
:101DD00080B54CF24061C2F20101D1F80833D1F86C
:101DE0002023586110234FF0000CC2F82402C2E9EE
:101DF0008B3C13694FF0010C012BA2F818C208BFED
:101E0000C2F82802106802F50671DAB21EF03EF838
:101E1000002080BD2DE9F04F81B04BF25355C2F246
:101E200001052878C8B948F218604CF2782BC1F245
:101E30000000C2F2010BB0F80080BBF80060B045B2
:101E400003D1002001B0BDE8F08F4CF2406AC2F22D
:101E5000010ADAF80873786A18B1032001B0BDE806
:101E6000F08F4DF2D8440120C2F2010428702046C0
:101E70004FF48071FFF783FCB0452DD2FF2E55D86B
:101E800048F21850C1F200008119C6F1FF0082B279
:101E90003F2A28BF3F20013082B24DF2D840C6F51C
:101EA0008079C2F20100A0461FFA89F4FFF796FD7F
:101EB00006F140003C2162183D2A3DD03E2A3FD029
:101EC0003F2A3FD000293FD0043962183C2A06F14E
:101ED0000406F0D1304639E02BD948F21850C1F24F
:101EE00000008119F043404482B23F2A28BF3F20BE
:101EF000013082B24DF2D840A8EB0609C2F20100CF
:101F00001FFA89F4FFF76AFD06F140003C216218D0
:101F10003D2A13D03E2A25D03F2A25D041B304398B
:101F200062183C2A06F10406F1D11EE04FF00009C8
:101F300010E04FF0000923E0701C07E0013614E0C8
:101F4000B01C03E0F01C01E04FF040094446064697
:101F5000ABF80000B0B2B0F5807F04BF0020ABF852
:101F600000000DE0023600E00336ABF8006003E04D
:101F7000ABF800004FF040094DF2D844C2F2010422
:101F8000786AE0B91FFA89F0BC613862796AB1B940
:101F900001217962DAF8202340F20113114621F879
:101FA000583F1369CAF83400D06600205466012BEC
:101FB000106708BF94661068DAB21DF067FF002052
:101FC0002870012001B0BDE8F08F00004AF22850CF
:101FD000C2F20100017801291BD1002141F2040C59
:101FE0004AF224520170CEF2000CC2F2010242F613
:101FF0007023DCF800101268C1F200031868891A17
:1020000008441860DCF8000042F67421C1F20001B7
:1020100008604CF6AC10C2F2010004F011BA0000E6
:102020004AF22850C2F20100017801291BD1002197
:1020300041F2040C4AF224520170CEF2000CC2F2BA
:10204000010242F67023DCF800101268C1F20003AE
:102050001868891A08441860DCF8000042F67421F8
:10206000C1F20001086049F62400C1F2000004F04A
:10207000E7B900004AF22850C2F2010001780129B4
:102080001BD1002141F2040C4AF224520170CEF21D
:10209000000CC2F2010242F67023DCF80010126854
:1020A000C1F200031868891A08441860DCF80000BF
:1020B00042F67421C1F2000108604CF60C20C2F215
:1020C000010004F0BDB900004AF22850C2F201003C
:1020D000017801291BD1002141F2040C4AF224525B
:1020E0000170CEF2000CC2F2010242F67023DCF85D
:1020F00000101268C1F200031868891A08441860B9
:10210000DCF8000042F67421C1F2000108604CF6D0
:102110006C20C2F2010004F093B9000080B54CF6C7
:10212000CC20C2F2010004F08BF9BDE8804001F040
:1021300029BC000080B54AF22850C2F201000178A3
:1021400001291BD1002141F2040C4AF224520170F2
:10215000CEF2000CC2F2010242F67023DCF800104D
:102160001268C1F200031868891A08441860DCF884
:10217000000042F67421C1F2000108604CF62C30D8
:10218000C2F2010004F05CF9BDE8804001F014BE29
:102190004AF22850C2F201000178012918BF7047A5
:1021A000002141F2040C4AF224520170CEF2000CDC
:1021B000C2F2010242F67023DCF800101268C1F28C
:1021C00000031868891A08441860DCF8000042F619
:1021D0007421C1F200010860704700002DE9F0434E
:1021E00081B02DED088B82B047F2F079C1F2000981
:1021F0004AF2685720F0010009F26911C2F20107A2
:10220000022808BF09F5B5713E6840F2000540F6A6
:10221000007406EB4600C1F20005C2F2000491F81A
:10222000008005EB002021464FF44072FFF7D9F8FB
:10223000701C022888BF0020386000EB400005EBCE
:10224000002120464FF44072FFF7CBF800200090A9
:10225000684620F0CFFF9DED000AB5EE400AF1EE92
:1022600010FA06D141F26F209FEDB50AC3F6832024
:102270000090B5EE001A20EE010AB0EEC00A01A8E7
:1022800027F012FC4CF22920C2F2010001784AF238
:10229000F4400029C2F201004DD101EE108AB8EEDF
:1022A000412A9FEDA81A9FEDA83A20EE011A31EEBF
:1022B000031A9FEDA63A21EE001A31EE031A21EE21
:1022C000000A9DED011A9FEDA23AB8EEC11A31EE57
:1022D000031A31EE000A9FED9F1A99F95E2190EDE5
:1022E000003A20EE010A01EE102AB8EEC11A30EED3
:1022F000034A31EE444A98A2B5EE404AF1EE10FA94
:10230000C8BF043292ED005A24EE022A22EE052ABA
:1023100032EE032AB1EE084A32EE003A31EE044AB8
:10232000B4EE443AF1EE10FA80ED002AC4BF31EE6B
:10233000400A80ED000A99F8012009F13803002ACB
:1023400008BF09F11C031A78002A04BF4FF07E521F
:10235000026011B19FED820A08E090ED001AB3EE21
:102360000E0AB4EE401AF1EE10FA03DDB0EE401A98
:1023700080ED000A42F62428C1F2000898ED008A98
:1023800038EE410AB5EE400AF1EE10FA60D09FED4A
:10239000752AB4EE418A20EE022A9FED730AF1EE0F
:1023A00010FAB0EE409AC8BFB0EE429A9FED6F2A85
:1023B0009FED6FAA31EE483AB4EE418A002600271D
:1023C00023EE022AF1EE10FAB8BFB0EE429A18E0FE
:1023D00038EE098A88ED008A0127A51928EE0A0A35
:1023E00095ED00BA10EE100A28F0C8FE00EE100AB3
:1023F000043620EE0B0AB6F5407F85ED000A00F0AA
:102400009880B5EE400AF1EE10FA07DAA01990EDC7
:10241000001AB5EE401AF1EE10FAD9DCB5EE400A1A
:10242000F1EE10FA10DDA01990ED000A0020B5EED3
:10243000400AF1EE10FAB8BF01203843C0074FF050
:102440000007C5D1C9E700BFF807C1D10027C4E71D
:102450009FED470A21EE000A10EE100A28F08EFECA
:1024600000EE100A6FF03F00211891ED101A91ED67
:10247000112A91ED123A91ED134A21EE001A22EE43
:10248000002A23EE003A24EE004A81ED101A81ED75
:10249000112A81ED123A81ED134A91ED141A91ED52
:1024A000152A91ED163A91ED174A21EE001A22EE07
:1024B000002A23EE003A24EE004A81ED141A81ED41
:1024C000152A81ED163A81ED174A91ED181A91ED12
:1024D000192A91ED1A3A91ED1B4A21EE001A22EECB
:1024E000002A23EE003A24EE004A81ED181A81ED0D
:1024F000192A81ED1A3A81ED1B4A91ED1C1A91EDD2
:102500001D2A91ED1E3A91ED1F4A403021EE001A2E
:1025100022EE002A23EE003A24EE004AB0F5307F86
:1025200081ED1C1A81ED1D2A81ED1E3A81ED1F4AB5
:102530009AD102B0BDEC088B01B0BDE8F08300BFBA
:102540006F12833AA8A19D3FF5CA83C0FBB3C04078
:10255000E09248C0C2A8C040CDCC4C3D0AD7A33BB6
:10256000000048C3ABAAAABB00000000ABAAAA3B6C
:102570002D152A3E2DE9F04F83B016460C9A984649
:102580000C46002A05467AD047F2E2794AF2F84032
:10259000C1F200090127C2F201004FF0000B310126
:1025A00040F2004389F8007080F802B0417080F872
:1025B00000B042F62710C4F202034FF4805AC1F271
:1025C000000000210122CDF800A001970DF04AFE85
:1025D00000285CD040F200494AF2F840C4F20209F7
:1025E000C2F20100002103224B46CDF800A0019762
:1025F0000DF038FE0020294622464B46CDF800A0BB
:10260000CDF804B00DF02EFEB8F1000F2FD04DF232
:1026100034380120C2F2010800904046214632467B
:1026200000230026FFF7A6FFC4F1000CA4F1010E61
:1026300018F80600A95D884242D1B64517D008EBCC
:102640000603AF1958787978884239D10CEB060126
:10265000881C0CD09878BA78904231D1C81C06D02A
:10266000D878F97888422BD10436B442E0D147F2C9
:10267000E2710020C1F200010127087029E04AF24E
:102680006D50C2F20100007880B1012721E04AF2CA
:102690006D50C2F20100077010A025F0A3FB16A038
:1026A00001210AF0CFFD89F800B012E047F2E27094
:1026B000C1F20000007800283FF466AF002708E070
:1026C00047F2E2740021C1F20004002725F0C2FCA9
:1026D0002770384603B0BDE8F08F00BF5B4552520B
:1026E0005D20454550524F4D206E6F7420666F75CA
:1026F0006E642E2E2E000000454550524F4D20692D
:102700006E6974206572726F720000002DE9F04FDF
:1027100083B04AF26D50C2F201000078002848D11F
:1027200040F200494AF2580A49F6EC65C4F202093F
:1027300000204FF48057C2F2010A0DF10B0BC1F2D9
:1027400000054FF000088DF80B0001E0C72E2DD2D8
:102750005046002101224B460124464608F101085B
:10276000009701940DF07EFD0020594601224B4652
:102770000024009701940DF075FD9DF80B00C00733
:1027800011D028682968091A0229DFD22968091A94
:102790000129DBD82968091A0129D7D82968091A1B
:1027A0000229EFD3D2E7B8F1C80F02D102A025F079
:1027B00019FB03B0BDE8F08F5B4552525D454550B3
:1027C000524F4D204C6F636B2077616974206572A6
:1027D000726F72002DE9F04F87B014464AF26D52C5
:1027E000C2F2010212780AB10125FBE047F2E2725F
:1027F000C1F200020B46014610780025002840F087
:10280000F180012010704DF6DC5040F20049C2F218
:1028100001001A46C4F202090693FFF7DFF8069991
:102820004AF2F84A080A059003942003C2F2010A0A
:102830004FF4805B002400274FF00108049000BF94
:102840000498A1EB042600EB0420020C000A8AF88D
:102850000100B0B2B0F5807F4AF2B4308AF80220AD
:10286000C2F201004FF000014FF001024B468AF81E
:10287000005028BF4FF48076CDF800B001950DF0E0
:10288000F1FC4AF24430C2F20100002101224B4621
:10289000CDF800B0CDF804800DF0E4FC50460021E6
:1028A00003224B46CDF800B0CDF804800DF0DAFCE1
:1028B0004DF6DC50C2F2010000EB0420B2B2002160
:1028C0004B46CDF800B001950DF0CCFCFFF71EFF94
:1028D000013705980699BCB2A042B1D249F6F1651C
:1028E000039CC1F200054FF0010B2846224600234D
:1028F000CDF800B000270E46FFF73CFE4DF6DC5E3B
:10290000C2F2010E28789EF8001047F2E278884261
:102910004FF00101C1F2000830D171420220B446EB
:102920000A18012A1DD02B180EEB000713F8016CB2
:1029300017F8014CA64216D19AB12E5C1EF8004041
:10294000A64213D1561C0CD05E787C78A6420CD1DE
:10295000023206D09A78BB7804309A42E0D002382E
:1029600004E0002639E0013800E001300021604534
:1029700038BF0121039C00274FF0010B200188F88C
:1029800000B08AF801004AF2B4304FF48054C2F229
:1029900001000E46002101224B468AF802708AF897
:1029A0000070009401970DF05DFC42F62810C1F212
:1029B0000000002101224B460094CDF804B00DF038
:1029C00051FC5046002103224B46009401970DF024
:1029D00049FCFFF79BFE88F80070002086F0010597
:1029E00088F80000284607B0BDE8F08F4AF228506A
:1029F000C2F20100017801291BD1002141F2040C2F
:102A00004AF224520170CEF2000CC2F2010242F6E8
:102A10007023DCF800101268C1F200031868891AEC
:102A200008441860DCF8000042F67421C1F200018D
:102A3000086043F61440C4F201000168C90708BFEA
:102A40007047012101601BF075B900004AF228505F
:102A5000C2F20100017801291BD1002141F2040CCE
:102A60004AF224520170CEF2000CC2F2010242F688
:102A70007023DCF800101268C1F200031868891A8C
:102A800008441860DCF8000042F67421C1F200012D
:102A900008604FF4806003F02FBF00004AF2285016
:102AA000C2F20100017801291BD1002141F2040C7E
:102AB0004AF224520170CEF2000CC2F2010242F638
:102AC0007023DCF800101268C1F200031868891A3C
:102AD00008441860DCF8000042F67421C1F20001DD
:102AE000086043F61440C4F201000168890758BF2A
:102AF0007047022101601BF01DB900004AF2285006
:102B0000C2F20100017801291BD1002141F2040C1D
:102B10004AF224520170CEF2000CC2F2010242F6D7
:102B20007023DCF800101268C1F200031868891ADB
:102B300008441860DCF8000042F67421C1F200017C
:102B40000860042003F0D8BE4AF22850C2F2010007
:102B5000017801291BD1002141F2040C4AF22452D0
:102B60000170CEF2000CC2F2010242F67023DCF8D2
:102B700000101268C1F200031868891A084418602E
:102B8000DCF8000042F67421C1F200010860082060
:102B900003F0B2BE4AF22850C2F2010001780129C6
:102BA0001BD1002141F2040C4AF224520170CEF2F2
:102BB000000CC2F2010242F67023DCF80010126829
:102BC000C1F200031868891A08441860DCF8000094
:102BD00042F67421C1F20001086043F61440C4F2C9
:102BE00001000168090658BF70478021016049F65D
:102BF000EC60C1F2000000684DF29C21C2F20101BC
:102C0000086070472DE9F04F83B04AF20800C2F225
:102C10000100D0F800909FEDE72A99F85E20B3EE0E
:102C2000091A1146002A18BFFF21009147F2F071DE
:102C3000C1F20001B2EE040A91F88A110192002A51
:102C400008BFB0EE410A32EE401AB7EE002A82EE1B
:102C5000011A82EE002A9FEDD83A9FEDD84A9FEDE7
:102C6000D85A9FEDD86A9FEDD87ADFEDD80A0023B5
:102C70004FF0320A43F2CE1C481E2B2445F20A05BF
:102C80000290A3E041EA022E4DF23621C2F2010188
:102C900021F813E0B9F85610B9F8502005EE90AAC3
:102CA000891AB9F85860B9F852B001EE901AF8EEE6
:102CB000655A04EE902AF8EEE11A65EE835AA6EB07
:102CC0000B01B9F85A60B9F85480F8EE644A65EE21
:102CD000A11A02EE901A71EEA41AA6EB0801F8EE02
:102CE000E22AFCEEE11A04EE90BA03EE901A11EE1D
:102CF000901AF8EE641A65EEA22A72EEA11AFCEEA2
:102D0000E11A11EE902A4FF478461FFA8EF706EA80
:102D1000012102F0FC0241EAC201FA0A02EE908AA5
:102D2000152A4FF01502C7F34516F8EEE31A38BF1F
:102D3000FA0A0EF01F072B2EF8EE622A65EEA11A92
:102D400028BF2646152F4FF0150028BF074647EA33
:102D5000C22271EEA21AFCEEE11A06F114072A440F
:102D600042EA471211EE907AC7F3C40749F6FC56BF
:102D70003944C1F2000626F813104DF2D016C2F203
:102D8000010626F81320CA0A152A4FF0150238BF8B
:102D9000CA0AC1F345112B2928BF2146152F28BF88
:102DA000074647EAC22214312A4449F6626042EAE1
:102DB0004111C1F2000020F8131001330298AAF16A
:102DC000010A332BACF1FF0C00F02B81062824D82C
:102DD000DFE800F01C2644637C990400CAEB0A215A
:102DE00048F21F5089B2C5F2EB10A1FB0012FF2080
:102DF000019FA0EB1211002F08BF110901F0FC0781
:102E0000FF0001F0F80247EAD1013BE7322B40F026
:102E10009580009F00223946E4E04FF6FF7E33E7BD
:102E200001EE90AAF8EE611AB4EE610AF1EE10FA22
:102E300040F3988001EE90CAF8EE611A62EE211A12
:102E40000199FCEEE11A002911EE907A00F0DC8085
:102E5000C7F1FF024FF47841FF27DAE001EE90AAB4
:102E6000F8EE611AB4EE610AF1EE10FA40F38E80CA
:102E700001EE90CAF8EE611A62EE211A0199FCEE99
:102E8000E11A002911EE907A00F0B580C7F1FF0138
:102E9000C1F3C401FF27FF22AFE0CAEB0A2148F2C9
:102EA0001F5089B2C5F2EB10A1FB001201994FF43B
:102EB00078470029009918BFA1EB121108BF07EA53
:102EC000021701F0FC0247EAC20217E0CAEB0A212E
:102ED00048F21F5089B2C5F2EB10A1FB0012019914
:102EE0004FF4FC660029009918BFA1EB121101F004
:102EF000F80708BF06EA520646EA0722C1F3C401F2
:102F000002EB010EC0E6CAEB0A2148F21F5089B25B
:102F1000C5F2EB10A1FB001201991F2600290099B0
:102F200018BFA1EB121101F0F80701F0FC0108BF76
:102F3000D60946EAC10141EA072EA5E601EE90AAAC
:102F40001B2BF8EE611A43D361EE841A71EE851AD9
:102F5000FCEEE11A11EE901AC1F1FF02C2F3C402B5
:102F60000F463FE070EE611A61EEA01A61EE811A21
:102F700071EEA01AFCEEE11A11EE907A01993A4630
:102F8000002908BF0A464FF4784142E070EE611A0A
:102F900061EEA01A61EE811A71EEA01AFCEEE11A40
:102FA000019911EE902A002917464FF0000108BF41
:102FB000FF2722E0000048420AD7A33C0429314100
:102FC000042931C157F619C1E890F04300007F434E
:102FD00061EE861A71EE871AFCEEE11A11EE901A74
:102FE000FF27002201F0FC0107F0F80742EAC101C7
:102FF00041EA072E48E600213A4607F0FC0702F0B6
:10300000F80241EAC7013DE64FF4784101EA0721A1
:103010000022C2F3C40207F0FC07114341EAC70EC5
:1030200032E647F2F076C1F2000696F887014FF4D7
:103030000074022859D34FF64471C0F6030151F8C9
:1030400020104AF25C00C2F2010042F60C158160C9
:10305000C1F200054068A9602821FEF790FB68686E
:103060002821FEF78CFB96F88761B4FBF6F07043DD
:10307000D0F5007035D142F21C7106EB4600C0F667
:10308000030101EB80004788456840F2FC7048F27C
:103090001C684AF2505900EB8704C1F20008C2F2E2
:1030A000010940462146A9F80270C9F80450FEF70C
:1030B00066FBC9F8088042F6D028C1F20008C8F8BB
:1030C000045048F62865C1F200052846214689F8D3
:1030D0000060A8F80270FEF752FBC8F8085088F8A4
:1030E00000604FF40070B0FBF6F44DF67070C2F261
:1030F0000100046041F60000C2F200004BF680318E
:10310000FEF7A1F94DF28030C2F2000046F22071C4
:103110003222FEF7B0FC43F64460C1F200004FF4E7
:103120008051FEF72CFB03B0BDE8F08F00000000DB
:103130002DE9F04F81B02DED108B8CB047F2F0707F
:10314000C1F2000090F889A1BAF1010F40F040816E
:103150009FEDBF0BCDF800A025F0E2FD9FEDBE1B5B
:1031600051EC100B53EC112B28F0DAFC41EC100B56
:1031700026F0E6F89FEDBA1B9FEDBB2B51EC110B2F
:103180009FEDBB1BCDE9031051EC120B9FEDBAABC9
:10319000CDE9011051EC110B9FEDB98BCDE90A106F
:1031A00057EC100B9FEDB8CA099051EC1A0B9FED2C
:1031B000B8DBB0EE4AEAB0EE4A0A0026C80F59EC76
:1031C000188BF0EE6AEAF0EE6A0A08903BE000BF66
:1031D000284631462A46334628F05AF99FED9C0B83
:1031E00053EC102B28F054F928F020F9079E4DF2EB
:1031F000DC5240F2FF11C2F20102891B42F82600A4
:1032000042F8210052F8260028F0DAFF82468B4669
:1032100054EC1E5B2846214652465B4629F01EF8B8
:1032200000281CBF5C465546DDE9050142464B4679
:1032300044EC1E5B28F02CF941EC100B013640F2F7
:10324000011086427AD0DDE9033251EC100B07966B
:10325000CDE9050128F064FCDDE9013228F018F918
:10326000B0EE48BAB0EE4AFA82468B460224F0EE3F
:1032700068BAF0EE6AFA30E025F052FD53EC1D2BEF
:1032800051EC100B28F04CFC41EC100B26F058F8D8
:10329000B0EE409AF0EE609A53EC1B2B5046594624
:1032A00028F03EFC27F05AFF02460B4651EC190B62
:1032B00028F036FC53EC1F2B28F0EAF8054641ECC9
:1032C0001F0B20460E4628F09FFB41EC1B0B0134E0
:1032D00040F2011084423FF47BAF601E00EE100A02
:1032E000B8EE400A20EE0C0A10EE100A28F068FF33
:1032F000DDE90A3228F014FC27F030FF099A3B463A
:1033000028F00EFC089A41EC190B62F3DF7142467B
:103310004B4628F08EFFB0EE490AF0EE690A00280D
:10332000AAD125F051FB53EC1D2B51EC100B28F0CA
:10333000F7FB27F013FF41EC190BADE79FED500BA6
:103340002A4651EC100B234628F056F981464DF2DF
:10335000DC50C2F20100DDF800A00D46A0F110061D
:103360004FF4007456F8100F28F02AFF02460B465F
:103370004846294628F0D4FB28F058F8306006F17A
:10338000040898E8810128F01BFF02460B464846D6
:10339000294628F0C5FB28F049F87060384628F027
:1033A0000FFF02460B464846294628F0B9FB28F095
:1033B0003DF8B060404628F003FF02460B46484601
:1033C000294628F0ADFB28F031F8043CF060C9D163
:1033D0004DF2DC579FED309A9FED30BA9FED30CA29
:1033E00040F288499FED2FDA9FED2FFADFED2FFA9B
:1033F000DFED2F8ADFED2F9ADFED2FAADFED2FBA59
:10340000DFED2FCADFED2FDA4FF00008C2F201071F
:10341000B7EE008AAAF10206B5EE00AAC0F60409CA
:103420000024B6EE00EA06E00134B4F5007F07F1AF
:10343000040700F08382052EF6D8B0EE480ADFE8D4
:1034400016F079001001BB014A024600430000BF9C
:1034500000000000006AF840800001020408603F9C
:1034600000000060FB21893F000050626A1509C01E
:10347000000000000000603F0000000000000000AD
:10348000000000000000F03FDB0F494000BF00BF1C
:103490000000000000F07F402040003B000000449E
:1034A000000000C42040803B3060C03BBDE00B3ECC
:1034B0007975FABE02582EBC6827BA3E0000003B60
:1034C0001F85EB3E713D0A3F87ED000AACE700EE39
:1034D000104AB8EE400A20EE090A30EE0A0ABDEEA4
:1034E000C01AB8EEC11A30EE410A20EE0B0ABDEE4A
:1034F000C01A11EE100AB8EB502F30EE0C1A1CBF98
:10350000B0EE410A002009EB800101EE100A91EDB6
:10351000002A91ED013AB8EE411A30EE410A32EE3E
:10352000431A21EE000A30EE420A20EE2C0A30EE59
:103530002D0AC9E700EE104AB8EE400A20EE091A3B
:1035400031EE0A1ABDEEC12AB8EEC22A31EE421A95
:1035500021EE0B1ABDEEC12A12EE100AB8EB502F65
:1035600031EE0C2A1CBFB0EE421A002009EB80019C
:1035700002EE100A91ED003A91ED014AB8EE422AAE
:1035800031EE421A34EE432A22EE011A20EE0D2AC1
:1035900032EE0A2A31EE031ABDEEC23AB8EEC33A51
:1035A00032EE432A22EE0B2ABDEEC23A13EE100A87
:1035B000B8EB502F32EE0C3A1CBFB0EE432A00207D
:1035C00009EB800103EE100A91ED004A91ED015ADA
:1035D000B8EE433A20EE0F0A32EE432A35EE443A73
:1035E00030EE0A0A23EE022ABDEEC03AB8EEC33A24
:1035F00030EE430A20EE0B0ABDEEC03A13EE100A7D
:10360000B8EB502F30EE0C3A1CBFB0EE430A00204E
:1036100009EB800132EE042A03EE100A91ED004A14
:1036200091ED015AB8EE433A30EE430A35EE443A92
:1036300023EE000A9FEDCF3A30EE040A22EE032A71
:103640009FEDCD3A21EE031A9FEDCD3A31EE031AEC
:1036500031EE021A9FEDC92A20EE020A31EE000A6D
:1036600032E700EE104AF8EE40EA2EEE890A30EE1C
:103670000A0ABDEEC01AB8EEC11A30EE410A20EEB9
:103680000B0ABDEEC01A11EE100AB8EB502F30EE47
:103690000C1A1CBFB0EE410A002009EB800101EEBC
:1036A000100A91ED002A91ED013AB8EE411A30EE80
:1036B000410A33EE421A21EE000A2EEE8D1A31EE47
:1036C0000A1A30EE020ABDEEC12AB8EEC22A31EE65
:1036D000421A21EE0B1ABDEEC12A12EE100AB8EB07
:1036E000502F31EE0C2A1CBFB0EE421A002009EB1D
:1036F000800102EE100A91ED003A91ED014AB8EE18
:10370000422A31EE421A34EE432A22EE011A9FED8C
:10371000962A31EE031A20EE020A9FED942A30EE2B
:10372000020A9FED932A21EE021A30EE010A10EEF2
:10373000100A28F045FD2EEE8F0A30EE0A0ABDEE83
:10374000C01AB8EEC11A30EE410A20EE0B0ABDEEE7
:10375000C01A824611EE100A0D46B8EB502F30EE1B
:103760000C1A1CBFB0EE410A002009EB800101EEEB
:10377000100A91ED002A91ED013AB8EE411A30EEAF
:10378000410A32EE431A21EE000A30EE420A10EEF0
:10379000100A28F015FD9FED720B53EC102B28F04A
:1037A000BFF902460B465046294627F071FE27F026
:1037B0003DFE00EE100A87E600EE104AB8EE400A21
:1037C00020EE091A31EE0A1ABDEEC12AB8EEC22A5D
:1037D00031EE421A21EE0B1ABDEEC12A12EE100A8A
:1037E000B8EB502F31EE0C2A1CBFB0EE421A00206D
:1037F00009EB800102EE100A91ED003A91ED014AC9
:10380000B8EE422A31EE421A34EE432A22EE011A71
:1038100020EE0D2A32EE0A2A31EE031ABDEEC23A2C
:10382000B8EEC33A32EE432A22EE0B2ABDEEC23A7C
:1038300013EE100AB8EB502F32EE0C3A1CBFB0EE6C
:10384000432A002009EB800103EE100A91ED004AA3
:1038500091ED015AB8EE433A20EE0F0A32EE432AB8
:1038600035EE443A30EE0A0A23EE022ABDEEC03AA3
:10387000B8EEC33A30EE430A20EE0B0ABDEEC03A72
:1038800013EE100AB8EB502F30EE0C3A1CBFB0EE1E
:10389000430A002009EB800132EE042A03EE100AED
:1038A00091ED004A91ED015AB8EE433A30EE430AE9
:1038B00035EE443A23EE000A21EE281A30EE040ACF
:1038C00022EE2F2A31EE2A1A31EE021A20EE290AB0
:1038D00031EE000AF8E500EE104AB8EE400A20EE9C
:1038E0002B0A30EE0A0ABDEEC01AB8EEC11A30EE4D
:1038F000410A20EE0B0ABDEEC01A11EE100AB8EB19
:10390000502F30EE0C1A1CBFB0EE410A002009EB1C
:10391000800101EE100A91ED002A91ED013AB8EE16
:10392000411A30EE410A32EE431A21EE000A30EE1F
:10393000420A20EE0E0A30EE0E0AC5E546F6CD50DC
:10394000C1F20000012101704BF25250C2F201009D
:1039500001700CB0BDEC108B01B0BDE8F08F00BF62
:10396000DEE8633E20D0893FF88BF9BE3927B63EAA
:103970008EB1133EB4AB103E2601FABE795D3FBC5A
:1039800014AEB73E2DE9F04F87B049F6C860C1F2DA
:1039900000000178012943D14CF6CC23C2F2010387
:1039A00093F83410012900F0FE81012183F83410CE
:1039B0009A6D93F83510012940F0F281022183F8C5
:1039C00035100021596519689F681E6CDB6D0D6804
:1039D000402F25F480250D6045F6C0554D6041F619
:1039E000000540F20007C2F20005C6F2080702BF58
:1039F0002F460025C6F208058D60CF603F2707FAE5
:103A000003F393600A6842F016020A601EB10A6866
:103A100042F008020A600A6842F001020A60C2E14C
:103A200047F60024C1F2000420464FF47071FDF700
:103A3000A6FE47F2F076C1F20006707806F120018A
:103A4000002808BF311D08680121069020F01EF8EB
:103A500000280146C8BF01390B28B8BF01304AB25F
:103A600091B240B28142009040F3AE8000204FF00E
:103A7000C0422A21C6F208001180002101230180E2
:103A800001800380DF2303802B231380B523018073
:103A90000380B623018003802C231380635A6218AD
:103AA00003805388403103809388B1F5707F038091
:103AB000D38803801389038053890380938903800B
:103AC000D3890380138A0380538A0380938A0380F7
:103AD000D38A0380138B0380538B0380938B0380E3
:103AE000D38B0380138C0380538C0380938C0380CF
:103AF000D38C0380138D0380538D0380938D0380BB
:103B0000D38D0380138E0380538E0380938E0380A6
:103B1000D38E0380138F0380538F0380938F038092
:103B2000D28F0280BAD10021635A62180380538871
:103B3000403103809388B1F5707F0380D388038080
:103B4000138903805389038093890380D389038079
:103B5000138A0380538A0380938A0380D38A038065
:103B6000138B0380538B0380938B0380D38B038051
:103B7000138C0380538C0380938C0380D38C03803D
:103B8000138D0380538D0380938D0380D38D038029
:103B9000138E0380538E0380938E0380D38E038015
:103BA000138F0380538F0380938F0380D28F028003
:103BB000BAD149F6CA60C1F200000021018007B005
:103BC000BDE8F04F00F0F8B84AF20800C2F2010078
:103BD00000689FED772A00F14203029300F144034D
:103BE00000F13E0A059300F140033C30049303903A
:103BF00006989FED703A00EE100A96F88701B8EE2D
:103C0000400A01EE100AB8EE411A06E0019A009847
:103C1000013291B281423FF729AF01EB410042F2FC
:103C20005C21C0F6030101EBC000D0E9043B002099
:103C30000026019204E000BF0136B0B28345E5D909
:103C400000EB400703EB87008268951E062D524665
:103C50000ED8DFE805F0040407070B090900039AF2
:103C600006E000BF059A03E0049A01E0029A00BF53
:103C700053F82770406804EE107AB8EE444A34EEE8
:103C8000404A24EE024A24EE014A34EE034ABDEED5
:103C9000C44A14EE105A04EE100AB8EE444A34EE48
:103CA000404A24EE024A24EE014A34EE034ABDEEB5
:103CB000C44A14EE101AB2F800806A090E2A4FEABC
:103CC000511288BF4FF0FF350E2A88BF4FF0FF31E9
:103CD0004A1C8E4608BF4FF4F07E6A1CA94608BFF6
:103CE0008E461EF1010118BF4FF00009002A18BFCF
:103CF000A94609EA0E0101310ED106998F429BD2E5
:103D000006994FF000094FF0FF3E884298BF4FF0F0
:103D1000FF3988BF4FF4F07E19F1010C18BF1EF176
:103D200001003FF489AFCE457FF786AFAEEB0900C7
:103D30006FEA090110F003020EEB010014D01FFA24
:103D400089F1012A24F811800FD01FFA8CF1022A80
:103D500009F1020C24F8118007D01FFA8CF124F825
:103D6000118009F1030C00E0CC460328FFF464AF96
:103D70001FFA8CF024F810800CF1010080B224F8B6
:103D800010800CF1020080B224F810800CF10300C6
:103D90000CF1040C80B2E64524F81080E8D14BE722
:103DA000002183F834100021017007B0BDE8F08FC6
:103DB0000AD7233C000070432DE9F04F81B02DED70
:103DC000028B84B049F6CA66C1F20006B6F80080DC
:103DD000B8F1000F00F0A480B8F1360F00F2BE80F9
:103DE00047F60860C1F2000090ED000A4AF2880030
:103DF000C1F2000000EB880090ED001A47F2F07964
:103E0000B8EE400AB8EE411AC1F2000930EE410A9C
:103E10009FEDBC1A99F8870120EE010A01EE100A05
:103E2000B8EE411A20EE018A18EE104A204627F01B
:103E3000B9F980F0004000EE100ABDEEC00AB5EE00
:103E4000408A10EE107AF1EE10FA4FF4F076204628
:103E50004FF00005A8BF2F464FF4F07AB7F5F07F7A
:103E6000B8BF3E4627F044F900EE100ABDEEC00A86
:103E700010EE101AB5EE408AF1EE10FAD8BF2946BE
:103E8000B1F5F07FA8BF51467018B0F5F07FC6F5C8
:103E9000F07543F6A02A4DF2362BC8BF00218D42A3
:103EA000C2F2010AC2F2010B6BDD51EA0600CDE954
:103EB000018179D0012FD646C0F2B8814AF20800BC
:103EC000C2F20100006843F6A0270278C2F201079F
:103ED000710038467446FDF7C6FDA646002D00F079
:103EE000A58147F6C2504CF23021C1F20000C2F267
:103EF000010140F2DF12B0F90000B1F90010921B8D
:103F00004DF280344DF2D01805F00303032AC2F2BB
:103F10000004C2F20108009380F0F680002543E11E
:103F20004FF0C0402A2101800021C6F20801002282
:103F30000123DF270A800A800B800F802B27078050
:103F40000A80EB220A8021220B800A802C2101802A
:103F5000B6F80080B8F1360F7FF642AF46F6C4508F
:103F6000C1F200000188013101804BF25150C2F2D0
:103F700001000021017047F2B470C1F2000001702D
:103F8000D3E24AF20800C2F2010000684FF47071F7
:103F9000027843F6A020C2F20100FDF764FD49F665
:103FA000CA68C1F200080FE247F6C2504CF2302155
:103FB000019AC1F20000C2F201014DF28033B0F962
:103FC0000000B1F90010C2EB0212C2F200034DF280
:103FD000D01903EB4212AAF1140C0026C2F2010917
:103FE000D6460392039B4D469A5D8E4288BF5D463E
:103FF000864238BF5D4635F812404D469A192CF876
:10400000144F741C8E4228BF5D46844238BF5D4603
:104010005778947835F817500EEB46077D80B51C1D
:10402000CE4692F8038092F804A08D4288BFDE4607
:10403000854238BFDE463EF814E0F41C4D468C4203
:1040400088BF5D46844238BF5D4635F81840351D4F
:10405000FC804C46A7F804E08D4288BF5C46854250
:1040600038BF5C4634F81AE0741D4B4655798C42D3
:1040700088BF5B46844238BF5B4633F815304D46F7
:10408000ACF80A30B31DACF808E08B4288BF5D463F
:10409000834238BF5D469379D47935F813304D4665
:1040A000BB81F31D92F808E0527A8B4288BF5D46CF
:1040B000834238BF5D4635F8143006F108044D469A
:1040C0008C4288BF5D46844238BF5D4635F81E503D
:1040D000FB813D8206F109034F468B4288BF5F4654
:1040E00043F6A02E834238BF5F4637F812200A36C7
:1040F000C2F2010EB6F5F07FACF812207FF472AF79
:1041000094E000BF0AD7233C25F003020392019AF2
:1041100007EB4609C2EB021504EB4515A9F1020CA9
:1041200005F1010E002500BF06EB050A0EEB0504A4
:10413000424614F8017C8A4588BF5A46824538BFFA
:104140005A4632F817201EF80570ACF802200AF122
:10415000010243468A4288BF5B46824238BF5B46C3
:1041600033F8172009EB45035A800AF102028A420C
:10417000474688BF5F468242627838BF5F4637F85D
:104180001220A4789A800AF1030243468A4288BF2B
:104190005B46824238BF5B4633F81420039B0435EC
:1041A000AB422CF8082FBFD1009F43F6A02E43F658
:1041B000A02CC2F2010EC2F2010CBFB3019A4DF263
:1041C0008034C2EB0212C2F2000404EB4219AB19B4
:1041D00019F8052044468B4288BF5C46834238BFAD
:1041E0005C4634F81220012F2CF813201ED06B1CD3
:1041F0009A1919F8033044468A4288BF5C468242C5
:1042000038BF5C4634F81330022F2CF812300DD032
:10421000AB1C9F1919F803208F4288BFD8468742EC
:1042200038BFD84638F812002CF81700029B49F620
:10423000CA6847F2F079012BC1F20008F246C1F2D8
:104240000009C0F2C1804AF20800C2F20100016810
:10425000C3F5F0740A780AEB44005900FDF703FC3B
:10426000DDF808E0002C00F0AF8047F6C2504CF2B9
:104270003021C1F20000C2F2010140F2DF12B0F9B8
:104280000000B1F90010A2EB0E02032A04F0030CA7
:1042900001D2002357E0019A4DF28033C2EB0212A3
:1042A000C2F20003754603EB42122A444DF2D019C4
:1042B00024F0030E02F10108AAF108050023C2F25E
:1042C000010900BF08EB03074A4617F8014C8B426F
:1042D00088BF5A46834238BF5A4632F8142018F82D
:1042E00003404E4625F8082F5A1C8B4228BF5E46D5
:1042F000824238BF5E4636F814209C1C8C424E46E3
:1043000088BF5E4684427C7838BF5E4636F81440EB
:104310006A80AC80DA1CBC784E468A4288BF5E4612
:10432000824238BF5E4636F8142004339E45EA8048
:10433000C8D149F6CA6847F2F079DDF808E0C1F261
:104340000008C1F20009BCF1000F3DD0019F4DF201
:104350008036C7EB0717C2F200064DF2D01403EB0C
:104360000E0206EB4717C2F20104BE5C22468B42E6
:1043700088BF5A46834238BF5A4632F81620BCF1ED
:10438000010F2AF813201FD05A1C02EB0E06BE5D47
:1043900025468B4228BF5D46824238BF5D4635F8D0
:1043A0001660BCF1020F2AF812600DD09A1C02EBC5
:1043B0000E03FB5C8A4288BF5C46824238BF5C4683
:1043C00034F813002AF8120099F98C01022846DB10
:1043D0004AF2B831C2F201010A68BBF84A00012A68
:1043E000A8BF2AF812004A68002AC8BF2AF812009B
:1043F0008A68012AA8BF2AF81200CA68012AA8BF41
:104400002AF812000A69012AA8BF2AF812004A698C
:10441000012AA8BF2AF812008A69012AA8BF2AF82F
:104420001200CA69012AA8BF2AF812000A6A012AE2
:10443000A8BF2AF812004A6A012AA8BF2AF8120067
:104440008A6A012AA8BF2AF81200CA6A012AA8BFEC
:104450002AF81200096B0129A8BF2AF8110099F85F
:104460008401B0B199F8010009F12401002808BFC6
:1044700009F10801086820F00100022809D147F677
:10448000C051C1F20001BBF83200B1F900102AF8A6
:1044900011004CF62C32C2F2010292F83400BBF843
:1044A00032100128AAF8E0113AD0012082F8340035
:1044B000916D92F8350001282FD1022082F8350045
:1044C0000020506510689368176CD26D0668402B09
:1044D00026F4802606604FF4F0764660534640F29C
:1044E000000604BF0023C6F20803C6F2080608BF90
:1044F000564683603F2303FA02F2C6608A60016871
:1045000041F0160101601FB1016841F0080101602E
:10451000016841F00101016002E0002082F83400EE
:10452000B8F800000130A8F8000004B0BDEC028B20
:1045300001B0BDE8F08F00002DE9F04147F2F074C2
:10454000C1F20004667804F13807394604F11C050D
:10455000002E08BF2946097804F120004FF03802E8
:1045600081F0010108BF1C22A154002E08BF201DAC
:10457000006801214FF001081FF088FA01280BDBC9
:10458000C1B28900002E08BF2F463A7851FA80F058
:1045900004EB800080F84F204BF69470C2F20100CB
:1045A00080F801804BF6CE70C2F2010080F80080E6
:1045B000BDE8F08147F2C171C1F20001087800281E
:1045C0004BF69470C2F2010028D04AF2144241F630
:1045D000BC13C2F20102C0F60403136042F66C126F
:1045E00041F64C23C1F20002C0F6040313604DF201
:1045F000D542C2F201024FF0000C82F800C049F629
:10460000DC62C1F20002127849F6DB63C1F20003FA
:104610001A7081F800C0012101701EE001220A70A9
:104620004AF2144141F2C063C2F20101C0F6040330
:104630000B6042F66C1141F64003C1F20001C0F676
:1046400004030B604DF2D541C2F201010A7049F634
:10465000DB61C1F2000115220A7001210170817134
:104660008172017281700171C172017081718172F8
:10467000017281700171C17242F61C10C1F200001A
:10468000002101604BF6B870C2F20100016042F6F1
:104690002410C1F20000FF2101704AF26A00C2F248
:1046A0000100017042F62510C1F20000017042F6CF
:1046B0002210C1F2000042F20F7101804AF268003C
:1046C000C2F20100018042F62010C1F20000018018
:1046D0007047000070B547F2F074C1F2000494F81E
:1046E0003501617880F0010504F1200084F835512E
:1046F000002908BF201D0068012101261FF0C6F90E
:1047000001280ADBC1B2890051FA80F0D4F83011D7
:1047100004EB800080F84C5081644BF69470C2F238
:10472000010046704BF6CE70C2F20100067070BDFB
:10473000B0B52DED028B47F2F074C1F2000494F88D
:10474000340194ED4C1A00EE100AB8EE400A31EE36
:10475000008AB3EE0F1AB4EE418AF1EE10FAC8BF28
:10476000B0EE408A607804F1200184ED4C8A002884
:1047700008BF211D0868012101251FF087F90128C4
:104780000BDBC1B2890094F8352151FA80F004EBBB
:10479000800080F84C2080ED128A4BF69470C2F2B3
:1047A000010045704BF6CE70C2F201000570BDEC01
:1047B000028BB0BDB0B547F2F070C1F20000417895
:1047C00059B100F1200E9EE80E50D0E90D45071DAD
:1047D00087E80E50C0E906450BE0051D00F1140EF8
:1047E0002ECD9EE8105000F1200730302EC780E813
:1047F000105049F6EC60C1F20000006847F6AC11B9
:10480000C1F20001086047F6B01044F2566144F668
:104810004372C1F20000C2F24F01C4F65012C0E967
:10482000001244F24951C0F24401C0F807104CF2A2
:104830001D00C2F20100002101704BF69470C2F21B
:104840000100817B00291CBF01218171012181733D
:10485000417041714BF6CE70C2F201000170B0BDE3
:10486000F0B581B04CF22920C2F20100012505709B
:1048700040F61800C4F202004FF40001016049F64E
:10488000EC60C1F20000006847F69811C1F2000127
:1048900047F2F0760860C1F20006707806F1200455
:1048A00080F0010171702146371D002818BF39467C
:1048B000086819F0DDFA707806F12401002808BFB5
:1048C00006F10801086808BF3C46214619F0D8FCEB
:1048D0004BF694704BF6CE71C2F20100C2F20101A8
:1048E00045704571C5710D704BF6CC71C2F2010176
:1048F0000D70057085718572057285700571C572C0
:1049000042F61C10C1F20000002101604BF6B870A5
:10491000C2F20100016042F62410C1F20000FF2142
:1049200001704AF26A00C2F20100017042F62510DD
:10493000C1F20000017042F62210C1F2000042F202
:104940000F7101804AF26800C2F20100018042F654
:104950002010C1F20000018001B0F0BD80B547F227
:10496000F070C1F2000090F8412182F0010180F85E
:10497000411116A018A1002A08BF014649F6EC60B3
:10498000C1F20000006847F6AC12C1F200021060EC
:1049900047F6B010C1F20000FBF779FF4CF21D00A2
:1049A000C2F20100002101704BF69470C2F20100C6
:1049B000817B00291CBF012181710121817341701C
:1049C0004BF6CE70C2F20100017080BD42414E44F0
:1049D0004D4150204F4E000042414E444D41502029
:1049E0004F4646002DE9F04147F2F075C1F200054F
:1049F00095F8018005F1200420462E1DB8F1000F26
:104A000008BF3046006801211FF040F8013841B26C
:104A1000002948BF0B20C1B2032901D041BB00BF10
:104A2000013841B2002948BF0B20C1B2002918BF8C
:104A300003291DD1013841B2002948BF0B20C1B262
:104A4000032918BF002913D1013841B2002948BFFA
:104A50000B20C1B2032918BF002909D1013841B286
:104A6000002948BF0B20C1B2002918BF0329D7D0A5
:104A700040B200EB800005EB8007386C2146B8F1AE
:104A8000000F08BF314619F0F3F9697897F8440030
:104A9000002908BF3446214619F0F2FB97F84C0074
:104AA000B96C85F83501C5F8301197F84D0097F8C5
:104AB0004E1085F88E0185F8781197F8500047F66A
:104AC0008C11C1F20001087097F84F006978382204
:104AD000002908BF1C22A85447F69C10C1F2000010
:104AE000002101704BF69470C2F201000121417067
:104AF0004171BDE8F08100002DE9F04147F2F07509
:104B0000C1F2000595F8018005F1200420462E1D14
:104B1000B8F1000F08BF3046006801211EF0B6FF53
:104B2000013041B20B29C8BF0020C1B2032901D016
:104B300041BB00BF013041B20B29C8BF0020C1B248
:104B4000002918BF03291DD1013041B20B29C8BF6C
:104B50000020C1B2032918BF002913D1013041B28E
:104B60000B29C8BF0020C1B2032918BF002909D1F1
:104B7000013041B20B29C8BF0020C1B2002918BFC3
:104B80000329D7D040B200EB800005EB8007386CDA
:104B90002146B8F1000F08BF314619F069F969786C
:104BA00097F84400002908BF3446214619F068FBF5
:104BB00097F84C00B96C85F83501C5F8301197F8B5
:104BC0004D0097F84E1085F88E0185F8781197F80A
:104BD000500047F68C11C1F20001087097F84F00A1
:104BE00069783822002908BF1C22A85447F69C1077
:104BF000C1F20000002101704BF69470C2F2010076
:104C0000012141704171BDE8F081000047F2C1719E
:104C1000C1F20001087800284BF69470C2F201003E
:104C200063D04AF2144241F6BC13C2F20102C0F64C
:104C30000403136042F66C1241F64C23C1F20002E9
:104C4000C0F6040313604DF2D542C2F201024FF0E8
:104C5000000C82F800C049F6DC62C1F20002127852
:104C600049F6DB63C1F200031A7081F800C001212C
:104C7000017042F61C120121C1F2000200230170F2
:104C800081718172017281700171C17213604BF682
:104C9000B872C2F20102136042F62412C1F200029D
:104CA000FF2313704AF26A02C2F20102137042F645
:104CB0002512C1F20002137042F62212C1F2000264
:104CC00042F20F7313804AF26802C2F201021380AB
:104CD00042F62012C1F200021380017081718172CC
:104CE000017281700171C17270474FF0010C81F83F
:104CF00000C047F2F071C1F200014B7801F12402CB
:104D0000002B08BF01F1080211688A1E022A21D374
:104D10000A1F022A3DD24AF2144141F2C062C2F295
:104D20000101C0F604020A6042F66C1141F640022D
:104D3000C1F20001C0F604020A604DF2D541C2F290
:104D4000010101220A7049F6DB61C1F200010C2267
:104D50000A708EE74AF2144141F2C062C2F20101C8
:104D6000C0F604020A6042F66C1141F64002C1F23C
:104D70000001C0F604020A604DF2D541C2F2010101
:104D800081F800C049F6DB61C1F200010A220A7015
:104D90006FE706294AF2144141F2C062C2F20101F2
:104DA000C0F604020A6042F66C1141F64002C1F2FC
:104DB0000001C0F604020A604DF2D541C2F20101C1
:104DC0004FF001020A7049F6DB61C1F2000114BF25
:104DD00008220B220A704CE747F2F070C1F2000083
:104DE00090F8471181F0010180F847114BF694705B
:104DF000C2F20100012141704BF6CE70C2F20100F7
:104E00000170704747F2F070C1F2000090F83C105A
:104E100081F0010180F83C104BF69470C2F2010061
:104E2000012141704BF6CE70C2F201000170704753
:104E300047F2C171C1F20001087800284BF6947066
:104E4000C2F2010028D04AF2144241F6BC13C2F269
:104E50000102C0F60403136042F66C1241F64C23C3
:104E6000C1F20002C0F6040313604DF2D542C2F253
:104E700001024FF0000C82F800C049F6DC62C1F27A
:104E80000002127849F6DB63C1F200031A7081F860
:104E900000C00121017038E04FF0010C81F800C022
:104EA00047F2F071C1F200014B7801F12402002BAE
:104EB00008BF01F1080211684AF2144241F2C063CE
:104EC000C2F20102C0F6040321F00101136042F6B0
:104ED0006C1241F64003C1F20002C0F6040302293D
:104EE000136006D149F6DB61C1F2000109220A70A4
:104EF0000BE04DF2D541C2F2010181F800C049F644
:104F0000DB61C1F2000107220A7042F61C12012186
:104F1000C1F20002002301708171817201728170FF
:104F20000171C17213604BF6B872C2F201021360D4
:104F300042F62412C1F20002FF2313704AF26A0201
:104F4000C2F20102137042F62512C1F20002137080
:104F500042F62212C1F2000242F20F7313804AF2AB
:104F60006802C2F20102138042F62012C1F200026E
:104F70001380017081718172017281700171C1723F
:104F80007047000080B547F2F070C1F2000090F861
:104F9000802182F0010180F8801113A015A1002A60
:104FA00008BF014649F6EC60C1F20000006847F610
:104FB000AC12C1F20002106047F6B010C1F200005E
:104FC000FBF765FC4CF21D00C2F2010000210170EC
:104FD0004BF69470C2F20100817B00291CBF0121B5
:104FE00081710121817380BD4B45594552204F4E3F
:104FF000000000004B45594552204F464600000036
:1050000047F2C170C1F20000007848B947F2F07071
:10501000C1F2000090F8461181F0010180F84611BC
:105020004BF69470C2F201000121417041724BF6BF
:10503000CE70C2F20100017070470000F0B581B07F
:1050400047F2F075C1F20005687805F124010028E7
:1050500008BF05F1080109780A2916D80224DFE8FB
:1050600001F0220C06060808140A0A140E0008248F
:1050700019E0062417E0042415E0032413E04BF69E
:105080009471C2F2010101220A7205F12001002887
:1050900008BF291D096849F27F62C0F29802002406
:1050A000914288BF012405F1200700283946204697
:1050B00005F1040608BF314619F0E2F868780121CD
:1050C000002808BF3746386801261EF0DFFC01289B
:1050D00007DBC1B2890051FA80F005EB800080F84F
:1050E000444047F69C10C1F20000067001B0F0BDCC
:1050F000F0B581B047F2C170C1F20000007800281D
:1051000043D049F6D761C1F20001012008704BF687
:10511000947142F61C12C2F20101C1F20002002396
:10512000087088718872087288700871C87213607C
:105130004BF6B872C2F20102136042F62412C1F2B9
:105140000002FF2313704AF26A02C2F201021370D6
:1051500042F62512C1F20002137042F62212C1F289
:10516000000242F20F7313804AF26802C2F2010297
:10517000138042F62012C1F2000213804870487278
:105180004BF6CE70C2F2010058E047F2F074C1F263
:105190000004617804F12400002908BF04F108002C
:1051A0000568E8B20A2827D80125DFE800F02506BF
:1051B000080A0C0E101214161E0000251CE0032510
:1051C0001AE0022518E0052516E0042514E009255B
:1051D00012E0082510E007250EE04BF69470C2F2AD
:1051E0000100012202720A2506E04BF69470C2F219
:1051F000010001220625027204F12007E8B200290D
:10520000394604F1040608BF314619F039F86078D0
:105210000121002808BF374638681EF037FC0128F6
:10522000A1BFC1B2890051FA80F004EB8000A8BF91
:1052300080F8445047F69C10C1F200000121017033
:1052400001B0F0BD4BF6FC70C2F20100017881F0B4
:10525000010101704BF69470C2F20100012141700E
:105260004BF6CE70C2F2010001707047F0B581B00C
:105270004CF22920C2F201000121017040F6180011
:10528000C4F202004FF40001016049F6EC60C1F283
:105290000000006847F69811C1F2000147F2F0756E
:1052A0000860C1F200056E7805F13400002E08BFD9
:1052B00005F11800016805F12C0008BF05F1100088
:1052C0000068814204D93421002E08BF182168509B
:1052D00005F13000002E08BF05F11400007800270A
:1052E000002846D149F6F814C1F200042046802176
:1052F000FCF745FA49F67820C1F200004FF400713E
:10530000FCF73DFA4DF2C840C2F20100076049F6D1
:10531000D060C1F2000007604DF2BC00C2F2010093
:10532000012101704DF2C000C2F20100046049F693
:105330007844C1F2000420464FF4BE71FCF71FFA16
:1053400049F6EC10C1F20000046049F6F01041F299
:105350006F21C1F20000C3F6032101604DF2C400C9
:10536000C2F20100076049F6F410C1F200000760C4
:1053700001273020002E08BF14202F544BF69470C4
:10538000C2F201000121C17141704BF6CE70C2F230
:105390000100017001B0F0BD70B547F2F074C1F2C8
:1053A000000494F88E01617880F0010504F120007A
:1053B00084F88E51002908BF201D006801210126B4
:1053C0001EF064FB012807DBC1B2890051FA80F0AE
:1053D00004EB800080F84D504BF69470C2F201004F
:1053E00046704BF6CE70C2F20100067070BD000030
:1053F00047F2C171C1F20001087800284BF69470A1
:10540000C2F2010028D04AF2144241F6BC13C2F2A3
:105410000102C0F60403136042F66C1241F64C23FD
:10542000C1F20002C0F6040313604DF2D542C2F28D
:1054300001024FF0000C82F800C049F6DC62C1F2B4
:105440000002127849F6DB63C1F200031A7081F89A
:1054500000C0012101701EE001220A704AF21441CD
:1054600041F60833C2F20101C0F604030B6042F6B4
:105470006C1141F60843C1F20001C0F604030B6051
:105480004DF2D541C2F201010A7049F6DB61C1F269
:10549000000100220A700121017081718172017284
:1054A00081700171C17201708171817201728170AC
:1054B0000171C17242F61C10C1F2000000210160AE
:1054C0004BF6B870C2F20100016042F62410C1F23E
:1054D0000000FF2101704AF26A00C2F2010001706F
:1054E00042F62510C1F20000017042F62210C1F20E
:1054F000000042F20F7101804AF26800C2F201001E
:10550000018042F62010C1F20000018070470000C7
:1055100047F69D10C1F20000017881F00101017091
:1055200000784CF21B01C2F2010108704BF6947036
:10553000C2F201000121C17141704BF6CE70C2F27E
:105540000100017017F032BF47F2C171C1F20001D2
:10555000087800284BF69470C2F2010028D04AF275
:10556000144241F6BC13C2F20102C0F604031360F8
:1055700042F66C1241F64C23C1F20002C0F604035D
:1055800013604DF2D542C2F201024FF0000C82F8D6
:1055900000C049F6DC62C1F20002127849F6DB6312
:1055A000C1F200031A7081F800C0012101701EE0F1
:1055B00001220A704AF2144141F2C063C2F20101B1
:1055C000C0F604030B6042F66C1141F64003C1F2D1
:1055D0000001C0F604030B604DF2D541C2F2010197
:1055E0000A7049F6DB61C1F2000100220A70012154
:1055F000017081718172017281700171C1720170DB
:1056000081718172017281700171C17242F61C1048
:10561000C1F20000002101604BF6B870C2F2010037
:10562000016042F62410C1F20000FF2101704AF22D
:105630006A00C2F20100017042F62510C1F20000BA
:10564000017042F62210C1F2000042F20F71018097
:105650004AF26800C2F20100018042F62010C1F255
:10566000000001807047000047F2C171C1F20001E3
:10567000087800284BF69470C2F2010028D04AF254
:10568000144241F6BC13C2F20102C0F604031360D7
:1056900042F66C1241F64C23C1F20002C0F604033C
:1056A00013604DF2D542C2F201024FF0000C82F8B5
:1056B00000C049F6DC62C1F20002127849F6DB63F1
:1056C000C1F200031A7081F800C0012101701EE0D0
:1056D00001220A704AF2144141F65813C2F2010144
:1056E000C0F604030B6042F66C1141F6B813C1F228
:1056F0000001C0F604030B604DF2D541C2F2010176
:105700000A7049F6DB61C1F2000104220A7001212E
:10571000017081718172017281700171C1720170B9
:1057200081718172017281700171C17242F61C1027
:10573000C1F20000002101604BF6B870C2F2010016
:10574000016042F62410C1F20000FF2101704AF20C
:105750006A00C2F20100017042F62510C1F2000099
:10576000017042F62210C1F2000042F20F71018076
:105770004AF26800C2F20100018042F62010C1F234
:105780000000018070470000B0B547F2F072C1F22E
:10579000000292F8460100B1B0BD47F2C170C1F2FB
:1057A0000000007818B34DF2D740C2F20100007833
:1057B000BDEEC00A012810EE100A69D149F6DA617F
:1057C000C1F200010978012802EB010595F8492191
:1057D00005F2491302EB000185F84911A1F1010519
:1057E00061DBECB21F2C5ED8212119706DE0B7EEA1
:1057F000002ABFEE001AB5EE400AB0EE423AF1EED2
:1058000010FAB8BFB0EE413A9FED4A1AB0EEC04A66
:10581000B4EE414AF1EE10FAC8BFB0EE403A50780B
:1058200092F83C3002F12001002802F59F7508BF74
:10583000111D0868002B08BF02F59E752A8800EE2E
:10584000102AB8EE400AB0FBF2F323EE000ABDEED8
:10585000C00A03FB120310EE105AB0EEC30A2A4628
:10586000002B18BF5A42B4EE420AF1EE10FAC8BF3C
:105870002A46104418F0FCFA4BF69470C2F201006C
:10588000012141714BF6CE70C2F201000170B0BD32
:105890004DF2D641C2F201010978012921D1BDE8BA
:1058A000B0400DF033BCEDB2202D4FF0000538BFF5
:1058B000012500284FF0000048BF012028424FF08A
:1058C00000002ED1CDB27E2D2BD8002A18BF5FEA62
:1058D000016027D04BF69470C2F201000121C17221
:1058E000B0BD4AF2144449F6DB65C2F20104C1F2CC
:1058F000000521682A7801EB02110A790D2A09D0E6
:10590000C96888472068297800EB011000790228CF
:1059100008BFB0BD4BF69470C2F201000121417383
:10592000B0BD18704BF69470C2F2010001210173F2
:10593000B0BD00BF9A99993F2DE9F04F85B047F26D
:10594000E271C1F20001087810B105B0BDE8F08F36
:105950000120087047F2F070C1F2000090F8460193
:10596000002840F0888140F60000C4F20200D0F820
:10597000101842F69000C1F20000037801F0100206
:10598000B3EB121F00F07781C1F30011002A017000
:1059900040F0718147F2C171C1F2000108784BF605
:1059A000947842F61C174BF6B87542F624144AF266
:1059B0006A0642F6251342F6221242F6201BC2F274
:1059C0000108C1F20007C2F20105C1F20004C2F2EF
:1059D0000106C1F20003C1F20002C1F2000BA8B13E
:1059E0004DF2D740C2F201000178012910D1002107
:1059F000017049F6DB60C1F20000017001209146A0
:105A00009A460EF09BF953464A4601E1084610E1DA
:105A10004DF2D640C2F201000178012914D10021D3
:105A2000017049F6DB60C1F2000001700120A2465E
:105A300014461E460EF082F933464AF26A062246A2
:105A40005446C2F20106E3E049F6D960C1F2000013
:105A50000178BA4601293CD1002707704BF6C07087
:105A600047F2F071C2F20100C1F2000100684A7809
:105A700099460B462031002A08BF191D18F0F8F985
:105A80004BF6BC70C2F2010000784BF6FC71C2F21A
:105A90000101087047F69D10C1F2000007704CF23A
:105AA0001B00C2F20100077047F6A610C1F2000009
:105AB000077017F07BFC49F6DB60C1F2000007704D
:105AC00001200EF03BF942F622124B46C1F20002D1
:105AD0006DE049F6D861C1F20001087899460128C5
