:020000040800F2
:1000000068DF0010DD0200081DDF0008058C000815
:1000100039DB0008A91B0008950802080000000051
:10002000000000000000000000000000E5070108DB
:100030009521000800000000FDF400083946010881
:10004000F7020008F7020008F7020008F7020008AC
:10005000F7020008F7020008992A0008492B000857
:10006000A92B0008F52B0008F7020008D11F000893
:10007000F7020008F7020008F7020008F70200087C
:1000800025200008F7020008F7020008F702000820
:10009000F7020008F7020008F7020008412C0008E8
:1000A000F7020008F7020008F7020008F70200084C
:1000B000F7020008AD46010829480108F7020008C8
:1000C000F7020008F7020008F7020008F70200082C
:1000D000F7020008F7020008F7020008F70200081C
:1000E000F92A0008F7020008F7020008F7020008E2
:1000F000F5DA0108F7020008F7020008F702000825
:10010000F7020008F70200080573010861FF000804
:10011000F7020008F702000855B4010851DA010897
:10012000F702000879200008CD200008F702000837
:10013000F7020008F7020008F7020008F7020008BB
:10014000F7020008F7020008F702000869DF00085C
:100150002121000839210008F7020008F7020008F1
:10016000F7020008F7020008F7020008F70200088B
:10017000F7020008F7020008F7020008000000007C
:10018000F7020008F702000800F002F800F096F805
:100190000AA090E8000C82448344AAF10107DA45E2
:1001A00001D100F08BF8AFF2090EBAE80F0013F09E
:1001B000010F18BFFB1A43F001031847EC48040075
:1001C0002C4904000A444FF0000C10F8013B13F0D6
:1001D000070408BF10F8014B1D1108BF10F8015BA0
:1001E000641E05D010F8016B641E01F8016BF9D193
:1001F00013F0080F1EBF10F8014BAD1C0C1B09D1EA
:100200006D1E58BF01F801CBFAD505E014F8016B5B
:1002100001F8016B6D1EF9D59142D6D370470000ED
:100220000023002400250026103A28BF78C1FBD8FF
:10023000520728BF30C148BF0B60704766292EF0B7
:10024000AA8065292EF0A78067292EF0A480612955
:100250002EF0A380692900F02D81642900F02A8105
:10026000752900F027816F2900F0BE81782900F000
:10027000E5810368DB0928BF41F08001632901F0B3
:100280003280E32901F04580002070471FB52DF032
:10029000B2FF9DE8030000F0D9FB01F003F9040070
:1002A000002000212DF020F8401C6060002000217B
:1002B0002DF004F8E0601FBD10B510BD01F087FA05
:1002C0001146FFF7E3FF25F067FB01F0B3FA03B433
:1002D000FFF7F2FF03BC01F0E3FA00000948804792
:1002E00009480047FEE7FEE7FEE7FEE7FEE7FEE718
:1002F000FEE7FEE7FEE7FEE704480549054A064B30
:1003000070470000914601088901000868A10010AB
:1003100068DF001068C0001068C0001070B50646A5
:1003200000F074FB056806F10B0020F00704B442EE
:100330009CBF002070BD2B466A68BAB11068A0420D
:1003400010D304F1080188423CBF5068586007D3BD
:100350005168101941601168091B016058601460F0
:10036000101D70BD13465268002AE7D12146284669
:1003700000F058FB0028DED170BD70B50446051FA3
:1003800000F044FB0068002C14BF446870BD002CD2
:1003900018BFAC423CBF20466468F8D301680A1815
:1003A000AA4218BF456003D12A680546114401607E
:1003B00028684119A1421CBF6C6070BD616869600A
:1003C00021680844286070BD0FB41CB5074B06AA0D
:1003D0007B4469460090059800F063FF0020694661
:1003E00000F072FF1CBC5DF814FB0000F50E00006D
:1003F00070B5044685690068C10601D5302600E065
:100400002026C00707D070BDD4E9012130469047AF
:10041000206A401C20626D1EF6D570BD70B5044682
:1004200085690078C00707D170BDD4E9012120207B
:100430009047206A401C20626D1EF6D570BD096889
:100440004A0501D540B27047C905FCD500B27047D6
:1004500009684A0501D5C0B27047C905FCD580B20C
:10046000704770B50C460546012A05D028788006ED
:1004700000D5EA69002302E0012305E05B1C9342FA
:1004800002D2E05C0028F9D1A869E618C01AA86178
:10049000286A184428622846FFF7AAFF04E0D5E935
:1004A000012114F8010B9047B442F8D32846FFF716
:1004B000B5FF70BD2DE9F04106460024106875298E
:1004C000314616A510D0FFF7BAFF002802DA4042E5
:1004D00013A507E031688A0701D512A502E0490794
:1004E00004D511A5012401E0FFF7B2FF00210A2283
:1004F00006F1240709E0B0FBF2FCB0FBF2F302FBCB
:100500001C00303078541846491C0028F3D123468B
:100510002A463046BDE8F04100F0D9BA000000009C
:100520002D0000002B000000200000002DE9FF5FDF
:1005300015468A460446DFF8AC80F8440027D8E91F
:1005400000103E46CDE9001010E03AF816106A4659
:1005500002A800F022FF411C07D02178890603D5AC
:10056000E269391891420DD80744761C207880063C
:1005700002D5E069B84205DDAE42E6DB3AF8160086
:100580000028E2D1A069C01BA0612046FFF730FF20
:10059000D8E90010CDE90010002017E03AF8181053
:1005A0006A4602A800F0F9FEB0F1FF3F81460BD089
:1005B00000250DF1080B05E0D4E901211BF8050029
:1005C00090476D1C4D45F7D308F10100B0428046BD
:1005D000E4DB206A384420622046FFF71FFFBDE8B5
:1005E000FF9F000062DE020070B5044621461068DD
:1005F000FFF72EFF002104F1240505E000F00702BB
:100600003032C0086A54491C0028F7D12068002302
:1006100008A2050708D500F02000084304D0E069CF
:10062000012305A2401EE0612046BDE8704000F0B5
:100630004EBA0000000000003000000070B5044613
:100640000D4621461068FFF703FF2188090502D5F2
:100650000F4A7A4402E00E4A7A440E32002104F135
:10066000240305E000F00F060009965D5E54491C66
:100670000028F7D120780023000704D5702D02D080
:1006800009B1022311322046BDE8704000F01FBAC4
:1006900052DD02002DE9F05F894604464FF0000A62
:1006A000DFF874B1FB44C0F820A02046E168884719
:1006B000002874D0252806D0D4E901219047206A6B
:1006C000401C2062F1E700265F462046E16888472B
:1006D0002028054607DB312D05D2781910F8200CAB
:1006E00008B10643F1E7B00701D526F00406C4F8C7
:1006F0001CA00027C4F818A02A2D09D028462CF0E9
:100700006FFC38B304EB8708303DC8F8185019E087
:1007100059F8041B204604EB87029161E168884781
:10072000012F054618D1E069002820DA26F02006BE
:100730001DE0D8F8180000EB800005EB40003038D1
:10074000C8F818002046E168884705462CF048FCA8
:100750000028EED1012F0AD02E2D08D12046E168C5
:1007600088477F1C0546022F46F02006C4DBA0699F
:10077000002803DA404246F00106A061F00701D0EC
:1007800026F010066C2D0BD0682D09D04C2D39D0D9
:100790006A2D35D0742D35D07A2D33D016E038E05F
:1007A000E1682F4620468847B842054609D16C2F9C
:1007B00026D04FF48060E16806432046884705460E
:1007C00004E06C2F1AD04FF4807006430DB3A5F1EE
:1007D0004100192802D8203546F400664A462946C9
:1007E000204626604E46FFF729FD80B101280BD038
:1007F000F61D26F0070000F1080956E74020E4E75F
:100800008020D8E70020D6E706F104094DE7284606
:1008100052E7206ABDE8F09F28DD020070B5064669
:1008200000F0F8F80468054630460A22002100F07E
:100830007CFD2C6070BD40EA010310B59B070FD111
:10084000042A0DD310C808C9121F9C42F8D020BA40
:1008500019BA884201D9012010BD4FF0FF3010BDF8
:100860001AB1D30703D0521C07E0002010BD10F8C6
:10087000013B11F8014B1B1B07D110F8013B11F88C
:10088000014B1B1B01D1921EF1D1184610BD40EA4D
:100890000103024630B59B0710D14FF0013400E050
:1008A00008C208C91D1B9D4315EAC41FF8D013F0E8
:1008B000FF0102F8011B0DD01B0AF8E711F8013BFC
:1008C000002B02F8013B05D011F8013B002B02F888
:1008D000013BF3D130BD10B5431C02E010F8011B01
:1008E00071B18107FAD14FF0013202C88C1A8C43E2
:1008F00014EAC211F9D0C01A0A0603D0C01E10BDF6
:10090000C01A10BD0A0401D0801E10BD0902FCD01F
:10091000401E10BD421E12F8013F002BFBD111F802
:10092000013B002B02F8013BF9D1704710B504469A
:1009300010F0030F08BF11F0030F40F015804FF0C7
:10094000013E121FC0F20E8051F8043BA3EB0E0CC7
:100950002CEA030C1CEACE1C08BF40F8043BF0D084
:10096000A1F1040102F10402521E08DB11F8013B5F
:1009700000F8013B002BF7D1114600F064FD204642
:1009800010BD00000000000030B44FF0013C50F8F2
:10099000042B51F8043BCCFA52F4D51A20D1FCB9FF
:1009A00050F8042B51F8043BCCFA52F4D51A17D165
:1009B000B4B950F8042B51F8043BCCFA52F4D51AD0
:1009C0000ED16CB950F8042B51F8043BCCFA52F418
:1009D000D51A05D1002CDAD030BC4FF0000070479A
:1009E00029BAB1FA81F111F01801D1F12000844047
:1009F000F2D1CA40CB4012F0FF0213F0FF0330BC2B
:100A0000D01A704770477047704700000048704721
:100A10003CA401200048704734A40120704770476F
:100A20007047704738B504460A4600206946AFF360
:100A30000080002808BF38BD02460099204600F01B
:100A400035FD012038BD012000F092BEF8B5AFF3AE
:100A50000080054600200C46102000BF0646A8195D
:100A6000A0420DD9324669460020AFF3008007004E
:100A700008BF00F07DFE0098A04218BF0546C419CB
:100A8000FFF7C4FF05600746F01D20F00700461978
:100A9000284600F00AF8B44208BFF8BDA21B314650
:100AA0003868BDE8F84000F001BD00210160C0E9F0
:100AB000011070471020704710B5FFF7ABFF0068BA
:100AC00010BD10B50446FFF7A5FF046010BD2DE969
:100AD000F0470D4699469246044600F12408016805
:100AE000880604D5E06921F01001216000E00120B2
:100AF000A84201DD471B00E00027A1697A1902EB3B
:100B00000900081AA0612078C00602D42046FFF729
:100B10006FFC002608E0D4E901211AF8060090478E
:100B2000206A401C761C20624E45F4DB2078C0060B
:100B30000AD52046FFF75CFC06E0D4E9012130200D
:100B40009047206A401C2062381EA7F10107F4DCA0
:100B500007E0D4E9012118F805009047206A401CFD
:100B60002062281EA5F10105F3DC2046FFF756FCA4
:100B70002078000602D50220BDE8F0870120FBE7BF
:100B80002DE9FF4F0C461E464FF0FF378BB0D2E9E0
:100B90000001DDF860800A908A46C1F30A5505B964
:100BA0003D46002108464FF00000BAF1000F00F466
:100BB000400005DA00EB80004FF4400101EA5000EC
:100BC0004FEA9059B9F1010F00DDB9460A9850EA91
:100BD0004A000ED044F61050A5F2FF3545432F14BD
:100BE000B8F1000F1ED07542291E1EDDC9F10002AA
:100BF0001CE0B8F1010F4FF0000001D0302103E0FC
:100C0000F24305E02154401CB042FBDB3046002299
:100C1000002121540B99C1F80880C1E900200FB0D0
:100C2000BDE8F08FBD1B6D1CDEE74A4600DA694265
:100C300006A800F02BFD06AB93E8070003AB83E8A2
:100C4000070050460A9929F049FA8DE80700A0F5F7
:100C500000501F3800900398002D0ADD42F21F015A
:100C60004A460844002303A90390684629F0B2FCD1
:100C700009E0A0F500504A461F38002303A903905D
:100C8000684629F0BCFC8DE807000004000C03D086
:100C90004FF0FF30410800E01046B8F1000F03D0DC
:100CA0000022009215461EE0751E05D400F018FCC7
:100CB000303262556D1EF9D5B3460122084302D089
:100CC00000227F1C04E02078302801D100227F1E02
:100CD000002A099784D01DE0112D07DA00F000FCEE
:100CE000303262556D1C50EA0102F5D1084302D042
:100CF0000098C8B10EE00021681E05E0235C625C2C
:100D000063542254401E491C8142F7DBAB46A81BAA
:100D1000401E0990002004F80B000B98099AC0F8B7
:100D20000880C0E9002B7AE711264FF0000857E74A
:100D30002DE9F04F88460446D21D22F0070191B0FC
:100D4000D1E90001CDE90A0129F090FD02460B9896
:100D5000C00F01D02D2007E02068810701D52B208E
:100D600002E0202101EAC000032A099001D0072AED
:100D700005DB03464146204600F0F8FB0BE12078F6
:100D8000800601D5E06900E00620B8F1650F8146D4
:100D900006D0B8F1660F18D0B8F1670F70D131E006
:100DA0000020B9F1110F009001DB112301E009F1DE
:100DB00001030AAA01A90CA8FFF7E2FEDDE90C7005
:100DC000002609F10105834647E001204B460090CB
:100DD0004FF000470AAA01A90CA8FFF7D1FEDDE9F0
:100DE0000DB00C995D46002610B909F101000D18EF
:100DF000B9EB050003D4C0F1FF3609F10105A5EBFD
:100E000009002BE0B9F1010F01DA4FF001090020D0
:100E1000B9F1110F0090484601DD112300E00346AF
:100E20000AAA01A90CA8FFF7ABFEDDE90C704D463C
:100E300000268346207800070AD4AB4500DA5D46D9
:100E400001A8012D04DD411911F8011C302907D03A
:100E50004F4502DA17F1040F04DA012082460FE051
:100E60006D1EEEE7002F02DCED1B3E4403E0781C14
:100E7000A84200DD7D1CB81B00F1010A4FF00047BD
:100E80002078000703D4AA4501DB4FF0FF3A002188
:100E9000B7F1004F0DF143088DF8431024D0022024
:100EA0002B23002F01DA7F422D230A21021EA0F1FD
:100EB000010000DC5FB197FBF1FC97FBF1F201FB55
:100EC0001C7C17460CF1300C08F801CDEEE7A8F1B8
:100ED000010003702188090501D5452100E0652145
:100EE000A0F1010800F8011C09980FA9A1EB08075F
:100EF000FF1D00B10120411901EBEA70A1693844DE
:100F0000081A401EA0612078C00602D42046FFF7D0
:100F10006FFA099828B1D4E901219047206A401C52
:100F200020622078C00622D52046FFF761FA1EE035
:100F3000002E04DBB34502DD01A8805D00E0302017
:100F4000D4E901219047206A401C2062761CAAF156
:100F500001005FEA000A0AD100F0A4FAC068016843
:100F6000405CD4E901219047206A401C2062281E81
:100F7000A5F10105DCDC07E0D4E9012118F8010B3B
:100F80009047206A401C2062381EA7F10107F3DC5D
:100F90002046FFF743FA032011B041E62DE9F04F58
:100FA00004460D46D21D22F0070089B0D0E9009713
:100FB0004846394629F05AFC0246F80F01D02D2345
:100FC00007E02068810701D52B2302E0202101EAF8
:100FD000C0038DF820300BB1012000E00020032A6F
:100FE000824601D0072A04DB2946204600F0BEFADB
:100FF0003FE12078800601D40D2500E0E569C7F3C4
:101000000A560D2D49DA00214FEA175B08464FF0CA
:101010000000002F00F4400007DA00EB80004FF4DE
:10102000400100EBD07001EA60008115012901DD6B
:101030004FF0FF3100224FEA850CBCF1180F06D3A8
:101040001346ACF118004FF08052C24003E04FF459
:10105000801323FA0CF30CF10C0CBCF1200F04D319
:10106000ACF1200C09FA0CF001E007FA0CF00029B1
:101070004FF0004801DD18B90FE00ED140450CD308
:1010800019EB02095F4121B9404502D19F4329EA8A
:101090000209BBEB175F00D0761C2088000502D543
:1010A0007B48784402E07A487844193808AA30230B
:1010B00002F80A30037C0AF10101002E0AF1020A4B
:1010C00053546A4602DC4FF0300101E04FF0310129
:1010D0004FF001088DF8001002D0A6F2FF3603E0B1
:1010E00059EA470100D06B4E002D02DC2178090738
:1010F00004D54FF002082E218DF80110C4460021BE
:101100000BE0C7F303433F01C35C491C6D1E02F8AB
:101110000830052908F1010801DA002DF1DC002171
:101120000CE000EB1973491C1B786D1E082902F8AE
:1011300008304FEA091908F1010801DA002DF0DC46
:1011400021688B0602D516E0A8F10108E04505DD0F
:1011500002EB080313F8013C302BF5D0B8F1000F77
:1011600009DD02EB080313F8013C2E2B03D109071C
:1011700001D4A8F10108002D05DD3E2102F8081078
:101180006D1E08F10108407C002E02F8080008F1ED
:10119000010804DA2D20764202F8080002E02B2034
:1011A00002F808000A214FF47A70864208F101081B
:1011B0000BDB96FBF0F3303302F8083096FBF0F3CC
:1011C00008F1010800FB136601E0642E0CDB6420CB
:1011D00096FBF0F3303302F8083096FBF0F308F199
:1011E000010800FB136601E00A2E06DB96FBF1F016
:1011F000303002F8080008F1010896FBF1F001FB1D
:101200001060303002F80800A16908F1010808EB0D
:10121000050202EB0A00081AA0612078C00602D479
:101220002046FFF7E5F8216A08AE01EB0A002062CC
:1012300004E0D4E9012116F8010B9047BAF1010A44
:10124000F7D22078C00602D52046FFF7D1F86E46C7
:1012500009E016F8010B3E280FD0D4E90121904790
:10126000206A401C2062B8F10108F2D22046FFF744
:10127000D5F809B00320BDE8F08F206A2844206229
:1012800003E0D4E90121302090476D1EEBD3F8E74D
:10129000ADD3020002FCFFFF01694A1C026108781D
:1012A000704700B58FB0CDE90131002105910549A6
:1012B0007944CDE9031011466846FFF7EBF90FB00A
:1012C00000BD0000E5FFFFFF0A6802F8010B0A609D
:1012D000704710B5436913B1AFF3008001E0FFF729
:1012E000C0F8012010BD127800F124010A7000221C
:1012F0004A700122EDE711684FF0FF32E9E710B5BF
:10130000436913B1AFF3008001E0FFF70FF901204B
:1013100010BD128800F1240182840022C2840122BF
:10132000EDE711684FF0FF32E9E72DE9F04791460C
:101330000F4680460446002614F8015B2DB100F0EC
:10134000A9F80068405DC007F6D12B2D02D02D2DE5
:1013500018D0641E4A463946204600F047F927B1A6
:101360003968A14201D1C7F800804FF0020471052D
:101370000BD54042002803DDFFF74CFB0460A007BB
:10138000BDE8F08746F48066E4E70028F8DAFFF766
:1013900041FB04606FF00040F2E72DE9F041164692
:1013A0000C46054600F076F8036893F80101012821
:1013B00007D0FF2C12D8185D80B101202C70BDE839
:1013C000F081D3F807013246214603F20713C7180C
:1013D0002846BC46BDE8F041002360474FF0FF308F
:1013E000EDE710B5203AC0F00B80B1E81850A0E846
:1013F0001850B1E81850A0E81850203ABFF4F5AFE3
:101400005FEA027C24BFB1E81850A0E8185044BF3E
:1014100018C918C0BDE810405FEA827C24BF51F8AB
:10142000043B40F8043B08BF7047D20728BF31F89F
:10143000023B48BF11F8012B28BF20F8023B48BFF0
:1014400000F8012B70474FF000020429C0F0128011
:1014500010F0030C00F09581CCF1040CBCF1020FEC
:1014600018BF00F8012BA8BF20F8022BA1EB0C013C
:1014700000F087B95FEAC17C24BF00F8012B00F8B7
:10148000012B48BF00F8012B70470000004870474F
:1014900034A4012010B500F005F8001D10BD00BFF8
:1014A00049BE02000048704754A40120034640682A
:1014B0008C46002818BF88423CBF03464068F8D3DA
:1014C00018681844884207D00CF1030020F0070088
:1014D000001D411A521A0146081D0A60FEF74DBF51
:1014E00030B5B0F10A0271F100034FEA900E4EEAF6
:1014F000817EB0EB0E0061EB91014FEA101E4EEAC7
:10150000017E10EB0E0041EB11114FEA102E4EEA56
:10151000016E10EB0E0041EB11214FEA104E4EEA26
:10152000014E10EB0E0041EB1141401841F100015A
:101530004FEAD00040EA41704FEAD1014FEA8104FE
:1015400044EA907410EB800544EB01046D1944EB00
:101550000404521BA3414FF0000348BF0A3200D5D8
:1015600030BD401C41F1000130BD00002DE9F041CB
:101570001F46044603260168072A01F4006004DBC5
:1015800008B116A505E016A503E008B115A500E011
:1015900015A521F010002060A069C01EA0610FB148
:1015A000401EA0612046FEF723FF4FB1D4E9012180
:1015B00038469047206A401C2062C01C206206E02A
:1015C000206AFAE7D4E9012115F8010B9047761E4D
:1015D000F8D22046FEF722FFBDE8F0814E414E00D2
:1015E0006E616E00494E4600696E66002DE9F05F3F
:1015F000824615468B4600270AF10104B946007859
:10160000302801D09DB113E014F8010B0127782890
:1016100003D0582801D045B10AE00DB1102D07D1F3
:10162000002714F8010B102502E0082500E00A2528
:101630000026B0460EE005FB080005FB06F1012779
:101640001FFA80F801EB1046B6F5803F00D3B9468B
:1016500014F8010B294600F0DFF80028EBDABBF1A3
:10166000000F05D00FB1641E00E05446CBF80040D7
:10167000B9F1000F06D0FFF7CDF902210160C81EB5
:10168000BDE8F09F48EA0640FAE700002DE9F04780
:10169000814616468AB0354878440DC88DE80D005D
:1016A00032487844801C03AC0DC884E80D0041F634
:1016B0009B300844372190FBF1F290FBF1F5A5F146
:1016C000800501FB12041B3C02D56442012000E0AE
:1016D0000020DFF898A080460027FA44AAF1BE0A4D
:1016E0000EE0E0070AD03246684607EB47010123C7
:1016F0000AEB810128F083FF8DE8070064107F1C4E
:10170000002CEED1194F7F44AE3F19E0E80715D009
:1017100007EB04100DF1180A90E80E008AE80E009D
:10172000C068F04201D1981908903246012306A9F9
:1017300003A828F064FF03AB83E807006D10641C66
:10174000002DE3D14FF0010332466946B8F1000F96
:1017500003A802D028F03EFF01E028F050FFC9E9BD
:101760000001C9F808200AB0BDE8F08738CF0200B0
:1017700010B500F06DF8BDE8104000F064B84FF00F
:10178000000200B5134694469646203922BFA0E8D1
:101790000C50A0E80C50B1F12001BFF4F7AF0907DD
:1017A00028BFA0E80C5048BF0CC05DF804EB8900CE
:1017B00028BF40F8042B08BF704748BF20F8022B11
:1017C00011F0804F18BF00F8012B70477047754625
:1017D000FFF75CFEAE4605006946534620F0070061
:1017E000854618B020B5FEF787FDBDE820404FF0D4
:1017F00000064FF000074FF000084FF0000BAC461A
:10180000ACE8C009ACE8C009ACE8C009ACE8C00964
:1018100021F007018D4670473A2800D2303820F079
:101820002002412A01D3A2F13700884201D34FF0B0
:10183000FF30704710B50446AFF300802046BDE886
:101840001040FEF744BD002801D000F029B87047D1
:1018500010B5012805D0002103A000F027F80120D1
:1018600010BD09A1F8E7000053494752544D454DBA
:101870003A204F7574206F662068656170206D6531
:101880006D6F7279000000003A2048656170206D2C
:10189000656D6F727920636F727275707465640024
:1018A00001491820ABBEFEE72600020070B50546D0
:1018B0000C460A2000E06D1C00F011F835B12878C4
:1018C0000028F8D102E0641C00F009F814B1207877
:1018D0000028F8D1BDE870400A20AFF3008008B5B9
:1018E00069468DF800000320ABBE08BD53EA020C28
:1018F00000F069802DE9F04B4FF00006002B1FBF70
:10190000B3FA83F503FA05F424FA05F65E4012BF34
:101910001643B2FA82F502FA05F4C5F120051EBF9E
:1019200022FA05FC44EA0C04203556EA044C4FEA3E
:10193000144418BF641C4FF000084FF00009904297
:1019400071EB030C39D3002919BFB1FA81F701FA01
:1019500007F6B0FA80F700FA07F6C7F120071EBFB6
:1019600020FA07FC46EA0C062037B6FBF4FCA7EB8E
:101970000507103F07F01F0BCBF120062CFA06F6E7
:101980000CFA0BFB44BFB3460026202FA4BF5E46D3
:101990004FF0000B5BEA060C08BF4FF0010B19EB90
:1019A0000B0948EB0608ABFB027C06FB02CC0BFBE9
:1019B00003CCC01B71EB0C01C1E70B46024641464C
:1019C0004846BDE8F08B13B5084318BF4FF0FF3011
:1019D0000146AFF30080BDE81C407047032A40F287
:1019E000308010F0030C00F0158011F8013BBCF1C1
:1019F000020F624498BF11F801CB00F8013B38BFD9
:101A000011F8013BA2F1040298BF00F801CB38BFE6
:101A100000F8013B11F003033FF4E3AC083AC0F0D7
:101A2000088051F8043B083A51F804CBA0E80810AC
:101A3000F5E7121D5CBF51F8043B40F8043BAFF3DF
:101A40000080D20724BF11F8013B11F801CB48BF39
:101A500011F8012B24BF00F8013B00F801CB48BF6F
:101A600000F8012B704702F0FF0343EA032242EA29
:101A70000242FFF7EABC02F0FF0343EA032242EA14
:101A80000242FFF77EBE0000002070472DE9F04FB4
:101A900081B04CF24C64C2F20104D4F8100345F258
:101AA0006261C2F2010145F662721830C2F20102AF
:101AB000002526C020461DF053F9D4F81093B9F143
:101AC000000F56D048F21C67C1F20007388848F270
:101AD0001C5B4CF264240FF2B00AC1F2000BC2F29C
:101AE000010400260AE000BF81B2B1F5807F06F153
:101AF000010624BF002038801E2E1CD01AF80610C4
:101B000082B20BF802100130218882B28A423880FA
:101B1000EAD14FF0000800BF00F07EF9B5EB582F76
:101B200003D1012808F10108F6D000F075F9012869
:101B300001D03888D8E74CF24C60D9E90712C2F2DC
:101B40000100D0F820030A444FF490730027C0F836
:101B50005C22C0E9993703690327012BA0F8507272
:101B600008BFC0F8602200F514710068DAB21EF0F8
:101B700095FD47F6F911C1F20001012200200A701B
:101B800001B0BDE8F08F00BF5B4F4B5D2053746127
:101B90007274205265636569766520555342204111
:101BA0007564696F0D0A000042F66C20C1F20000F6
:101BB0000178012919D10021017041F204004AF293
:101BC0002852CEF20000C2F2010242F664230168FC
:101BD0001268C1F200031F68891A3944196000684D
:101BE00042F66821C1F2000108604EF2FF054AF298
:101BF000005640F21847C0F2F5550FF22C08C2F219
:101C00000106C4F202074FF4800400E03C60404645
:101C100000210BF079FB00BF3068A842F6D20130FA
:101C2000306000BFF8E700BF427573204661756CF5
:101C30007400000021280DD0202815D10868D1F8A3
:101C400003104AF20C42C2F20102C2F80310106003
:101C5000002070474AF20C40C2F20100D0F8032085
:101C60000068C1F80320086000207047002070471A
:101C70004CF24C60C2F20100D0F80C130020086254
:101C80004AF2045042F64022C2F20100C1F20002C0
:101C9000486100208A6170472DE9F04F91B00DF145
:101CA000040A0C46064650464021FFF768FD2268AC
:101CB00050463146FEF73AFE206801383F2803D9E6
:101CC000002011B0BDE8F08F4CF21C2B47F6CC562B
:101CD0004CF220284FF00009C2F2010BC1F20006BD
:101CE000C2F201080020002519E000BFC7F1400141
:101CF00008EB07003F2F88BF0021FFF7A4FB4046F9
:101D000031463A46FFF76DFB304640218BF8009094
:101D1000FFF735FD01352168A8B28142D0D91AF804
:101D200000000028F6D09BF800703B28F055DDD06D
:101D3000781CC1B240298BF80000E5D2EAE7000028
:101D400022281BD021280DD0202828D10868D1F8BE
:101D5000031042F65912C1F20002C2F803101060DB
:101D60000020704742F65910C1F20000D0F803205D
:101D70000068C1F8032008600020704788780128B7
:101D800007D14CF20500C2F20100012101700020D0
:101D900070474CF20500C2F20100002101700020E2
:101DA00070470000002070474CF24C60C2F2010006
:101DB000D0F808130020086242F6882042F69022EC
:101DC000C1F20000C1F20002486100208A61704740
:101DD00080B54CF24C61C2F20101D1F80823506188
:101DE000BAB1D1F8202310234FF0000CC2F824021E
:101DF000C2E98B3C13694FF0010C012BA2F818C209
:101E000008BFC2F82802106802F50671DAB21EF0A7
:101E100045FC002080BD00002DE9F04F81B046F662
:101E2000DA55C1F200052878D0B948F21C604CF2AE
:101E3000642AC1F20000C2F2010AB0F80080BAF8C8
:101E40000040A04503D1002001B0BDE8F08F4CF266
:101E50004C69C2F20109D9F808B3DBF8240018B1C3
:101E6000032001B0BDE8F08F4DF2CC470120C2F253
:101E70000107287038464FF48071FFF780FCA045B9
:101E80002CD2FF2C53D848F21C50C1F2000001198B
:101E9000C4F1FF0082B23F2A28BF3F20013082B246
:101EA0004DF2CC40C2F20100FFF798FD04F1400171
:101EB00003262046A319DA1EFF2A3CD2FE3B032B41
:101EC0003ED0FC2A3FD83F2E40D00436A219073A14
:101ED000FC2A00F10400EDD3033E35E029D948F295
:101EE0001C50C1F200000119E043404482B23F2A75
:101EF00028BF3F20013082B24DF2CC40A8EB04064F
:101F0000C2F20100B7B2FFF769FD04F140003C21C5
:101F10007A183D2A12D03E2A24D03F2A24D039B341
:101F200004397A183C2A04F10404F1D11DE000269A
:101F300010E0002623E00130023E05E0013414E009
:101F40000230013E00E00330014600E040260C462E
:101F5000AAF80010A0B2B0F5807F04BF0020AAF854
:101F600000000CE0023400E00334AAF8004002E074
:101F7000AAF8000040264DF2CC47C2F20107DBF878
:101F80002400F8B9B0B2CBF81870CBF82000DBF819
:101F90002410B9B90121CBF82410D9F8202340F23C
:101FA0000113114621F8583F1369C9F83400D0666F
:101FB00000205766012B106708BF97661068DAB2D9
:101FC0001EF06CFB00202870012001B0BDE8F08FEE
:101FD00042F66C20C1F20000017801291BD10021DA
:101FE00041F2040C4AF228520170CEF2000CC2F207
:101FF000010242F66423DCF800101268C1F200030B
:102000001868891A08441860DCF8000042F6682154
:10201000C1F2000108604CF6B810C2F2010004F0F1
:10202000CFBB000042F66C20C1F20000017801290C
:102030001BD1002141F2040C4AF228520170CEF269
:10204000000CC2F2010242F66423DCF800101268B0
:10205000C1F200031868891A08441860DCF800000F
:1020600042F66821C1F20001086049F60800C1F299
:10207000000004F0A5BB000042F66C20C1F2000095
:10208000017801291BD1002141F2040C4AF22852A7
:102090000170CEF2000CC2F2010242F66423DCF8B9
:1020A00000101268C1F200031868891A0844186009
:1020B000DCF8000042F66821C1F2000108604CF62D
:1020C0001820C2F2010004F07BBB000042F66C2035
:1020D000C1F20000017801291BD1002141F2040C5A
:1020E0004AF228520170CEF2000CC2F2010242F60E
:1020F0006423DCF800101268C1F200031868891A22
:1021000008441860DCF8000042F66821C1F20001C2
:1021100008604CF67820C2F2010004F051BB0000C8
:1021200080B54CF6D820C2F2010004F049FBBDE8AE
:10213000804001F023BD000080B542F66C20C1F262
:102140000000017801291BD1002141F2040C4AF260
:1021500028520170CEF2000CC2F2010242F6642352
:10216000DCF800101268C1F200031868891A0844EC
:102170001860DCF8000042F66821C1F20001086036
:102180004CF63830C2F2010004F01AFBBDE8804082
:1021900001F0FCBF42F66C20C1F200000178012979
:1021A00018BF7047002141F2040C4AF22852017016
:1021B000CEF2000CC2F2010242F66423DCF80010F9
:1021C0001268C1F200031868891A08441860DCF824
:1021D000000042F66821C1F200010860704700006B
:1021E0002DE9F0412DED088B82B047F2F478C1F271
:1021F000000840F0010008F26911032808BF08F543
:10220000B57108784AF2605600EE100AC2F2010673
:10221000B8EE408A376840F2000540F6007407EBDC
:102220004700C1F20005C2F2000405EB0020214680
:102230004FF44072FFF7D5F8781C022888BF0020C1
:10224000306000EB400005EB002120464FF4407267
:10225000FFF7C7F800200090684622F0D9F99DEDFD
:10226000000AB5EE400AF1EE10FA06D141F26F20F5
:102270009FEDE30AC3F683200090B5EE001A20EE2E
:10228000010AB0EEC00A01A829F08EFB9DED011AEB
:1022900047F60520C1F20000B8EEC11A01784AF2F3
:1022A000F8400029C2F2010045D19FEDD62A9FEDEA
:1022B000D63A20EE022A32EE032A9FEDD43A22EEDD
:1022C000002A32EE032A9FEDD23A98F95E2122EEDF
:1022D000000A31EE031A31EE001A9FEDCE2A00EE0D
:1022E000102AB8EEC00A90ED003A21EE021A31EE43
:1022F000032A30EE422AC8A2B5EE402AF1EE10FAC7
:10230000C8BF043292ED004A22EE082A22EE042AC7
:1023100032EE032AB1EE084A32EE013A30EE044AB8
:10232000B4EE443AF1EE10FA80ED002AC4BF30EE6C
:10233000410A80ED000A98F8012008F12003002AE4
:1023400008BF08F104031A7E002A04BF4FF07E5232
:10235000026011B19FEDB20A08E090ED001AB3EEF1
:102360000E0AB4EE401AF1EE10FA03DDB0EE401A98
:1023700080ED000A42F61C28C1F2000898ED008AA0
:1023800038EE410AB5EE400AF1EE10FA60D09FED4A
:10239000A52AB4EE418A20EE022A9FEDA30AF1EEAF
:1023A00010FAB0EE409AC8BFB0EE429A9FED9F2A55
:1023B0009FED9FAA31EE483AB4EE418A00260027ED
:1023C00023EE022AF1EE10FAB8BFB0EE429A18E0FE
:1023D00038EE098A88ED008A0127A51928EE0A0A35
:1023E00095ED00BA10EE100A2AF048FE00EE100A31
:1023F000043620EE0B0AB6F5407F85ED000A00F0AA
:10240000F980B5EE400AF1EE10FA07DAA01990ED66
:10241000001AB5EE401AF1EE10FAD9DCB5EE400A1A
:10242000F1EE10FA10DDA01990ED000A0020B5EED3
:10243000400AF1EE10FAB8BF01203843C0074FF050
:102440000007C5D1C9E700BFF807C1D10027C4E71D
:102450009FED770A21EE000A10EE100A2AF00EFE18
:1024600000EE100A6FF07F00211891ED201A91ED17
:10247000212A91ED223A91ED234A21EE001A22EE13
:10248000002A23EE003A24EE004A81ED201A81ED65
:10249000212A81ED223A81ED234A91ED241A91ED12
:1024A000252A91ED263A91ED274A21EE001A22EED7
:1024B000002A23EE003A24EE004A81ED241A81ED31
:1024C000252A81ED263A81ED274A91ED281A91EDD2
:1024D000292A91ED2A3A91ED2B4A21EE001A22EE9B
:1024E000002A23EE003A24EE004A81ED281A81EDFD
:1024F000292A81ED2A3A81ED2B4A91ED2C1A91ED92
:102500002D2A91ED2E3A91ED2F4A21EE001A22EE5E
:10251000002A23EE003A24EE004A81ED2C1A81EDC8
:102520002D2A81ED2E3A81ED2F4A91ED301A91ED51
:10253000312A91ED323A91ED334A21EE001A22EE22
:10254000002A23EE003A24EE004A81ED301A81ED94
:10255000312A81ED323A81ED334A91ED341A91ED11
:10256000352A91ED363A91ED374A21EE001A22EEE6
:10257000002A23EE003A24EE004A81ED341A81ED60
:10258000352A81ED363A81ED374A91ED381A91EDD1
:10259000392A91ED3A3A91ED3B4A21EE001A22EEAA
:1025A000002A23EE003A24EE004A81ED381A81ED2C
:1025B000392A81ED3A3A81ED3B4A91ED3C1A91ED91
:1025C0003D2A91ED3E3A91ED3F4A803021EE001ACE
:1025D00022EE002A23EE003A24EE004AB0F5207FD6
:1025E00081ED3C1A81ED3D2A81ED3E3A81ED3F4A75
:1025F0007FF43AAF02B0BDEC088BBDE8F08100BFBC
:102600006F12833AA8A19D3FF5CA83C0FBB3C040B7
:10261000E09248C0C2A8C040CDCC4C3D0AD7A33BF5
:10262000000048C3ABAAAABB00000000ABAAAA3BAB
:102630002D152A3E2DE9F04F83B016460C9A1C4604
:102640008846002A054676D04BF6CE7B4AF2FC42FD
:10265000C2F2010B01273001C2F2010240F200492F
:102660008BF8007050700020C4F20209310910701C
:102670004AF2413091704FF4805AC2F201000021B9
:1026800001224B46CDF800A001970DF093FC0028E5
:1026900059D04AF2FC40C2F20100002103224B460D
:1026A000CDF800A001970DF085FC00202946424698
:1026B0004B460027CDF800A001970DF07BFC94B3AA
:1026C0004DF22439C2F201090127484641463246FB
:1026D00000230097FFF7AEFFB8F1000F23D0C8F139
:1026E000000CA8F10102002319F80300E95C8842FC
:1026F00043D19A4217D009EB0307EE187878717826
:1027000088423AD10CEB0301881C0CD0B878B4781D
:10271000A04232D1C81C06D0F878F17888422CD17A
:1027200004339845E0D14BF6CE710020C2F201018E
:10273000012708702AE042F6F150C1F2000000784B
:1027400088B1012722E042F6F150C1F20000077083
:1027500010A027F0E1FA16A001210AF0D5FD002013
:102760008BF8000012E04BF6CE70C2F20100007848
:1027700000283FF469AF002708E04BF6CE74002133
:10278000C2F20104002727F0EDFB2770384603B0A2
:10279000BDE8F08F5B4552525D20454550524F4D8C
:1027A000206E6F7420666F756E642E2E2E000000F2
:1027B000454550524F4D20696E6974206572726FA5
:1027C000720000002DE9F04F83B042F6F150C1F2E3
:1027D00000000078002848D140F2004942F6910AF2
:1027E00049F6F065C4F2020900204FF48057C1F2A7
:1027F000000A0DF10B0BC1F200054FF000088DF837
:102800000B0001E0C72E2DD25046002101224B467D
:102810000124464608F10108009701940DF0CAFB17
:102820000020594601224B460024009701940DF0E8
:10283000C1FB9DF80B00C00711D028682968091A50
:102840000229DFD22968091A0129DBD82968091A67
:102850000129D7D82968091A0229EFD3D2E7B8F19C
:10286000C80F02D102A027F057FA03B0BDE8F08FDD
:102870005B4552525D454550524F4D204C6F636B46
:102880002077616974206572726F72002DE9F04FD4
:1028900087B0144642F6F152C1F2000212780AB132
:1028A0000125F5E04BF6CE72C2F201020B4601465D
:1028B00010780025002840F0EB80012010704DF6C4
:1028C000D05040F20049C2F201001A46C4F2020997
:1028D0000693FFF783F806994AF2FC46080A05902A
:1028E00003942003C2F201064FF4805B002400270A
:1028F0004FF0010A049000BF0498A1EB042800EBFC
:102900000420020C000A70701FFA88F0B0F5807F76
:1029100042F65810B270C1F200004FF000014FF0C3
:1029200001024B46357028BF4FF48078CDF800B0D7
:1029300001950DF03FFB42F62510C1F20000002189
:1029400001224B46CDF800B0CDF804A00DF032FBCB
:102950003046002103224B46CDF800B0CDF804A04C
:102960000DF028FB4DF6D050C2F2010000EB042020
:102970001FFA88F200214B46CDF800B001950DF00A
:1029800019FBFFF71FFF013705980699BCB2A0425B
:10299000B2D249F6F56BDDF80CA00120C1F2000BB4
:1029A00000905846524600234FF00008FFF742FEC1
:1029B00006994DF6D05EC2F2010E29B3B146C1F1BF
:1029C000000C4E1E00221BF802301EF80270BB42A3
:1029D00022D1964218D00BEB02030EEB02045F7873
:1029E0006078874218D10CEB0207B81C0CD098789D
:1029F000A578A84210D1F81C06D0D878E378984280
:102A00000AD104329142DED14BF6CE70C2F20100FF
:102A1000012580F800803BE04BF6CE744FF00108B2
:102A2000C2F201044FEA0A1040F2004684F8008026
:102A30004FEA1A1189F8010042F65810C4F2020652
:102A400089F8021000254FF48057C1F200000021E0
:102A50000122334689F80050009701950DF0AAFA3B
:102A60004AF24230C2F201000021012233460097AF
:102A7000CDF804800DF09EFA48460021032233462B
:102A8000009701950DF096FAFFF79CFE25702570D2
:102A9000284607B0BDE8F08F42F66C20C1F2000076
:102AA000017801291BD1002141F2040C4AF228527D
:102AB0000170CEF2000CC2F2010242F66423DCF88F
:102AC00000101268C1F200031868891A08441860DF
:102AD000DCF8000042F66821C1F20001086043F60C
:102AE0001440C4F201000168C90708BF7047012102
:102AF00001601BF0F1BC000042F66C20C1F2000046
:102B0000017801291BD1002141F2040C4AF228521C
:102B10000170CEF2000CC2F2010242F66423DCF82E
:102B200000101268C1F200031868891A084418607E
:102B3000DCF8000042F66821C1F2000108604FF4A1
:102B4000806004F099B8000042F66C20C1F20000E9
:102B5000017801291BD1002141F2040C4AF22852CC
:102B60000170CEF2000CC2F2010242F66423DCF8DE
:102B700000101268C1F200031868891A084418602E
:102B8000DCF8000042F66821C1F20001086043F65B
:102B90001440C4F201000168890758BF7047022140
:102BA00001601BF099BC000042F66C20C1F20000ED
:102BB000017801291BD1002141F2040C4AF228526C
:102BC0000170CEF2000CC2F2010242F66423DCF87E
:102BD00000101268C1F200031868891A08441860CE
:102BE000DCF8000042F66821C1F200010860042010
:102BF00004F042B842F66C20C1F2000001780129CD
:102C00001BD1002141F2040C4AF228520170CEF28D
:102C1000000CC2F2010242F66423DCF800101268D4
:102C2000C1F200031868891A08441860DCF8000033
:102C300042F66821C1F200010860082004F01CB8C7
:102C400042F66C20C1F20000017801291BD100215D
:102C500041F2040C4AF228520170CEF2000CC2F28A
:102C6000010242F66423DCF800101268C1F200038E
:102C70001868891A08441860DCF8000042F66821D8
:102C8000C1F20001086043F61440C4F2010001687B
:102C9000090658BF70478021016049F6F060C1F213
:102CA000000000684DF28821C2F2010108607047FF
:102CB0002DE9F04F81B04AF20800C2F20100D0F8CD
:102CC00000909FED1A2A99F85CC0B3EE091A60468D
:102CD000BCF1000F18BFFF20009047F2F470C1F262
:102CE0000000B2EE040A90F88A11BCF1000F08BF90
:102CF000B0EE410A32EE401AB7EE002A82EE011A17
:102D000082EE002A9FED0A3A9FED0A4A9FED0A5A89
:102D10009FED0A6A9FED0A7ADFED0A0A0023322549
:102D200043F2CE1AA1F1010B2B24AEE00000484281
:102D30000AD7A33C04293141042931C157F619C1EE
:102D4000E890F04300007F434DF22220C2F20100E0
:102D500020F813E0B9F85410B9F84E6005EE905A17
:102D6000891B01EE901AF8EEE11AB9F85610B9F87D
:102D7000507004EE906AC91B02EE901AF8EEE22A37
:102D8000B9F85810B9F852001FFA8EF2091A03EE7A
:102D9000901AF8EEE33AF8EE644AF8EE655A65EEFA
:102DA000835A65EEA11A71EEA41AFCEEE11A11EE37
:102DB000901A01EE907AF8EE611A65EEA22A72EE90
:102DC000A11AFCEEE11A11EE906A01EE900AF8EEFB
:102DD000611A65EEA32A72EEA11AFCEEE11A4FF415
:102DE000784711EE900A07EA012106F0FC0641EA55
:102DF000C601C0F3C40801EB080049F60061C1F246
:102E0000000121F81300D10A15294FF0150138BF30
:102E1000D10AC2F345120EF01F072B2A28BF224603
:102E2000152F4FF0150628BF374647EAC12145F256
:102E30000A071432394441EA42114DF2BC12C2F27F
:102E4000010222F81310C10A15294FF0150138BFED
:102E5000C10AC0F345102B2828BF2046B8F1150F32
:102E600028BFB04648EAC1211430394441EA401035
:102E700049F66661C1F2000121F813000133013DFA
:102E8000332BAAF1FF0A00F02881BBF1060F2AD8E4
:102E9000DFE80BF01E2C4A6986A30400C5EB052170
:102EA00048F21F5089B2C5F2EB10A1FB0012FF20BF
:102EB000A0EB1211BCF1000F08BF110901F0FC07D3
:102EC000FF0001F0F80247EAD10141EA022E3BE798
:102ED00001EE905A322BF8EE611A40F09C80009F70
:102EE00000223946D8E04FF6FF7E2DE701EE905ADA
:102EF000F8EE611AB4EE610AF1EE10FA40F39B802D
:102F000001EE90AAF8EE611A62EE211AFCEEE11AC7
:102F1000BCF1000F11EE902A00F0D280C2F1FF0741
:102F20004FF47841FF22D0E001EE905AF8EE611A9A
:102F3000B4EE610AF1EE10FA40F3918001EE90AA2E
:102F4000F8EE611A62EE211AFCEEE11ABCF1000FF4
:102F500011EE902A00F0A980C2F1FF01C1F3C40173
:102F6000FF22FF27A3E0C5EB052148F21F5089B2DD
:102F7000C5F2EB10A1FB00126146BCF1000F4FF04F
:102F8000FF0018BFA0EB12114FF4784708BF07EA03
:102F9000021701F0FC0247EAD10141EAC20ED3E672
:102FA000C5EB052148F21F5089B2C5F2EB10A1FB19
:102FB00000126146BCF1000F4FF0FF0018BFA0EBFC
:102FC00012114FF4FC6601F0F80708BF06EA52063A
:102FD00046EAD10141EA072EB6E6C5EB052148F2E3
:102FE0001F5089B2C5F2EB10A1FB00126146BCF183
:102FF000000F4FF0FF0018BFA0EB121101F0F8070F
:1030000001F0FC014FF01F0608BFD60946EAC101D6
:1030100041EA072E98E61B2B34D361EE841A71EE39
:10302000851AFCEEE11A11EE901AC1F1FF02C2F30B
:10303000C4020F4630E070EE611A61EEA01A61EE34
:10304000811A71EEA01AFCEEE11A11EE902A1746D1
:103050004FF47841BCF1000F08BF674635E070EED1
:10306000611A61EEA01A61EE811A71EEA01AFCEEEF
:10307000E11A11EE907A3A460021BCF1000F08BF28
:10308000FF2214E061EE861A71EE871AFCEEE11A57
:1030900011EE901AFF27002201F0FC0107F0F8075B
:1030A00042EAC10141EA072E4EE60021174602F02E
:1030B000FC0207F0F80741EAC20141EA072E43E6A5
:1030C0004FF4784000EA02210027C7F3C40702F05A
:1030D000FC02394341EAC20E36E647F2F476C1F209
:1030E000000696F887014FF40074022859D341F680
:1030F0003C61C0F6040151F820104AF25800C2F2B7
:10310000010042F60C158160C1F200054068A9601B
:103110002821FEF734FB68682821FEF730FB96F87B
:103120008761B4FBF6F07043D0F5007035D144F2FE
:10313000146106EB4600C0F6030101EB80004788EE
:10314000456840F2FC7048F220684AF2485900EBAA
:103150008704C1F20008C2F2010940462146A9F8DD
:103160000270C9F80450FEF70AFBC9F8088042F65D
:10317000D028C1F20008C8F8045048F62C65C1F206
:1031800000052846214689F80060A8F80270FEF77D
:10319000F6FAC8F8085088F800604FF40070B0FBE9
:1031A000F6F44DF66470C2F20100046041F60000CE
:1031B000C2F200004BF68031FEF745F94DF2803047
:1031C000C2F2000046F220713222FEF754FC43F6B0
:1031D0005060C1F200004FF48051FEF7D0FA01B008
:1031E000BDE8F08F000000002DE9F04F81B02DED1B
:1031F000108B8CB047F2F470C1F2000090F8890196
:103200000128009040F01C829FED490B27F008FD3B
:103210009FED491B51EC100B53EC112B2AF000FCD5
:1032200041EC100B28F00CF89FED451B9FED462B51
:1032300051EC110B9FED461BCDE9031051EC120B25
:103240009FED45ABCDE9011051EC110B9FED448B87
:10325000CDE90A1057EC100B9FED43CA099051ECD1
:103260001A0B9FED43DBB0EE4AEAB0EE4A0A0026A5
:10327000C80F59EC188BF0EE6AEAF0EE6A0A089073
:103280003CE000BF284631462A4633462AF080F803
:103290009FED270B53EC102B2AF07AF82AF046F812
:1032A000079E4DF2D05240F2FF11C2F20102891B7B
:1032B00042F8260042F8210052F826002AF000FFCA
:1032C00082468B4654EC1E5B2846214652465B469E
:1032D0002AF044FF00281CBF5C465546DDE9050185
:1032E00042464B4644EC1E5B2AF052F841EC100B70
:1032F000013640F20110864200F0B880DDE9033269
:1033000051EC100B0796CDE905012AF089FBDDE9A8
:1033100001322AF03DF8B0EE48BAB0EE4AFA8246E1
:103320008B460224F0EE68BAF0EE6AFA6DE000BF58
:1033300000000000006AF840800001020408603FBD
:1033400000000060FB21893F000050626A1509C03F
:10335000000000000000603F0000000000000000CE
:10336000000000000000F03FDB0F494000BF00BF3D
:103370000000000000F07F402040003B00000044BF
:10338000000000C42040803B3060C03B7975FABE2D
:103390006827BA3EBDE00B3E02582EBC0000003B41
:1033A0001F85EB3E713D0A3F27F03AFC53EC1D2B85
:1033B00051EC100B2AF034FB41EC100B27F040FFCE
:1033C000B0EE409AF0EE609A53EC1B2B50465946F3
:1033D0002AF026FB29F042FE02460B4651EC190B5F
:1033E0002AF01EFB53EC1F2B29F0D2FF054641ECBF
:1033F0001F0B20460E462AF087FA41EC1B0B0134C6
:1034000040F2011084423FF43DAF601E00EE100A0E
:10341000B8EE400A20EE0C0A10EE100A2AF050FE18
:10342000DDE90A322AF0FCFA29F018FE099A3B4637
:103430002AF0F6FA089A41EC190B62F3DF71424662
:103440004B462AF076FEB0EE490AF0EE690A0028F3
:10345000AAD127F039FA53EC1D2B51EC100B2AF0AE
:10346000DFFA29F0FBFD41EC190BADE71FED440B32
:103470002A4651EC100B23462AF03EF84DF2D05B61
:1034800004460D464FF00009C2F2010B5BF809003B
:103490000BEB09072AF014FE02460B46204629468C
:1034A0002AF0BEFA29F042FF4BF8090007F1040A9E
:1034B0009AE84104D7F810802AF002FE02460B4633
:1034C000204629462AF0ACFA29F030FF78603046D1
:1034D0002AF0F6FD02460B46204629462AF0A0FABD
:1034E00029F024FFB86050462AF0EAFD02460B4658
:1034F000204629462AF094FA29F018FFF860404641
:103500002AF0DEFD02460B46204629462AF088FABC
:1035100029F00CFF7969386108462AF0D1FD02468E
:103520000B46204629462AF07BFA29F0FFFEB969AE
:10353000786108462AF0C4FD02460B46204629461B
:103540002AF06EFA29F0F2FEF969B86108462AF00D
:10355000B7FD02460B46204629462AF061FA29F0BB
:10356000E5FE396AF86108462AF0AAFD02460B46D4
:10357000204629462AF054FA29F0D8FE796A3862A2
:1035800008462AF09DFD02460B46204629462AF0B1
:1035900047FA29F0CBFEB96A786208462AF090FD16
:1035A00002460B46204629462AF03AFA29F0BEFE8A
:1035B000F96AB86208462AF083FD02460B462046A7
:1035C00029462AF02DFA29F0B1FE396BF862084637
:1035D0002AF076FD02460B46204629462AF020FABC
:1035E00029F0A4FE796B386308462AF069FD02468B
:1035F0000B46204629462AF013FA29F097FEB96BAC
:10360000786308462AF05CFD02460B4620462946B0
:103610002AF006FA29F08AFEF96BB86308462AF008
:103620004FFD02460B46204629462AF0F9F929F0BB
:103630007DFE09F14009B9F5006FF8637FF426AF0C
:1036400000984DF2D0571FEDB49A1FEDB4BA1FED9C
:10365000B4CA42F280391FEDB5FA5FEDB59A1FED9D
:10366000B5DA5FEDB5FA5FEDB58A5FEDB5AA5FED4E
:10367000B5BA5FEDB5CA5FEDB5DA4FF00008C2F23A
:103680000107B7EE008A861EB5EE00AAC0F604094F
:103690000024B6EE00EA06E00134B4F5007F07F13D
:1036A000040700F04782052EF6D8B0EE480ADFE89E
:1036B00016F03D00D4007F010E020A00070000BF93
:1036C00087ED000AE8E700EE104AB8EE400A20EE67
:1036D000090A30EE0A0ABDEEC01AB8EEC11A30EE81
:1036E000410A20EE0B0ABDEEC01A11EE100AB8EB2B
:1036F000502F30EE0C1A1CBFB0EE410A002009EB2F
:10370000800101EE100A91ED002A91ED013AB8EE28
:10371000411A30EE410A32EE431A21EE000A30EE31
:10372000420A20EE2C0A30EE2D0AC9E700EE104ABC
:10373000B8EE400A20EE091A31EE0A1ABDEEC12A8F
:10374000B8EEC22A31EE421A21EE0B1ABDEEC12AA2
:1037500012EE100AB8EB502F31EE0C2A1CBFB0EE5F
:10376000421A002009EB800102EE100A91ED003AA6
:1037700091ED014AB8EE422A31EE421A34EE432A64
:1037800022EE011A20EE0F2A32EE0A2A31EE031A37
:10379000BDEEC23AB8EEC33A32EE432A22EE0B2A0D
:1037A000BDEEC23A13EE100AB8EB502F32EE0C3ACF
:1037B0001CBFB0EE432A002009EB800103EE100A83
:1037C00091ED004A91ED015AB8EE433A32EE432AA8
:1037D00035EE443A23EE022A9FEDE43A32EE042A13
:1037E00021EE031A9FEDE23A20EE290A31EE031A88
:1037F0009FEDE03A30EE0A0A22EE032A31EE021A79
:10380000BDEEC02AB8EEC22A30EE420A20EE0B0A04
:10381000BDEEC02A12EE100AB8EB502F30EE0C2A83
:103820001CBFB0EE420A002009EB800102EE100A34
:1038300091ED003A91ED014AB8EE422A30EE420A8B
:1038400034EE432A22EE000A9FEDCB2A30EE030A23
:1038500020EE020A31EE000A32E700EE104AF8EEDE
:1038600040EA2EEE890A30EE0A0ABDEEC01AB8EE22
:10387000C11A30EE410A20EE0B0ABDEEC01A11EE5D
:10388000100AB8EB502F30EE0C1A1CBFB0EE410AF4
:10389000002009EB800101EE100A91ED002A91ED64
:1038A000013AB8EE411A30EE410A33EE421A21EEE7
:1038B000000A2EEE8F1A31EE0A1A30EE020ABDEE21
:1038C000C12AB8EEC22A31EE421A21EE0B1ABDEE21
:1038D000C12A12EE100AB8EB502F31EE0C2A1CBF91
:1038E000B0EE421A002009EB800102EE100A91EDC1
:1038F000003A91ED014AB8EE422A31EE421A34EE16
:10390000432A22EE011A9FED962A31EE031A20EE89
:10391000020A9FED942A30EE020A9FED932A21EECF
:10392000021A30EE010A10EE100A2AF0C9FB2EEE40
:10393000A90A30EE0A0ABDEEC01AB8EEC11A30EE7E
:10394000410A20EE0B0ABDEEC01A824611EE100AA3
:103950000D46B8EB502F30EE0C1A1CBFB0EE410AEA
:10396000002009EB800101EE100A91ED002A91ED93
:10397000013AB8EE411A30EE410A32EE431A21EE16
:10398000000A30EE420A10EE100A2AF099FB9FED71
:10399000720B53EC102B2AF043F802460B465046AC
:1039A000294629F0F5FC29F0C1FC00EE100A87E653
:1039B00000EE104AB8EE400A20EE091A31EE0A1A5B
:1039C000BDEEC12AB8EEC22A31EE421A21EE0B1A20
:1039D000BDEEC12A12EE100AB8EB502F31EE0C2AC0
:1039E0001CBFB0EE421A002009EB800102EE100A63
:1039F00091ED003A91ED014AB8EE422A31EE421AB9
:103A000034EE432A22EE011A20EE0F2A32EE0A2A61
:103A100031EE031ABDEEC23AB8EEC33A32EE432A93
:103A200022EE0B2ABDEEC23A13EE100AB8EB502F6D
:103A300032EE0C3A1CBFB0EE432A002009EB8001A5
:103A400003EE100A91ED004A91ED015AB8EE433AA7
:103A500032EE432A35EE443A23EE022A32EE042AAD
:103A600021EE0D1A20EE290A31EE2F1A22EE282A15
:103A700030EE0A0A31EE021ABDEEC02AB8EEC22AB2
:103A800030EE420A20EE0B0ABDEEC02A12EE100AFA
:103A9000B8EB502F30EE0C2A1CBFB0EE420A0020CB
:103AA00009EB800102EE100A91ED003A91ED014A16
:103AB000B8EE422A30EE420A34EE432A22EE000AE1
:103AC00030EE030A20EE2A0A31EE000AF8E500EE95
:103AD000104AB8EE400A20EE2B0A30EE0A0ABDEE7C
:103AE000C01AB8EEC11A30EE410A20EE0B0ABDEE44
:103AF000C01A11EE100AB8EB502F30EE0C1A1CBF92
:103B0000B0EE410A002009EB800101EE100A91EDB0
:103B1000002A91ED013AB8EE411A30EE410A32EE38
:103B2000431A21EE000A30EE420A20EE0E0A30EE71
:103B30000E0AC5E546F6D950C1F200000121017018
:103B40004BF23E50C2F2010001700CB0BDEC108B84
:103B500001B0BDE8F08F00BFDEE8633E20D0893FB2
:103B6000F88BF9BE3927B63E8EB1133E2601FABE58
:103B700014AEB73EB4AB103E795D3FBC2DE9F04FBB
:103B800087B04DF28C20C2F201000268002A50D0AA
:103B90004FF6E8518A4200F221814CF6D826C2F253
:103BA000010696F83410012949F6CC61C1F20001F2
:103BB00000F0D782012786F834700D68B36D96F84F
:103BC0003570012F40F0CA82022786F83570002731
:103BD00077653768B468D6F840E0D6F85C803E6810
:103BE00041F6000C26F48026C2F2000C3E607A609A
:103BF00000220CEB4505C6F20802402C02BF2A4603
:103C00000025C6F20805BD60FA603F2202FA08F2FC
:103C10009A603A68BEF1000F42F016023A6003D093
:103C20003A6842F008023A603A6842F001023A60AB
:103C300097E247F60824C1F2000420464FF4707161
:103C4000FDF79DFD47F2F476C1F20006707806F1AB
:103C50002001002808BF311D08680121069021F0CD
:103C600005FA00280146C8BF01390B28B8BF01304A
:103C70004BB299B240B28142009040F3FB800020E9
:103C80004FF0C0422A21C6F2080011800021012312
:103C9000018001800380DF2303802B231380B52361
:103CA00001800380B623018003802C23138000BF92
:103CB000635A621803805388403103809388B1F5BA
:103CC000707F0380D3880380138903805389038026
:103CD00093890380D3890380138A0380538A0380E6
:103CE000938A0380D38A0380138B0380538B0380D2
:103CF000938B0380D38B0380138C0380538C0380BE
:103D0000938C0380D38C0380138D0380538D0380A9
:103D1000938D0380D38D0380138E0380538E038095
:103D2000938E0380D38E0380138F0380538F038081
:103D3000938F0380D28F0280BAD10021635A621818
:103D400003805388403103809388B1F5707F0380EE
:103D5000D388038013890380538903809389038068
:103D6000D3890380138A0380538A0380938A038054
:103D7000D38A0380138B0380538B0380938B038040
:103D8000D38B0380138C0380538C0380938C03802C
:103D9000D38C0380138D0380538D0380938D038018
:103DA000D38D0380138E0380538E0380938E038004
:103DB000D38E0380138F0380538F0380938F0380F0
:103DC000D28F0280BAD149F6D060C1F20000002142
:103DD000018007B0BDE8F04F00F0D8B94CF6D82705
:103DE000531A49F6CC61C2F20107C1F2000197F8FB
:103DF00034600A68012E036000F0BC81012387F85B
:103E00003430B86D97F83530012B40F0B081022383
:103E100087F8353000237B653B68BD683C6CFF6DDF
:103E20001E6841F6000C26F480261E604FF6E85608
:103E3000C2F2000C5E6000260CEB4202C6F20806DD
:103E4000402D02BF16460022C6F208029A603F22A9
:103E5000BA40DE608260186840F0160018601CB13D
:103E6000186840F008001860186840F001001860F9
:103E70000A687FE14AF20800C2F2010000689FED83
:103E8000C12A00F14002029200F14202059200F1C3
:103E90003E020492069A00F13C0B00EE102AB8EEA6
:103EA000400A96F887213A3001EE102A9FEDB63A83
:103EB0000390B8EE411A06E0019B0098013399B2D5
:103EC00081423FF7DCAE01EB410044F25C11C0F6E9
:103ED000030101EBC0000193D0E9043A0027002060
:103EE00004E000BF013087B2BA45E5D907EB4706C9
:103EF00003EB8607BA68951E062D5A460ED8DFE8F2
:103F000005F0040407070B090900039A06E000BF47
:103F1000059A03E0049A01E0029A00BF53F8266074
:103F2000B2F800E004EE106AB8EE444A34EE404ABB
:103F300024EE024A24EE014A34EE034ABDEEC44A9E
:103F40007F6814EE102A04EE107AB8EE444A34EE7C
:103F5000404A24EE024A24EE014A34EE034ABDEE02
:103F6000C44A14EE105A51090E294FEA551188BF60
:103F70004FF0FF320E2988BF4FF0FF35691CAC4669
:103F800008BF4FF4F07C511C904608BFAC461CF1B2
:103F9000010518BF4FF00008002918BF904608EA35
:103FA0000C0101310ED106998E429BD206994FF039
:103FB00000084FF0FF3C8F4298BF4FF0FF3888BF9A
:103FC0004FF4F07C18F1010918BF1CF101013FF416
:103FD00089AFC4457FF786AFACEB08016FEA0802F2
:103FE00011F003050CEB020614D01FFA88F1012D25
:103FF00024F811E00FD01FFA89F1022D08F102090F
:1040000024F811E007D01FFA89F124F811E008F133
:10401000030900E0C146032EFFF464AFACEB0901D5
:104020000E1F012101EB960111F0030741D01FFA89
:1040300089F124F811E009F1010189B224F811E0B5
:1040400009F1020189B224F811E009F1030189B2F2
:10405000012F09F1040524F811E02BD0A9B224F8AE
:1040600011E009F1050189B224F811E009F1060116
:1040700089B224F811E009F1070189B2022F09F190
:10408000080524F811E015D0A9B224F811E009F1CF
:10409000090189B224F811E009F10A0189B224F872
:1040A00011E009F10B0189B224F811E009F10C05C6
:1040B00000E04D460C2EFFF415AFCCF1000605F1E3
:1040C0000F0700BFA7F10F0189B224F811E0A7F193
:1040D0000E0189B224F811E0A7F10D0189B224F88C
:1040E00011E0A7F10C0189B224F811E0A7F10B014E
:1040F00089B224F811E0A7F10A0189B224F811E08D
:10410000A7F1090189B224F811E0A7F1080189B2E9
:1041100024F811E0F91F89B224F811E0B91F89B21F
:1041200024F811E0791F89B224F811E0391F89B20F
:1041300024F811E0F91E89B224F811E0B91E89B201
:1041400024F811E0791E89B224F811E0B9B21037D1
:10415000F2190F2A24F811E0B4D1C3E6002286F840
:104160003420002202600A6007B0BDE8F08F002012
:1041700087F834004FF6E8501044086007B0BDE8F7
:10418000F08F00BF0AD7233C000070432DE9F04FA9
:1041900081B02DED028B84B049F6D066C1F20006E5
:1041A000B6F80080B8F1000F00F0A180B8F1360F2A
:1041B00000F2BB8047F60C60C1F2000090ED000AEF
:1041C0004AF28C00C1F2000000EB8800B8EE400A11
:1041D00090ED001A47F2F479B8EE411AC1F20009E5
:1041E00030EE410A9FEDC71A99F8870120EE010AC7
:1041F00001EE100AB8EE411A20EE018A18EE104ABC
:10420000204628F04FFF80F0004000EE100ABDEE7F
:10421000C00AB5EE408A10EE107AF1EE10FA4FF4B3
:10422000F07620464FF00005A8BF2F464FF4F07AF5
:10423000B7F5F07FB8BF3E4628F0DAFE00EE100A70
:10424000BDEEC00A10EE101AB5EE408AF1EE10FA7B
:10425000D8BF2946B1F5F07FA8BF51467018B0F518
:10426000F07FC6F5F07543F6A02A4DF2222BC8BFA9
:1042700000218D42C2F2010AC2F2010B68DD51EA4F
:104280000600CDE9018176D0012FC0F2C9814AF242
:104290000800C2F20100006843F6A0240278C2F2CE
:1042A000010471002046FDF7DEFB002D00F0B8810F
:1042B00047F6CA504CF21821C1F20000C2F20101C7
:1042C00040F2DF12B0F90000B1F90010921B4DF27C
:1042D000803E4DF2BC1805F00303032AC2F2000E23
:1042E000C2F20108009380F00F8100275AE14FF0DD
:1042F000C0402A2101800021C6F2080100220123CA
:10430000DF270A800A800B800F802B2707800A8016
:10431000EB220A8021220B800A802C210180B6F832
:104320000080B8F1360F7FF645AF46F6D050C1F2A7
:1043300000000188013101804BF23D50C2F20100C2
:10434000002101704BF68C70C2F201000170EAE2AC
:104350004AF20800C2F2010000684FF4707102785E
:1043600043F6A020C2F20100FDF77DFB49F6D068BC
:10437000C1F2000826E247F6CA504CF21821019A11
:10438000C1F20000C2F201014DF28033B0F9000029
:10439000B1F90010C2EB0212C2F200034DF2BC19D7
:1043A00003EB4212AAF1180C0026C2F20109039293
:1043B000039B4D469A5D8E4288BF5D46864238BF5C
:1043C0005D4635F812204C469F192CF8182F721CA8
:1043D0008E4228BF5C46824238BF5C467A78BD7800
:1043E00034F81240B21C8A42CE4697F8038097F800
:1043F00004A088BFDE46824243F6A022C2F2010238
:1044000038BFDE463EF8155002EB460254809580D8
:10441000F51C4C468D4288BF5C46854238BF5C46E1
:1044200034F81850341D4B468C4288BF5B4684429A
:1044300038BF5B4633F81A30D5801381731D7D7900
:104440004C468B4288BF5C46834238BF5C4634F89A
:1044500015E0B51D4B46BC798D4288BF5B46854251
:1044600038BF5B4633F814304D46ACF80C30F31DC2
:10447000ACF80AE08B4288BF5D46834238BF5D4698
:10448000FB794C4635F8133006F1080597F808809B
:1044900097F809E08D4288BF5C46854297F80AA0EC
:1044A00038BF5C4634F81840D381148206F1090302
:1044B0004C468B4288BF5C46834238BF5C4634F82A
:1044C0001E3006F10A044D468C4288BF5D46844288
:1044D00038BF5D4635F81A505382958206F10B02BB
:1044E000FB7A4F468A4288BF5F46824238BF5F46AA
:1044F00037F813200C36B6F5F07FACF816207FF4B1
:1045000057AF8DE00AD7233CEA1A0392019A04EBD5
:104510004609C2EB02170EEB4717A9F1020C07F18F
:10452000010E002706EB070A0EEB0704424614F8BB
:10453000015C8A4588BF5A46824538BF5A4632F8E0
:1045400015201EF80750ACF802200AF1010243467C
:104550008A4288BF5B46824238BF5B4633F81520EB
:1045600009EB47035A800AF102028A42454688BF96
:104570005D468242627838BF5D4635F81220A478E5
:104580009A800AF1030243468A4288BF5B46824210
:1045900038BF5B4633F81420039B0437BB422CF82A
:1045A000082FBFD1009D43F6A02CC2F2010CBDB371
:1045B000019A4DF28034C2EB0212C2F2000404EB05
:1045C000421EBB191EF8072044468B4288BF5C463A
:1045D000834238BF5C4634F81220012D2CF813209A
:1045E0001ED07B1C9A191EF8033044468A4288BFAD
:1045F0005C46824238BF5C4634F81330022D2CF8FA
:1046000012300DD0BB1C9F191EF803208F4288BFAB
:10461000D846874238BFD84638F812002CF8170021
:10462000029B49F6D06843F6A02A47F2F479012BA1
:10463000C1F20008C2F2010AC1F20009C0F2C28050
:104640004AF20800C2F201000168C3F5F0740A786A
:104650000AEB44005900FDF706FADDF808E0002CEB
:1046600000F0B08047F6CA504CF21821C1F20000A9
:10467000C2F2010140F2DF12B0F90000B1F90010FE
:10468000A2EB0E02032A04F0030C01D2002358E02F
:10469000019A4DF28033C2EB0212C2F2000375465A
:1046A00003EB42122A444DF2BC19A4EB0C0E02F1AA
:1046B0000108AAF102050023C2F2010908EB030474
:1046C0004A4614F8017C8B4288BF5A46834238BF61
:1046D0005A4632F8172018F803704E466A805A1C62
:1046E0008B4228BF5E46824238BF5E4636F81720AE
:1046F0000AEB430672809A1C8A424F4688BF5F4687
:104700008242627838BF5F4637F81220A478B280C0
:10471000DA1C4E468A4288BF5E46824238BF5E46F9
:1047200036F8142004339E4525F8082FC6D149F6E3
:10473000D06847F2F479DDF808E0C1F20008C1F270
:104740000009BCF1000F3DD0019F4DF28036C7EB50
:104750000717C2F200064DF2BC1403EB0E0206EB83
:104760004717C2F20104BE5C22468B4288BF5A46FC
:10477000834238BF5A4632F81620BCF1010F2AF89E
:1047800013201FD05A1C02EB0E06BE5D25468B423D
:1047900028BF5D46824238BF5D4635F81660BCF1E1
:1047A000020F2AF812600DD09A1C02EB0E03FB5C7C
:1047B0008A4288BF5C46824238BF5C4634F81300A8
:1047C0002AF8120099F98C01022846DB4AF2BC3122
:1047D000C2F201010A68BBF84A00012AA8BF2AF800
:1047E00012004A68002AC8BF2AF812008A68012A03
:1047F000A8BF2AF81200CA68012AA8BF2AF8120026
:104800000A69012AA8BF2AF812004A69012AA8BF2A
:104810002AF812008A69012AA8BF2AF81200CA6978
:10482000012AA8BF2AF812000A6A012AA8BF2AF89A
:1048300012004A6A012AA8BF2AF812008A6A012ACD
:10484000A8BF2AF81200CA6A012AA8BF2AF81200D3
:10485000096B0129A8BF2AF8110099F88401B0B1A9
:1048600099F8010009F12001002808BF09F10401AD
:10487000486820F00100022809D147F6C851C1F26A
:104880000001BBF83200B1F900102AF811004CF613
:104890003832C2F2010292F83400BBF8321001281B
:1048A000AAF8E0113AD0012082F83400916D92F814
:1048B000350001282FD1022082F8350000205065F4
:1048C00010689368176CD26D0668402B26F480261A
:1048D00006604FF4F0764660534640F2000604BF8F
:1048E0000023C6F20803C6F2080608BF56468360D6
:1048F0003F2303FA02F2C6608A60016841F01601A4
:1049000001601FB1016841F008010160016841F0D8
:104910000101016002E0002082F83400B8F80000D4
:104920000130A8F8000004B0BDEC028B01B0BDE876
:10493000F08F000070B547F2F474C1F200046078A3
:1049400004F12001002808BF211D087E012680F007
:10495000010508680D76012120F088FB012807DB9E
:10496000C1B2890051FA80F004EB800080F84F500A
:104970004BF67D70C2F20100467047F2D870C1F26A
:104980000000067070BD00004BF6A871C2F2010174
:10499000087800284BF67D70C2F2010028D04AF258
:1049A000184243F65803C2F20102C0F60403136032
:1049B00042F6601243F6E803C1F20002C0F60403B7
:1049C000136049F6DF62C1F200024FF0000C82F87A
:1049D00000C04DF2C942C2F2010212784DF2C84342
:1049E000C2F201031A7081F800C0012101701EE0BB
:1049F00001220A704AF2184143F26C53C2F20101DB
:104A0000C0F604030B6042F6601143F2EC63C1F29E
:104A10000001C0F604030B6049F6DF61C1F200013A
:104A20000A704DF2C841C2F2010115220A7001213B
:104A3000017081718172017281700171C1720170A6
:104A400081718172017281700171C17242F61C1014
:104A5000C1F20000002101604BF6A470C2F2010017
:104A600001604AF26600C2F20100FF21017042F6C5
:104A70002410C1F2000001704AF26700C2F2010086
:104A8000017042F62210C1F2000042F20F71018063
:104A90004AF26400C2F20100018042F62010C1F225
:104AA000000001807047000070B547F2F474C1F255
:104AB000000494F83501617880F0010504F12000CC
:104AC000002908BF201D0068012184F83551012606
:104AD00020F0CCFA01280ADBC1B2890051FA80F03B
:104AE000D4F8301104EB800080F84C5081644BF610
:104AF0007D70C2F20100467047F2D870C1F200002A
:104B0000067070BDB0B52DED028B47F2F474C1F2A2
:104B1000000494F8340104F1200100EE100AB8EE0C
:104B2000400A94ED4C1A012531EE008AB3EE0F1ABB
:104B3000B4EE418AF1EE10FAC8BFB0EE408A607858
:104B4000002808BF211D0868012184ED4C8A20F04F
:104B50008DFA01280BDBC1B2890094F8352151FA96
:104B600080F004EB800080F84C2080ED128A4BF638
:104B70007D70C2F20100457047F2D870C1F20000AA
:104B80000570BDEC028BB0BDB0B547F2F470C1F258
:104B90000000417859B100F1200E9EE80E50D0E996
:104BA0000D45071D87E80E50C0E906450BE0051DC1
:104BB00000F1140E2ECD9EE8105000F12007303089
:104BC0002EC780E8105049F6F060C1F2000000687E
:104BD00047F6B011C1F20001086047F6B81044F280
:104BE000566144F64372C1F20000C2F24F01C4F6AE
:104BF0005012C0E9001244F24951C0F24401C0F819
:104C0000071047F6B410C1F20000002101704BF606
:104C10007D70C2F20100817B00291CBF01218171DE
:104C2000012181734170417147F2D870C1F20000D7
:104C30000170B0BDF0B581B047F60520C1F20000AB
:104C40000125057040F61800C4F202004FF400017F
:104C5000016049F6F060C1F20000006847F69C115F
:104C6000C1F2000147F2F4760860C1F200067078E4
:104C700006F12004214680F00102371D002818BFEC
:104C800039460868727019F0C3FC7078002808BFB4
:104C90003C466068214619F0E7FE4BF67D7047F20E
:104CA000D871C2F20100C1F2000145704571C571B1
:104CB0000D704BF6B471C2F201010D700570857173
:104CC0008572057285700571C57242F61C10C1F2BD
:104CD0000000002101604BF6A470C2F201000160E7
:104CE0004AF26600C2F20100FF21017042F6241070
:104CF000C1F2000001704AF26700C2F201000170C7
:104D000042F62210C1F2000042F20F7101804AF215
:104D10006400C2F20100018042F62010C1F20000DE
:104D2000018001B0F0BD000080B547F2F470C1F21F
:104D3000000090F8412182F0010180F8411116A095
:104D400018A1002A08BF014649F6F060C1F2000030
:104D5000006847F6B012C1F20002106047F6B810C2
:104D6000C1F20000FBF793FD47F6B410C1F200005A
:104D7000002101704BF67D70C2F20100817B002999
:104D80001CBF0121817101218173417047F2D870EC
:104D9000C1F20000017080BD42414E444D4150209F
:104DA0004F4E000042414E444D4150204F46460078
:104DB0002DE9F04147F2F477C1F20007787807F166
:104DC0002006344607F10408002808BF444620683E
:104DD000012120F04BF9013841B2002948BF0B20D6
:104DE000C1B2032900D039BB013841B2002948BF04
:104DF0000B20C1B2002918BF03291DD1013841B2CF
:104E0000002948BF0B20C1B2032918BF002913D1C4
:104E1000013841B2002948BF0B20C1B2032918BF95
:104E2000002909D1013841B2002948BF0B20C1B285
:104E3000002918BF0329D7D0C1B2890051FA80F0E8
:104E400007EB8005286C214619F0E2FB797895F88C
:104E500044000029314608BF414619F005FE95F887
:104E60004C00A96C87F83501C7F8301195F84D0052
:104E700095F84E1087F88E0187F8781195F8500054
:104E80004BF6DB71C2F201010870787895F84F108B
:104E900000284BF6FC7008BF46463176C2F201008E
:104EA000002101704BF67D70C2F2010001214170BA
:104EB0004171BDE8F08100002DE9F04147F2F4773F
:104EC000C1F20007787807F12006344607F104089C
:104ED000002808BF44462068012120F0C7F80130AF
:104EE00041B20B29C8BF0020C1B2032900D039BB91
:104EF000013041B20B29C8BF0020C1B2002918BF40
:104F000003291DD1013041B20B29C8BF0020C1B215
:104F1000032918BF002913D1013041B20B29C8BFA2
:104F20000020C1B2032918BF002909D1013041B2C4
:104F30000B29C8BF0020C1B2002918BF0329D7D050
:104F400040B200EB800007EB8005286C214619F089
:104F50005FFB797895F844000029314608BF414647
:104F600019F082FD95F84C00A96C87F83501C7F857
:104F7000301195F84D0095F84E1087F88E0187F89E
:104F8000781195F850004BF6DB71C2F20101087000
:104F9000787895F84F1000284BF6FC7008BF46460D
:104FA0003176C2F20100002101704BF67D70C2F231
:104FB0000100012141704171BDE8F0814BF6A871FB
:104FC000C2F20101087800284BF67D70C2F20100A0
:104FD00063D04AF2184243F65803C2F20102C0F607
:104FE0000403136042F6601243F6E803C1F20002C4
:104FF000C0F60403136049F6DF62C1F200024FF00D
:10500000000C82F800C04DF2C942C2F201021278CF
:105010004DF2C843C2F201031A7081F800C00121A9
:10502000017042F61C120121C1F20002002301703E
:1050300081718172017281700171C17213604BF6CE
:10504000A472C2F2010213604AF26602C2F20102C5
:10505000FF23137042F62412C1F2000213704AF2C9
:105060006702C2F20102137042F62212C1F200027C
:1050700042F20F7313804AF26402C2F201021380FB
:1050800042F62012C1F20002138001708171817218
:10509000017281700171C17270474FF0010C81F88B
:1050A00000C047F2F471C1F200014B7801F1200217
:1050B000002B08BF0A1D51688A1E022A21D30A1F2D
:1050C000022A3DD24AF2184143F26C52C2F2010167
:1050D000C0F604020A6042F6601143F2EC62C1F2CB
:1050E0000001C0F604020A6049F6DF61C1F2000166
:1050F00001220A704DF2C841C2F201010C220A706D
:105100008FE74AF2184143F26C52C2F20101C0F635
:1051100004020A6042F6601143F2EC62C1F200013F
:10512000C0F604020A6049F6DF61C1F2000181F8AD
:1051300000C04DF2C841C2F201010A220A7070E7B4
:1051400006294AF2184143F26C52C2F20101C0F63C
:1051500004020A6042F6601143F2EC62C1F20001FF
:10516000C0F604020A6049F6DF61C1F200014FF0A7
:1051700001020A704DF2C841C2F2010114BF0822B7
:105180000B220A704DE7000047F2F470C1F20000F4
:1051900090F8471181F0010180F847114BF67D70BE
:1051A000C2F201000121417047F2D870C1F2000043
:1051B0000170704747F2F470C1F2000090F83C10A3
:1051C00081F0010180F83C104BF67D70C2F20100C5
:1051D0000121417047F2D870C1F2000001707047A0
:1051E0004BF6A871C2F20101087800284BF67D70D9
:1051F000C2F2010028D04AF2184243F65803C2F224
:105200000102C0F60403136042F6601243F6E8039D
:10521000C1F20002C0F60403136049F6DF62C1F276
:1052200000024FF0000C82F800C04DF2C942C2F2F9
:10523000010212784DF2C843C2F201031A7081F8DC
:1052400000C00121017037E04FF0010C81F800C06F
:1052500047F2F471C1F200014B7801F12002002BFA
:1052600008BF0A1D51684AF2184243F26C53C2F259
:105270000102C0F6040321F00101136042F660123E
:1052800043F2EC63C1F20002C0F60403022913608A
:1052900006D14DF2C841C2F2010109220A700BE0A9
:1052A00049F6DF61C1F2000181F800C04DF2C8414A
:1052B000C2F2010107220A7042F61C120121C1F25A
:1052C000000200230170817181720172817001718D
:1052D000C17213604BF6A472C2F2010213604AF26B
:1052E0006602C2F20102FF23137042F62412C1F2D9
:1052F000000213704AF26702C2F20102137042F612
:105300002212C1F2000242F20F7313804AF26402C9
:10531000C2F20102138042F62012C1F20002138091
:10532000017081718172017281700171C172704767
:1053300080B547F2F470C1F2000090F8802182F04D
:10534000010180F8801113A015A1002A08BF0146B1
:1053500049F6F060C1F20000006847F6B012C1F2F1
:105360000002106047F6B810C1F20000FBF78FFA98
:1053700047F6B410C1F20000002101704BF67D70B9
:10538000C2F20100817B00291CBF01218171012132
:10539000817380BD4B45594552204F4E000000009F
:1053A0004B45594552204F46460000004BF6A87029
:1053B000C2F20100007848B947F2F470C1F200006F
:1053C00090F8461181F0010180F846114BF67D708E
:1053D000C2F2010001214170417247F2D870C1F25E
:1053E0000000017070470000F0B581B047F2F4751D
:1053F000C1F20005687805F1200739462E1D002806
:1054000008BF314608790A2816D80224DFE800F0E0
:105410001D0C06060808140A0A140E00082414E0DD
:10542000062412E0042410E003240EE04BF67D7005
:10543000C2F2010001220272086849F27F62C0F2E2
:1054400098020024904288BF0124204619F00CFBEA
:1054500068780121002808BF3746386801261FF008
:1054600005FE012807DBC1B2890051FA80F005EB87
:10547000800080F844404BF6FC70C2F201000670D8
:1054800001B0F0BDF0B581B04BF6A870C2F20100DA
:105490000078002843D04DF2C441C2F2010101203E
:1054A00008704BF67D7142F61C12C2F20101C1F286
:1054B0000002002308708871887208728870087171
:1054C000C87213604BF6A472C2F2010213604AF272
:1054D0006602C2F20102FF23137042F62412C1F2E7
:1054E000000213704AF26702C2F20102137042F620
:1054F0002212C1F2000242F20F7313804AF26402D8
:10550000C2F20102138042F62012C1F2000213809F
:105510004870487247F2D870C1F2000051E047F27B
:10552000F474C1F20004607804F120063146251DB0
:10553000002808BF29464F68F8B20A2827D8012753
:10554000DFE800F02506080A0C0E101214161E00E3
:1055500000271CE003271AE0022718E0052716E0C1
:10556000042714E0092712E0082710E007270EE0BF
:105570004BF67D70C2F20100012202720A2706E09A
:105580004BF67D70C2F20100012206270272F8B2CA
:1055900019F06AFA60780121002808BF2E463068A9
:1055A0001FF064FD0128A1BFC1B2890051FA80F04B
:1055B00004EB8000A8BF80F844704BF6FC70C2F288
:1055C00001000121017001B0F0BD000047F692100A
:1055D000C1F20000017881F0010101704BF67D708D
:1055E000C2F201000121417047F2D870C1F20000FF
:1055F0000170704770B547F60520C1F20000012127
:10560000017040F61800C4F202004FF4000101607E
:1056100049F6F060C1F20000006847F69C11C1F243
:105620000001086047F2F470C1F20000417800F117
:105630002005002908BF051DE86869690026814228
:1056400088BF6861287C002846D149F6FC14C1F265
:10565000000420468021FCF792F849F67C20C1F234
:1056600000004FF40071FCF78AF84DF2B840C2F226
:105670000100066049F6D860C1F2000006604DF2F4
:10568000A800C2F20100012101704DF2AC00C2F28B
:105690000100046049F67C44C1F2000420464FF446
:1056A000BE71FCF76CF849F6F010C1F2000004601E
:1056B00049F6F41041F26F21C1F20000C3F6032154
:1056C00001604DF2B000C2F20100066049F6F81028
:1056D000C1F20000066001264BF67D70C2F20100A7
:1056E00001212E74C171417047F2D870C1F20000DF
:1056F000017070BD70B547F2F474C1F2000494F803
:105700008E01617880F0010504F12000002908BFB6
:10571000201D0068012184F88E5101261FF0A6FC8F
:10572000012807DBC1B2890051FA80F004EB800048
:1057300080F84D504BF67D70C2F20100467047F282
:10574000D870C1F20000067070BD00004BF6A87161
:10575000C2F20101087800284BF67D70C2F2010008
:1057600028D04AF2184243F65803C2F20102C0F6AA
:105770000403136042F6601243F6E803C1F200022C
:10578000C0F60403136049F6DF62C1F200024FF075
:10579000000C82F800C04DF2C942C2F20102127838
:1057A0004DF2C843C2F201031A7081F800C0012112
:1057B00001701EE001220A704AF2184143F6A41358
:1057C000C2F20101C0F604030B6042F6601143F619
:1057D000A423C1F20001C0F604030B6049F6DF61A7
:1057E000C1F200010A704DF2C841C2F2010100226B
:1057F0000A700121017081718172017281700171E1
:10580000C172017081718172017281700171C17206
:1058100042F61C10C1F20000002101604BF6A4709A
:10582000C2F2010001604AF26600C2F20100FF21EB
:10583000017042F62410C1F2000001704AF26700C4
:10584000C2F20100017042F62210C1F2000042F2E1
:105850000F7101804AF26400C2F20100018042F639
:105860002010C1F200000180704700004BF6FD706F
:10587000C2F20100017881F001010170007847F661
:10588000A711C1F2000108704BF67D70C2F2010051
:105890000121C171417047F2D870C1F2000001705E
:1058A00018F060B94BF6A871C2F20101087800281F
:1058B0004BF67D70C2F2010028D04AF2184243F63E
:1058C0005803C2F20102C0F60403136042F66012EC
:1058D00043F6E803C1F20002C0F60403136049F680
:1058E000DF62C1F200024FF0000C82F800C04DF2FE
:1058F000C942C2F2010212784DF2C843C2F201035A
:105900001A7081F800C0012101701EE001220A70A6
:105910004AF2184143F26C53C2F20101C0F604038B
:105920000B6042F6601143F2EC63C1F20001C0F675
:1059300004030B6049F6DF61C1F200010A704DF209
:10594000C841C2F2010100220A7001210170817177
:105950008172017281700171C172017081718172F5
:10596000017281700171C17242F61C10C1F2000017
:10597000002101604BF6A470C2F2010001604AF2FE
:105980006600C2F20100FF21017042F62410C1F24C
:10599000000001704AF26700C2F20100017042F695
:1059A0002210C1F2000042F20F7101804AF264003D
:1059B000C2F20100018042F62010C1F20000018015
:1059C000704700004BF6A871C2F201010878002868
:1059D0004BF67D70C2F2010028D04AF2184243F61D
:1059E0005803C2F20102C0F60403136042F66012CB
:1059F00043F6E803C1F20002C0F60403136049F65F
:105A0000DF62C1F200024FF0000C82F800C04DF2DC
:105A1000C942C2F2010212784DF2C843C2F2010338
:105A20001A7081F800C0012101701EE001220A7085
:105A30004AF2184143F2F473C2F20101C0F60403C2
:105A40000B6042F6601143F65403C1F20001C0F648
:105A500004030B6049F6DF61C1F200010A704DF2E8
:105A6000C841C2F2010104220A7001210170817152
:105A70008172017281700171C172017081718172D4
:105A8000017281700171C17242F61C10C1F20000F6
:105A9000002101604BF6A470C2F2010001604AF2DD
:105AA0006600C2F20100FF21017042F62410C1F22B
:105AB000000001704AF26700C2F20100017042F674
:105AC0002210C1F2000042F20F7101804AF264001C
:105AD000C2F20100018042F62010C1F200000180F4
