:020000000000fe
:020001000006f7
:02000200000def
:020003000013e8
:020004000019e1
:02000500001fda
:020006000026d2
:02000700002ccb
:020008000032c4
:020009000039bc
:02000a00003fb5
:02000b000045ae
:02000c00004ba7
:02000d0000529f
:02000e00005898
:02000f00005e91
:0200100000648a
:02001100006b82
:0200120000717b
:02001300007774
:02001400007e6c
:02001500008465
:02001600008a5e
:02001700009057
:0200180000974f
:02001900009d48
:02001a0000a341
:02001b0000a93a
:02001c0000b032
:02001d0000b62b
:02001e0000bc24
:02001f0000c21d
:0200200000c915
:0200210000cf0e
:0200220000d507
:0200230000db00
:0200240000e2f8
:0200250000e8f1
:0200260000eeea
:0200270000f4e3
:0200280000fbdb
:020029000101d3
:02002a000107cc
:02002b00010dc5
:02002c000113be
:02002d00011ab6
:02002e000120af
:02002f000126a8
:02003000012ca1
:02003100013399
:02003200013992
:02003300013f8b
:02003400014584
:02003500014b7d
:02003600015275
:0200370001586e
:02003800015e67
:02003900016460
:02003a00016a59
:02003b00017151
:02003c0001774a
:02003d00017d43
:02003e0001833c
:02003f00018935
:02004000018f2e
:02004100019626
:02004200019c1f
:0200430001a218
:0200440001a811
:0200450001ae0a
:0200460001b403
:0200470001bafc
:0200480001c1f4
:0200490001c7ed
:02004a0001cde6
:02004b0001d3df
:02004c0001d9d8
:02004d0001dfd1
:02004e0001e5ca
:02004f0001ebc3
:0200500001f1bc
:0200510001f7b5
:0200520001fead
:020053000204a5
:02005400020a9e
:02005500021097
:02005600021690
:02005700021c89
:02005800022282
:0200590002287b
:02005a00022e74
:02005b0002346d
:02005c00023a66
:02005d0002405f
:02005e00024658
:02005f00024c51
:0200600002524a
:02006100025843
:02006200025e3c
:02006300026435
:02006400026a2e
:02006500027027
:02006600027620
:02006700027c19
:02006800028212
:0200690002880b
:02006a00028e04
:02006b000294fd
:02006c00029af6
:02006d0002a0ef
:02006e0002a6e8
:02006f0002ace1
:0200700002b2da
:0200710002b8d3
:0200720002bdcd
:0200730002c3c6
:0200740002c9bf
:0200750002cfb8
:0200760002d5b1
:0200770002dbaa
:0200780002e1a3
:0200790002e79c
:02007a0002ec96
:02007b0002f28f
:02007c0002f888
:02007d0002fe81
:02007e00030479
:02007f00030a72
:02008000030f6c
:02008100031565
:02008200031b5e
:02008300032157
:02008400032750
:02008500032c4a
:02008600033243
:0200870003383c
:02008800033e35
:0200890003432f
:02008a00034928
:02008b00034f21
:02008c0003541b
:02008d00035a14
:02008e0003600d
:02008f00036606
:02009000036b00
:020091000371f9
:020092000377f2
:02009300037cec
:020094000382e5
:020095000387df
:02009600038dd8
:020097000393d1
:020098000398cb
:02009900039ec4
:02009a0003a4bd
:02009b0003a9b7
:02009c0003afb0
:02009d0003b4aa
:02009e0003baa3
:02009f0003bf9d
:0200a00003c596
:0200a10003ca90
:0200a20003d089
:0200a30003d682
:0200a40003db7c
:0200a50003e175
:0200a60003e66f
:0200a70003eb69
:0200a80003f162
:0200a90003f65c
:0200aa0003fc55
:0200ab0004014e
:0200ac00040747
:0200ad00040c41
:0200ae0004123a
:0200af00041734
:0200b000041c2e
:0200b100042227
:0200b200042721
:0200b300042c1b
:0200b400043214
:0200b50004370e
:0200b600043d07
:0200b700044201
:0200b8000447fb
:0200b900044cf5
:0200ba000452ee
:0200bb000457e8
:0200bc00045ce2
:0200bd000462db
:0200be000467d5
:0200bf00046ccf
:0200c0000471c9
:0200c1000476c3
:0200c200047cbc
:0200c3000481b6
:0200c4000486b0
:0200c500048baa
:0200c6000490a4
:0200c70004969d
:0200c800049b97
:0200c90004a091
:0200ca0004a58b
:0200cb0004aa85
:0200cc0004af7f
:0200cd0004b479
:0200ce0004b973
:0200cf0004be6d
:0200d00004c367
:0200d10004c861
:0200d20004cd5b
:0200d30004d255
:0200d40004d74f
:0200d50004dc49
:0200d60004e143
:0200d70004e63d
:0200d80004eb37
:0200d90004f031
:0200da0004f52b
:0200db0004fa25
:0200dc0004ff1f
:0200dd00050418
:0200de00050912
:0200df00050e0c
:0200e000051306
:0200e100051701
:0200e200051cfb
:0200e3000521f5
:0200e4000526ef
:0200e500052be9
:0200e6000530e3
:0200e7000534de
:0200e8000539d8
:0200e900053ed2
:0200ea000543cc
:0200eb000547c7
:0200ec00054cc1
:0200ed000551bb
:0200ee000555b6
:0200ef00055ab0
:0200f000055faa
:0200f1000563a5
:0200f20005689f
:0200f300056d99
:0200f400057194
:0200f50005768e
:0200f600057a89
:0200f700057f83
:0200f80005837e
:0200f900058878
:0200fa00058d72
:0200fb0005916d
:0200fc00059667
:0200fd00059a62
:0200fe00059f5c
:0200ff0005a357
:0201000005a751
:0201010005ac4b
:0201020005b046
:0201030005b540
:0201040005b93b
:0201050005bd36
:0201060005c230
:0201070005c62b
:0201080005cb25
:0201090005cf20
:02010a0005d31b
:02010b0005d716
:02010c0005dc10
:02010d0005e00b
:02010e0005e406
:02010f0005e900
:0201100005edfb
:0201110005f1f6
:0201120005f5f1
:0201130005f9ec
:0201140005fde7
:020115000602e0
:020116000606db
:02011700060ad6
:02011800060ed1
:020119000612cc
:02011a000616c7
:02011b00061ac2
:02011c00061ebd
:02011d000622b8
:02011e000626b3
:02011f00062aae
:02012000062ea9
:020121000632a4
:0201220006369f
:02012300063a9a
:02012400063e95
:02012500064290
:0201260006468b
:02012700064a86
:02012800064e81
:0201290006527c
:02012a00065578
:02012b00065973
:02012c00065d6e
:02012d00066169
:02012e00066564
:02012f00066860
:02013000066c5b
:02013100067056
:02013200067451
:0201330006774d
:02013400067b48
:02013500067f43
:0201360006823f
:0201370006863a
:02013800068a35
:02013900068d31
:02013a0006912c
:02013b00069428
:02013c00069823
:02013d00069b1f
:02013e00069f1a
:02013f0006a315
:0201400006a611
:0201410006a90d
:0201420006ad08
:0201430006b004
:0201440006b4ff
:0201450006b7fb
:0201460006bbf6
:0201470006bef2
:0201480006c1ee
:0201490006c5e9
:02014a0006c8e5
:02014b0006cbe1
:02014c0006cfdc
:02014d0006d2d8
:02014e0006d5d4
:02014f0006d9cf
:0201500006dccb
:0201510006dfc7
:0201520006e2c3
:0201530006e5bf
:0201540006e9ba
:0201550006ecb6
:0201560006efb2
:0201570006f2ae
:0201580006f5aa
:0201590006f8a6
:02015a0006fba2
:02015b0006fe9e
:02015c00070199
:02015d00070495
:02015e00070791
:02015f00070a8d
:02016000070d89
:02016100071085
:02016200071381
:0201630007167d
:02016400071979
:02016500071c75
:02016600071f71
:0201670007226d
:0201680007246a
:02016900072766
:02016a00072a62
:02016b00072d5e
:02016c0007305a
:02016d00073257
:02016e00073553
:02016f0007384f
:02017000073a4c
:02017100073d48
:02017200074044
:02017300074241
:0201740007453d
:02017500074839
:02017600074a36
:02017700074d32
:02017800074f2f
:0201790007522b
:02017a00075428
:02017b00075724
:02017c00075921
:02017d00075c1d
:02017e00075e1a
:02017f00076116
:02018000076313
:0201810007660f
:0201820007680c
:02018300076a09
:02018400076d05
:02018500076f02
:020186000771ff
:020187000774fb
:020188000776f8
:020189000778f5
:02018a00077af2
:02018b00077dee
:02018c00077feb
:02018d000781e8
:02018e000783e5
:02018f000785e2
:020190000787df
:020191000789dc
:02019200078cd8
:02019300078ed5
:020194000790d2
:020195000792cf
:020196000794cc
:020197000796c9
:020198000798c6
:02019900079ac3
:02019a00079cc0
:02019b00079ebd
:02019c00079fbb
:02019d0007a1b8
:02019e0007a3b5
:02019f0007a5b2
:0201a00007a7af
:0201a10007a9ac
:0201a20007aaaa
:0201a30007aca7
:0201a40007aea4
:0201a50007b0a1
:0201a60007b19f
:0201a70007b39c
:0201a80007b599
:0201a90007b796
:0201aa0007b894
:0201ab0007ba91
:0201ac0007bb8f
:0201ad0007bd8c
:0201ae0007bf89
:0201af0007c087
:0201b00007c284
:0201b10007c382
:0201b20007c57f
:0201b30007c67d
:0201b40007c87a
:0201b50007c978
:0201b60007ca76
:0201b70007cc73
:0201b80007cd71
:0201b90007cf6e
:0201ba0007d06c
:0201bb0007d16a
:0201bc0007d367
:0201bd0007d465
:0201be0007d563
:0201bf0007d661
:0201c00007d85e
:0201c10007d95c
:0201c20007da5a
:0201c30007db58
:0201c40007dc56
:0201c50007de53
:0201c60007df51
:0201c70007e04f
:0201c80007e14d
:0201c90007e24b
:0201ca0007e349
:0201cb0007e447
:0201cc0007e545
:0201cd0007e643
:0201ce0007e741
:0201cf0007e83f
:0201d00007e93d
:0201d10007ea3b
:0201d20007eb39
:0201d30007ec37
:0201d40007ec36
:0201d50007ed34
:0201d60007ee32
:0201d70007ef30
:0201d80007f02e
:0201d90007f02d
:0201da0007f12b
:0201db0007f229
:0201dc0007f327
:0201dd0007f326
:0201de0007f424
:0201df0007f522
:0201e00007f521
:0201e10007f61f
:0201e20007f61e
:0201e30007f71c
:0201e40007f71b
:0201e50007f819
:0201e60007f818
:0201e70007f916
:0201e80007f915
:0201e90007fa13
:0201ea0007fa12
:0201eb0007fb10
:0201ec0007fb0f
:0201ed0007fc0d
:0201ee0007fc0c
:0201ef0007fc0b
:0201f00007fd09
:0201f10007fd08
:0201f20007fd07
:0201f30007fd06
:0201f40007fe04
:0201f50007fe03
:0201f60007fe02
:0201f70007fe01
:0201f80007fe00
:0201f90007fffe
:0201fa0007fffd
:0201fb0007fffc
:0201fc0007fffb
:0201fd0007fffa
:0201fe0007fff9
:0201ff0007fff8
:0202000007fff6
:0202010007fff5
:0202020007fff4
:0202030007fff3
:0202040007fff2
:0202050007fff1
:0202060007fff0
:0202070007ffef
:0202080007feef
:0202090007feee
:02020a0007feed
:02020b0007feec
:02020c0007feeb
:02020d0007fdeb
:02020e0007fdea
:02020f0007fde9
:0202100007fde8
:0202110007fce8
:0202120007fce7
:0202130007fce6
:0202140007fbe6
:0202150007fbe5
:0202160007fae5
:0202170007fae4
:0202180007f9e4
:0202190007f9e3
:02021a0007f8e3
:02021b0007f8e2
:02021c0007f7e2
:02021d0007f7e1
:02021e0007f6e1
:02021f0007f6e0
:0202200007f5e0
:0202210007f5df
:0202220007f4df
:0202230007f3df
:0202240007f3de
:0202250007f2de
:0202260007f1de
:0202270007f0de
:0202280007f0dd
:0202290007efdd
:02022a0007eedd
:02022b0007eddd
:02022c0007ecdd
:02022d0007ecdc
:02022e0007ebdc
:02022f0007eadc
:0202300007e9dc
:0202310007e8dc
:0202320007e7dc
:0202330007e6dc
:0202340007e5dc
:0202350007e4dc
:0202360007e3dc
:0202370007e2dc
:0202380007e1dc
:0202390007e0dc
:02023a0007dfdc
:02023b0007dedc
:02023c0007dcdd
:02023d0007dbdd
:02023e0007dadd
:02023f0007d9dd
:0202400007d8dd
:0202410007d6de
:0202420007d5de
:0202430007d4de
:0202440007d3de
:0202450007d1df
:0202460007d0df
:0202470007cfdf
:0202480007cde0
:0202490007cce0
:02024a0007cae1
:02024b0007c9e1
:02024c0007c8e1
:02024d0007c6e2
:02024e0007c5e2
:02024f0007c3e3
:0202500007c2e3
:0202510007c0e4
:0202520007bfe4
:0202530007bde5
:0202540007bbe6
:0202550007bae6
:0202560007b8e7
:0202570007b7e7
:0202580007b5e8
:0202590007b3e9
:02025a0007b1ea
:02025b0007b0ea
:02025c0007aeeb
:02025d0007acec
:02025e0007aaed
:02025f0007a9ed
:0202600007a7ee
:0202610007a5ef
:0202620007a3f0
:0202630007a1f1
:02026400079ff2
:02026500079ef2
:02026600079cf3
:02026700079af4
:020268000798f5
:020269000796f6
:02026a000794f7
:02026b000792f8
:02026c000790f9
:02026d00078efa
:02026e00078cfb
:02026f000789fd
:020270000787fe
:020271000785ff
:02027200078300
:02027300078101
:02027400077f02
:02027500077d03
:02027600077a05
:02027700077806
:02027800077607
:02027900077408
:02027a0007710a
:02027b00076f0b
:02027c00076d0c
:02027d00076a0e
:02027e0007680f
:02027f00076610
:02028000076312
:02028100076113
:02028200075e15
:02028300075c16
:02028400075918
:02028500075719
:0202860007541b
:0202870007521c
:02028800074f1e
:02028900074d1f
:02028a00074a21
:02028b00074822
:02028c00074524
:02028d00074226
:02028e00074027
:02028f00073d29
:02029000073a2b
:0202910007382c
:0202920007352e
:02029300073230
:02029400073031
:02029500072d33
:02029600072a35
:02029700072737
:02029800072439
:0202990007223a
:02029a00071f3c
:02029b00071c3e
:02029c00071940
:02029d00071642
:02029e00071344
:02029f00071046
:0202a000070d48
:0202a100070a4a
:0202a20007074c
:0202a30007044e
:0202a400070150
:0202a50006fe53
:0202a60006fb55
:0202a70006f857
:0202a80006f559
:0202a90006f25b
:0202aa0006ef5d
:0202ab0006ec5f
:0202ac0006e961
:0202ad0006e564
:0202ae0006e266
:0202af0006df68
:0202b00006dc6a
:0202b10006d96c
:0202b20006d56f
:0202b30006d271
:0202b40006cf73
:0202b50006cb76
:0202b60006c878
:0202b70006c57a
:0202b80006c17d
:0202b90006be7f
:0202ba0006bb81
:0202bb0006b784
:0202bc0006b486
:0202bd0006b089
:0202be0006ad8b
:0202bf0006a98e
:0202c00006a690
:0202c10006a392
:0202c200069f95
:0202c300069b98
:0202c40006989a
:0202c50006949d
:0202c60006919f
:0202c700068da2
:0202c800068aa4
:0202c9000686a7
:0202ca000682aa
:0202cb00067fac
:0202cc00067baf
:0202cd000677b2
:0202ce000674b4
:0202cf000670b7
:0202d000066cba
:0202d1000668bd
:0202d2000665bf
:0202d3000661c2
:0202d400065dc5
:0202d5000659c8
:0202d6000655cb
:0202d7000652cd
:0202d800064ed0
:0202d900064ad3
:0202da000646d6
:0202db000642d9
:0202dc00063edc
:0202dd00063adf
:0202de000636e2
:0202df000632e5
:0202e000062ee8
:0202e100062aeb
:0202e2000626ee
:0202e3000622f1
:0202e400061ef4
:0202e500061af7
:0202e6000616fa
:0202e7000612fd
:0202e800060e00
:0202e900060a03
:0202ea00060606
:0202eb00060209
:0202ec0005fd0e
:0202ed0005f911
:0202ee0005f514
:0202ef0005f117
:0202f00005ed1a
:0202f10005e91d
:0202f20005e421
:0202f30005e024
:0202f40005dc27
:0202f50005d72b
:0202f60005d32e
:0202f70005cf31
:0202f80005cb34
:0202f90005c638
:0202fa0005c23b
:0202fb0005bd3f
:0202fc0005b942
:0202fd0005b545
:0202fe0005b049
:0202ff0005ac4c
:0203000005a74f
:0203010005a352
:02030200059f55
:02030300059a59
:0203040005965c
:02030500059160
:02030600058d63
:02030700058867
:0203080005836b
:02030900057f6e
:02030a00057a72
:02030b00057675
:02030c00057179
:02030d00056d7c
:02030e00056880
:02030f00056384
:02031000055f87
:02031100055a8b
:0203120005558f
:02031300055192
:02031400054c96
:0203150005479a
:0203160005439d
:02031700053ea1
:020318000539a5
:020319000534a9
:02031a000530ac
:02031b00052bb0
:02031c000526b4
:02031d000521b8
:02031e00051cbc
:02031f000517c0
:020320000513c3
:02032100050ec7
:020322000509cb
:020323000504cf
:0203240004ffd4
:0203250004fad8
:0203260004f5dc
:0203270004f0e0
:0203280004ebe4
:0203290004e6e8
:02032a0004e1ec
:02032b0004dcf0
:02032c0004d7f4
:02032d0004d2f8
:02032e0004cdfc
:02032f0004c800
:0203300004c304
:0203310004be08
:0203320004b90c
:0203330004b410
:0203340004af14
:0203350004aa18
:0203360004a51c
:0203370004a020
:02033800049b24
:02033900049628
:02033a0004902d
:02033b00048b31
:02033c00048635
:02033d00048139
:02033e00047c3d
:02033f00047642
:02034000047146
:02034100046c4a
:0203420004674e
:02034300046252
:02034400045c57
:0203450004575b
:0203460004525f
:02034700044c64
:02034800044768
:0203490004426c
:02034a00043d70
:02034b00043775
:02034c00043279
:02034d00042c7e
:02034e00042782
:02034f00042286
:02035000041c8b
:0203510004178f
:02035200041293
:02035300040c98
:0203540004079c
:020355000401a1
:0203560003fca6
:0203570003f6ab
:0203580003f1af
:0203590003ebb4
:02035a0003e6b8
:02035b0003e1bc
:02035c0003dbc1
:02035d0003d6c5
:02035e0003d0ca
:02035f0003cacf
:0203600003c5d3
:0203610003bfd8
:0203620003badc
:0203630003b4e1
:0203640003afe5
:0203650003a9ea
:0203660003a4ee
:02036700039ef3
:020368000398f8
:020369000393fc
:02036a00038d01
:02036b00038706
:02036c0003820a
:02036d00037c0f
:02036e00037713
:02036f00037118
:02037000036b1d
:02037100036621
:02037200036026
:02037300035a2b
:02037400035430
:02037500034f34
:02037600034939
:0203770003433e
:02037800033e42
:02037900033847
:02037a0003324c
:02037b00032c51
:02037c00032755
:02037d0003215a
:02037e00031b5f
:02037f00031564
:02038000030f69
:02038100030a6d
:02038200030472
:0203830002fe78
:0203840002f87d
:0203850002f282
:0203860002ec87
:0203870002e78b
:0203880002e190
:0203890002db95
:02038a0002d59a
:02038b0002cf9f
:02038c0002c9a4
:02038d0002c3a9
:02038e0002bdae
:02038f0002b8b2
:0203900002b2b7
:0203910002acbc
:0203920002a6c1
:0203930002a0c6
:02039400029acb
:020395000294d0
:02039600028ed5
:020397000288da
:020398000282df
:02039900027ce4
:02039a000276e9
:02039b000270ee
:02039c00026af3
:02039d000264f8
:02039e00025efd
:02039f00025802
:0203a000025207
:0203a100024c0c
:0203a200024611
:0203a300024016
:0203a400023a1b
:0203a500023420
:0203a600022e25
:0203a70002282a
:0203a80002222f
:0203a900021c34
:0203aa00021639
:0203ab0002103e
:0203ac00020a43
:0203ad00020448
:0203ae0001fe4e
:0203af0001f754
:0203b00001f159
:0203b10001eb5e
:0203b20001e563
:0203b30001df68
:0203b40001d96d
:0203b50001d372
:0203b60001cd77
:0203b70001c77c
:0203b80001c181
:0203b90001ba87
:0203ba0001b48c
:0203bb0001ae91
:0203bc0001a896
:0203bd0001a29b
:0203be00019ca0
:0203bf000196a5
:0203c000018fab
:0203c1000189b0
:0203c2000183b5
:0203c300017dba
:0203c4000177bf
:0203c5000171c4
:0203c600016aca
:0203c7000164cf
:0203c800015ed4
:0203c9000158d9
:0203ca000152de
:0203cb00014be4
:0203cc000145e9
:0203cd00013fee
:0203ce000139f3
:0203cf000133f8
:0203d000012cfe
:0203d100012603
:0203d200012008
:0203d300011a0d
:0203d400011313
:0203d500010d18
:0203d60001071d
:0203d700010122
:0203d80000fb28
:0203d90000f42e
:0203da0000ee33
:0203db0000e838
:0203dc0000e23d
:0203dd0000db43
:0203de0000d548
:0203df0000cf4d
:0203e00000c952
:0203e10000c258
:0203e20000bc5d
:0203e30000b662
:0203e40000b067
:0203e50000a96d
:0203e60000a372
:0203e700009d77
:0203e80000977c
:0203e900009082
:0203ea00008a87
:0203eb0000848c
:0203ec00007e91
:0203ed00007797
:0203ee0000719c
:0203ef00006ba1
:0203f0000064a7
:0203f100005eac
:0203f2000058b1
:0203f3000052b6
:0203f400004bbc
:0203f5000045c1
:0203f600003fc6
:0203f7000039cb
:0203f8000032d1
:0203f900002cd6
:0203fa000026db
:0203fb00001fe1
:0203fc000019e6
:0203fd000013eb
:0203fe00000df0
:0203ff000006f6
:020400000000fa
:020401000ffaf0
:020402000ff3f6
:020403000fedfb
:020404000fe700
:020405000fe105
:020406000fda0b
:020407000fd410
:020408000fce15
:020409000fc71b
:02040a000fc120
:02040b000fbb25
:02040c000fb52a
:02040d000fae30
:02040e000fa835
:02040f000fa23a
:020410000f9c3f
:020411000f9545
:020412000f8f4a
:020413000f894f
:020414000f8255
:020415000f7c5a
:020416000f765f
:020417000f7064
:020418000f696a
:020419000f636f
:02041a000f5d74
:02041b000f5779
:02041c000f507f
:02041d000f4a84
:02041e000f4489
:02041f000f3e8e
:020420000f3794
:020421000f3199
:020422000f2b9e
:020423000f25a3
:020424000f1ea9
:020425000f18ae
:020426000f12b3
:020427000f0cb8
:020428000f05be
:020429000effc4
:02042a000ef9c9
:02042b000ef3ce
:02042c000eedd3
:02042d000ee6d9
:02042e000ee0de
:02042f000edae3
:020430000ed4e8
:020431000ecdee
:020432000ec7f3
:020433000ec1f8
:020434000ebbfd
:020435000eb502
:020436000eae08
:020437000ea80d
:020438000ea212
:020439000e9c17
:02043a000e961c
:02043b000e8f22
:02043c000e8927
:02043d000e832c
:02043e000e7d31
:02043f000e7736
:020440000e713b
:020441000e6a41
:020442000e6446
:020443000e5e4b
:020444000e5850
:020445000e5255
:020446000e4c5a
:020447000e465f
:020448000e3f65
:020449000e396a
:02044a000e336f
:02044b000e2d74
:02044c000e2779
:02044d000e217e
:02044e000e1b83
:02044f000e1588
:020450000e0f8d
:020451000e0992
:020452000e0298
:020453000dfc9e
:020454000df6a3
:020455000df0a8
:020456000deaad
:020457000de4b2
:020458000ddeb7
:020459000dd8bc
:02045a000dd2c1
:02045b000dccc6
:02045c000dc6cb
:02045d000dc0d0
:02045e000dbad5
:02045f000db4da
:020460000daedf
:020461000da8e4
:020462000da2e9
:020463000d9cee
:020464000d96f3
:020465000d90f8
:020466000d8afd
:020467000d8402
:020468000d7e07
:020469000d780c
:02046a000d7211
:02046b000d6c16
:02046c000d661b
:02046d000d6020
:02046e000d5a25
:02046f000d542a
:020470000d4e2f
:020471000d4834
:020472000d4338
:020473000d3d3d
:020474000d3742
:020475000d3147
:020476000d2b4c
:020477000d2551
:020478000d1f56
:020479000d195b
:02047a000d145f
:02047b000d0e64
:02047c000d0869
:02047d000d026e
:02047e000cfc74
:02047f000cf679
:020480000cf17d
:020481000ceb82
:020482000ce587
:020483000cdf8c
:020484000cd991
:020485000cd495
:020486000cce9a
:020487000cc89f
:020488000cc2a4
:020489000cbda8
:02048a000cb7ad
:02048b000cb1b2
:02048c000cacb6
:02048d000ca6bb
:02048e000ca0c0
:02048f000c9ac5
:020490000c95c9
:020491000c8fce
:020492000c89d3
:020493000c84d7
:020494000c7edc
:020495000c79e0
:020496000c73e5
:020497000c6dea
:020498000c68ee
:020499000c62f3
:02049a000c5cf8
:02049b000c57fc
:02049c000c5101
:02049d000c4c05
:02049e000c460a
:02049f000c410e
:0204a0000c3b13
:0204a1000c3617
:0204a2000c301c
:0204a3000c2a21
:0204a4000c2525
:0204a5000c1f2a
:0204a6000c1a2e
:0204a7000c1532
:0204a8000c0f37
:0204a9000c0a3b
:0204aa000c0440
:0204ab000bff45
:0204ac000bf94a
:0204ad000bf44e
:0204ae000bee53
:0204af000be957
:0204b0000be45b
:0204b1000bde60
:0204b2000bd964
:0204b3000bd468
:0204b4000bce6d
:0204b5000bc971
:0204b6000bc376
:0204b7000bbe7a
:0204b8000bb97e
:0204b9000bb482
:0204ba000bae87
:0204bb000ba98b
:0204bc000ba48f
:0204bd000b9e94
:0204be000b9998
:0204bf000b949c
:0204c0000b8fa0
:0204c1000b8aa4
:0204c2000b84a9
:0204c3000b7fad
:0204c4000b7ab1
:0204c5000b75b5
:0204c6000b70b9
:0204c7000b6abe
:0204c8000b65c2
:0204c9000b60c6
:0204ca000b5bca
:0204cb000b56ce
:0204cc000b51d2
:0204cd000b4cd6
:0204ce000b47da
:0204cf000b42de
:0204d0000b3de2
:0204d1000b38e6
:0204d2000b33ea
:0204d3000b2eee
:0204d4000b29f2
:0204d5000b24f6
:0204d6000b1ffa
:0204d7000b1afe
:0204d8000b1502
:0204d9000b1006
:0204da000b0b0a
:0204db000b060e
:0204dc000b0112
:0204dd000afc17
:0204de000af71b
:0204df000af21f
:0204e0000aed23
:0204e1000ae926
:0204e2000ae42a
:0204e3000adf2e
:0204e4000ada32
:0204e5000ad536
:0204e6000ad03a
:0204e7000acc3d
:0204e8000ac741
:0204e9000ac245
:0204ea000abd49
:0204eb000ab94c
:0204ec000ab450
:0204ed000aaf54
:0204ee000aab57
:0204ef000aa65b
:0204f0000aa15f
:0204f1000a9d62
:0204f2000a9866
:0204f3000a936a
:0204f4000a8f6d
:0204f5000a8a71
:0204f6000a8674
:0204f7000a8178
:0204f8000a7d7b
:0204f9000a787f
:0204fa000a7383
:0204fb000a6f86
:0204fc000a6a8a
:0204fd000a668d
:0204fe000a6191
:0204ff000a5d94
:020500000a5996
:020501000a549a
:020502000a509d
:020503000a4ba1
:020504000a47a4
:020505000a43a7
:020506000a3eab
:020507000a3aae
:020508000a35b2
:020509000a31b5
:02050a000a2db8
:02050b000a29bb
:02050c000a24bf
:02050d000a20c2
:02050e000a1cc5
:02050f000a17c9
:020510000a13cc
:020511000a0fcf
:020512000a0bd2
:020513000a07d5
:020514000a03d8
:0205150009fedd
:0205160009fae0
:0205170009f6e3
:0205180009f2e6
:0205190009eee9
:02051a0009eaec
:02051b0009e6ef
:02051c0009e2f2
:02051d0009def5
:02051e0009daf8
:02051f0009d6fb
:0205200009d2fe
:0205210009ce01
:0205220009ca04
:0205230009c607
:0205240009c20a
:0205250009be0d
:0205260009ba10
:0205270009b613
:0205280009b216
:0205290009ae19
:02052a0009ab1b
:02052b0009a71e
:02052c0009a321
:02052d00099f24
:02052e00099b27
:02052f00099829
:0205300009942c
:0205310009902f
:02053200098c32
:02053300098934
:02053400098537
:0205350009813a
:02053600097e3c
:02053700097a3f
:02053800097642
:02053900097344
:02053a00096f47
:02053b00096c49
:02053c0009684c
:02053d0009654e
:02053e00096151
:02053f00095d54
:02054000095a56
:02054100095758
:0205420009535b
:0205430009505d
:02054400094c60
:02054500094962
:02054600094565
:02054700094267
:02054800093f69
:02054900093b6c
:02054a0009386e
:02054b00093570
:02054c00093173
:02054d00092e75
:02054e00092b77
:02054f0009277a
:0205500009247c
:0205510009217e
:02055200091e80
:02055300091b82
:02055400091785
:02055500091487
:02055600091189
:02055700090e8b
:02055800090b8d
:0205590009088f
:02055a00090591
:02055b00090293
:02055c0008ff96
:02055d0008fc98
:02055e0008f99a
:02055f0008f69c
:0205600008f39e
:0205610008f0a0
:0205620008eda2
:0205630008eaa4
:0205640008e7a6
:0205650008e4a8
:0205660008e1aa
:0205670008deac
:0205680008dcad
:0205690008d9af
:02056a0008d6b1
:02056b0008d3b3
:02056c0008d0b5
:02056d0008ceb6
:02056e0008cbb8
:02056f0008c8ba
:0205700008c6bb
:0205710008c3bd
:0205720008c0bf
:0205730008bec0
:0205740008bbc2
:0205750008b8c4
:0205760008b6c5
:0205770008b3c7
:0205780008b1c8
:0205790008aeca
:02057a0008accb
:02057b0008a9cd
:02057c0008a7ce
:02057d0008a4d0
:02057e0008a2d1
:02057f00089fd3
:02058000089dd4
:02058100089ad6
:020582000898d7
:020583000896d8
:020584000893da
:020585000891db
:02058600088fdc
:02058700088cde
:02058800088adf
:020589000888e0
:02058a000886e1
:02058b000883e3
:02058c000881e4
:02058d00087fe5
:02058e00087de6
:02058f00087be7
:020590000879e8
:020591000877e9
:020592000874eb
:020593000872ec
:020594000870ed
:02059500086eee
:02059600086cef
:02059700086af0
:020598000868f1
:020599000866f2
:02059a000864f3
:02059b000862f4
:02059c000861f4
:02059d00085ff5
:02059e00085df6
:02059f00085bf7
:0205a0000859f8
:0205a1000857f9
:0205a2000856f9
:0205a3000854fa
:0205a4000852fb
:0205a5000850fc
:0205a600084ffc
:0205a700084dfd
:0205a800084bfe
:0205a9000849ff
:0205aa000848ff
:0205ab00084600
:0205ac00084500
:0205ad00084301
:0205ae00084102
:0205af00084002
:0205b000083e03
:0205b100083d03
:0205b200083b04
:0205b300083a04
:0205b400083805
:0205b500083705
:0205b600083605
:0205b700083406
:0205b800083306
:0205b900083107
:0205ba00083007
:0205bb00082f07
:0205bc00082d08
:0205bd00082c08
:0205be00082b08
:0205bf00082a08
:0205c000082809
:0205c100082709
:0205c200082609
:0205c300082509
:0205c400082409
:0205c50008220a
:0205c60008210a
:0205c70008200a
:0205c800081f0a
:0205c900081e0a
:0205ca00081d0a
:0205cb00081c0a
:0205cc00081b0a
:0205cd00081a0a
:0205ce0008190a
:0205cf0008180a
:0205d00008170a
:0205d10008160a
:0205d20008150a
:0205d30008140a
:0205d400081409
:0205d500081309
:0205d600081209
:0205d700081109
:0205d800081009
:0205d900081008
:0205da00080f08
:0205db00080e08
:0205dc00080d08
:0205dd00080d07
:0205de00080c07
:0205df00080b07
:0205e000080b06
:0205e100080a06
:0205e200080a05
:0205e300080905
:0205e400080904
:0205e500080804
:0205e600080803
:0205e700080703
:0205e800080702
:0205e900080602
:0205ea00080601
:0205eb00080501
:0205ec00080500
:0205ed00080400
:0205ee000804ff
:0205ef000804fe
:0205f0000803fe
:0205f1000803fd
:0205f2000803fc
:0205f3000803fb
:0205f4000802fb
:0205f5000802fa
:0205f6000802f9
:0205f7000802f8
:0205f8000802f7
:0205f9000801f7
:0205fa000801f6
:0205fb000801f5
:0205fc000801f4
:0205fd000801f3
:0205fe000801f2
:0205ff000801f1
:020600000801ef
:020601000801ee
:020602000801ed
:020603000801ec
:020604000801eb
:020605000801ea
:020606000801e9
:020607000801e8
:020608000802e6
:020609000802e5
:02060a000802e4
:02060b000802e3
:02060c000802e2
:02060d000803e0
:02060e000803df
:02060f000803de
:020610000803dd
:020611000804db
:020612000804da
:020613000804d9
:020614000805d7
:020615000805d6
:020616000806d4
:020617000806d3
:020618000807d1
:020619000807d0
:02061a000808ce
:02061b000808cd
:02061c000809cb
:02061d000809ca
:02061e00080ac8
:02061f00080ac7
:02062000080bc5
:02062100080bc4
:02062200080cc2
:02062300080dc0
:02062400080dbf
:02062500080ebd
:02062600080fbb
:020627000810b9
:020628000810b8
:020629000811b6
:02062a000812b4
:02062b000813b2
:02062c000814b0
:02062d000814af
:02062e000815ad
:02062f000816ab
:020630000817a9
:020631000818a7
:020632000819a5
:02063300081aa3
:02063400081ba1
:02063500081c9f
:02063600081d9d
:02063700081e9b
:02063800081f99
:02063900082097
:02063a00082195
:02063b00082293
:02063c00082490
:02063d0008258e
:02063e0008268c
:02063f0008278a
:02064000082888
:02064100082a85
:02064200082b83
:02064300082c81
:02064400082d7f
:02064500082f7c
:0206460008307a
:02064700083178
:02064800083375
:02064900083473
:02064a00083670
:02064b0008376e
:02064c0008386c
:02064d00083a69
:02064e00083b67
:02064f00083d64
:02065000083e62
:0206510008405f
:0206520008415d
:0206530008435a
:02065400084557
:02065500084655
:02065600084852
:02065700084950
:02065800084b4d
:02065900084d4a
:02065a00084f47
:02065b00085045
:02065c00085242
:02065d0008543f
:02065e0008563c
:02065f0008573a
:02066000085937
:02066100085b34
:02066200085d31
:02066300085f2e
:0206640008612b
:02066500086229
:02066600086426
:02066700086623
:02066800086820
:02066900086a1d
:02066a00086c1a
:02066b00086e17
:02066c00087014
:02066d00087211
:02066e0008740e
:02066f0008770a
:02067000087907
:02067100087b04
:02067200087d01
:02067300087ffe
:020674000881fb
:020675000883f8
:020676000886f4
:020677000888f1
:02067800088aee
:02067900088ceb
:02067a00088fe7
:02067b000891e4
:02067c000893e1
:02067d000896dd
:02067e000898da
:02067f00089ad7
:02068000089dd3
:02068100089fd0
:0206820008a2cc
:0206830008a4c9
:0206840008a7c5
:0206850008a9c2
:0206860008acbe
:0206870008aebb
:0206880008b1b7
:0206890008b3b4
:02068a0008b6b0
:02068b0008b8ad
:02068c0008bba9
:02068d0008bea5
:02068e0008c0a2
:02068f0008c39e
:0206900008c69a
:0206910008c897
:0206920008cb93
:0206930008ce8f
:0206940008d08c
:0206950008d388
:0206960008d684
:0206970008d980
:0206980008dc7c
:0206990008de79
:02069a0008e175
:02069b0008e471
:02069c0008e76d
:02069d0008ea69
:02069e0008ed65
:02069f0008f061
:0206a00008f35d
:0206a10008f659
:0206a20008f955
:0206a30008fc51
:0206a40008ff4d
:0206a500090248
:0206a600090544
:0206a700090840
:0206a800090b3c
:0206a900090e38
:0206aa00091134
:0206ab00091430
:0206ac0009172c
:0206ad00091b27
:0206ae00091e23
:0206af0009211f
:0206b00009241b
:0206b100092717
:0206b200092b12
:0206b300092e0e
:0206b40009310a
:0206b500093505
:0206b600093801
:0206b700093bfd
:0206b800093ff8
:0206b9000942f4
:0206ba000945f0
:0206bb000949eb
:0206bc00094ce7
:0206bd000950e2
:0206be000953de
:0206bf000957d9
:0206c000095ad5
:0206c100095dd1
:0206c2000961cc
:0206c3000965c7
:0206c4000968c3
:0206c500096cbe
:0206c600096fba
:0206c7000973b5
:0206c8000976b1
:0206c900097aac
:0206ca00097ea7
:0206cb000981a3
:0206cc0009859e
:0206cd00098999
:0206ce00098c95
:0206cf00099090
:0206d00009948b
:0206d100099886
:0206d200099b82
:0206d300099f7d
:0206d40009a378
:0206d50009a773
:0206d60009ab6e
:0206d70009ae6a
:0206d80009b265
:0206d90009b660
:0206da0009ba5b
:0206db0009be56
:0206dc0009c251
:0206dd0009c64c
:0206de0009ca47
:0206df0009ce42
:0206e00009d23d
:0206e10009d638
:0206e20009da33
:0206e30009de2e
:0206e40009e229
:0206e50009e624
:0206e60009ea1f
:0206e70009ee1a
:0206e80009f215
:0206e90009f610
:0206ea0009fa0b
:0206eb0009fe06
:0206ec000a03ff
:0206ed000a07fa
:0206ee000a0bf5
:0206ef000a0ff0
:0206f0000a13eb
:0206f1000a17e6
:0206f2000a1ce0
:0206f3000a20db
:0206f4000a24d6
:0206f5000a29d0
:0206f6000a2dcb
:0206f7000a31c6
:0206f8000a35c1
:0206f9000a3abb
:0206fa000a3eb6
:0206fb000a43b0
:0206fc000a47ab
:0206fd000a4ba6
:0206fe000a50a0
:0206ff000a549b
:020700000a5994
:020701000a5d8f
:020702000a618a
:020703000a6684
:020704000a6a7f
:020705000a6f79
:020706000a7374
:020707000a786e
:020708000a7d68
:020709000a8163
:02070a000a865d
:02070b000a8a58
:02070c000a8f52
:02070d000a934d
:02070e000a9847
:02070f000a9d41
:020710000aa13c
:020711000aa636
:020712000aab30
:020713000aaf2b
:020714000ab425
:020715000ab91f
:020716000abd1a
:020717000ac214
:020718000ac70e
:020719000acc08
:02071a000ad003
:02071b000ad5fd
:02071c000adaf7
:02071d000adff1
:02071e000ae4eb
:02071f000ae9e5
:020720000aede0
:020721000af2da
:020722000af7d4
:020723000afcce
:020724000b01c7
:020725000b06c1
:020726000b0bbb
:020727000b10b5
:020728000b15af
:020729000b1aa9
:02072a000b1fa3
:02072b000b249d
:02072c000b2997
:02072d000b2e91
:02072e000b338b
:02072f000b3885
:020730000b3d7f
:020731000b4279
:020732000b4773
:020733000b4c6d
:020734000b5167
:020735000b5661
:020736000b5b5b
:020737000b6055
:020738000b654f
:020739000b6a49
:02073a000b7042
:02073b000b753c
:02073c000b7a36
:02073d000b7f30
:02073e000b842a
:02073f000b8a23
:020740000b8f1d
:020741000b9417
:020742000b9911
:020743000b9e0b
:020744000ba404
:020745000ba9fe
:020746000baef8
:020747000bb4f1
:020748000bb9eb
:020749000bbee5
:02074a000bc3df
:02074b000bc9d8
:02074c000bced2
:02074d000bd4cb
:02074e000bd9c5
:02074f000bdebf
:020750000be4b8
:020751000be9b2
:020752000beeac
:020753000bf4a5
:020754000bf99f
:020755000bff98
:020756000c0491
:020757000c0a8a
:020758000c0f84
:020759000c157d
:02075a000c1a77
:02075b000c1f71
:02075c000c256a
:02075d000c2a64
:02075e000c305d
:02075f000c3656
:020760000c3b50
:020761000c4149
:020762000c4643
:020763000c4c3c
:020764000c5136
:020765000c572f
:020766000c5c29
:020767000c6222
:020768000c681b
:020769000c6d15
:02076a000c730e
:02076b000c7907
:02076c000c7e01
:02076d000c84fa
:02076e000c89f4
:02076f000c8fed
:020770000c95e6
:020771000c9ae0
:020772000ca0d9
:020773000ca6d2
:020774000caccb
:020775000cb1c5
:020776000cb7be
:020777000cbdb7
:020778000cc2b1
:020779000cc8aa
:02077a000ccea3
:02077b000cd49c
:02077c000cd996
:02077d000cdf8f
:02077e000ce588
:02077f000ceb81
:020780000cf17a
:020781000cf674
:020782000cfc6d
:020783000d0265
:020784000d085e
:020785000d0e57
:020786000d1450
:020787000d194a
:020788000d1f43
:020789000d253c
:02078a000d2b35
:02078b000d312e
:02078c000d3727
:02078d000d3d20
:02078e000d4319
:02078f000d4813
:020790000d4e0c
:020791000d5405
:020792000d5afe
:020793000d60f7
:020794000d66f0
:020795000d6ce9
:020796000d72e2
:020797000d78db
:020798000d7ed4
:020799000d84cd
:02079a000d8ac6
:02079b000d90bf
:02079c000d96b8
:02079d000d9cb1
:02079e000da2aa
:02079f000da8a3
:0207a0000dae9c
:0207a1000db495
:0207a2000dba8e
:0207a3000dc087
:0207a4000dc680
:0207a5000dcc79
:0207a6000dd272
:0207a7000dd86b
:0207a8000dde64
:0207a9000de45d
:0207aa000dea56
:0207ab000df04f
:0207ac000df648
:0207ad000dfc41
:0207ae000e0239
:0207af000e0931
:0207b0000e0f2a
:0207b1000e1523
:0207b2000e1b1c
:0207b3000e2115
:0207b4000e270e
:0207b5000e2d07
:0207b6000e3300
:0207b7000e39f9
:0207b8000e3ff2
:0207b9000e46ea
:0207ba000e4ce3
:0207bb000e52dc
:0207bc000e58d5
:0207bd000e5ece
:0207be000e64c7
:0207bf000e6ac0
:0207c0000e71b8
:0207c1000e77b1
:0207c2000e7daa
:0207c3000e83a3
:0207c4000e899c
:0207c5000e8f95
:0207c6000e968d
:0207c7000e9c86
:0207c8000ea27f
:0207c9000ea878
:0207ca000eae71
:0207cb000eb569
:0207cc000ebb62
:0207cd000ec15b
:0207ce000ec754
:0207cf000ecd4d
:0207d0000ed445
:0207d1000eda3e
:0207d2000ee037
:0207d3000ee630
:0207d4000eed28
:0207d5000ef321
:0207d6000ef91a
:0207d7000eff13
:0207d8000f050b
:0207d9000f0c03
:0207da000f12fc
:0207db000f18f5
:0207dc000f1eee
:0207dd000f25e6
:0207de000f2bdf
:0207df000f31d8
:0207e0000f37d1
:0207e1000f3ec9
:0207e2000f44c2
:0207e3000f4abb
:0207e4000f50b4
:0207e5000f57ac
:0207e6000f5da5
:0207e7000f639e
:0207e8000f6997
:0207e9000f708f
:0207ea000f7688
:0207eb000f7c81
:0207ec000f827a
:0207ed000f8972
:0207ee000f8f6b
:0207ef000f9564
:0207f0000f9c5c
:0207f1000fa255
:0207f2000fa84e
:0207f3000fae47
:0207f4000fb53f
:0207f5000fbb38
:0207f6000fc131
:0207f7000fc72a
:0207f8000fce22
:0207f9000fd41b
:0207fa000fda14
:0207fb000fe10c
:0207fc000fe705
:0207fd000fedfe
:0207fe000ff3f7
:0207ff000ffaef
:00000001FF
